{
	"contracts/CODToken.sol": {
		"CODToken": {
			"abi": [
				{
					"inputs": [],
					"stateMutability": "nonpayable",
					"type": "constructor"
				},
				{
					"anonymous": false,
					"inputs": [
						{
							"indexed": true,
							"internalType": "address",
							"name": "owner",
							"type": "address"
						},
						{
							"indexed": true,
							"internalType": "address",
							"name": "spender",
							"type": "address"
						},
						{
							"indexed": false,
							"internalType": "uint256",
							"name": "value",
							"type": "uint256"
						}
					],
					"name": "Approval",
					"type": "event"
				},
				{
					"anonymous": false,
					"inputs": [
						{
							"indexed": true,
							"internalType": "address",
							"name": "from",
							"type": "address"
						},
						{
							"indexed": true,
							"internalType": "address",
							"name": "to",
							"type": "address"
						},
						{
							"indexed": false,
							"internalType": "uint256",
							"name": "value",
							"type": "uint256"
						}
					],
					"name": "Transfer",
					"type": "event"
				},
				{
					"inputs": [],
					"name": "admin",
					"outputs": [
						{
							"internalType": "address",
							"name": "",
							"type": "address"
						}
					],
					"stateMutability": "view",
					"type": "function"
				},
				{
					"inputs": [
						{
							"internalType": "address",
							"name": "owner",
							"type": "address"
						},
						{
							"internalType": "address",
							"name": "spender",
							"type": "address"
						}
					],
					"name": "allowance",
					"outputs": [
						{
							"internalType": "uint256",
							"name": "",
							"type": "uint256"
						}
					],
					"stateMutability": "view",
					"type": "function"
				},
				{
					"inputs": [
						{
							"internalType": "address",
							"name": "spender",
							"type": "address"
						},
						{
							"internalType": "uint256",
							"name": "amount",
							"type": "uint256"
						}
					],
					"name": "approve",
					"outputs": [
						{
							"internalType": "bool",
							"name": "",
							"type": "bool"
						}
					],
					"stateMutability": "nonpayable",
					"type": "function"
				},
				{
					"inputs": [
						{
							"internalType": "address",
							"name": "account",
							"type": "address"
						}
					],
					"name": "balanceOf",
					"outputs": [
						{
							"internalType": "uint256",
							"name": "",
							"type": "uint256"
						}
					],
					"stateMutability": "view",
					"type": "function"
				},
				{
					"inputs": [
						{
							"internalType": "address",
							"name": "_recipient",
							"type": "address"
						}
					],
					"name": "buyToken",
					"outputs": [],
					"stateMutability": "payable",
					"type": "function"
				},
				{
					"inputs": [],
					"name": "decimals",
					"outputs": [
						{
							"internalType": "uint8",
							"name": "",
							"type": "uint8"
						}
					],
					"stateMutability": "view",
					"type": "function"
				},
				{
					"inputs": [
						{
							"internalType": "address",
							"name": "spender",
							"type": "address"
						},
						{
							"internalType": "uint256",
							"name": "subtractedValue",
							"type": "uint256"
						}
					],
					"name": "decreaseAllowance",
					"outputs": [
						{
							"internalType": "bool",
							"name": "",
							"type": "bool"
						}
					],
					"stateMutability": "nonpayable",
					"type": "function"
				},
				{
					"inputs": [
						{
							"internalType": "address",
							"name": "spender",
							"type": "address"
						},
						{
							"internalType": "uint256",
							"name": "addedValue",
							"type": "uint256"
						}
					],
					"name": "increaseAllowance",
					"outputs": [
						{
							"internalType": "bool",
							"name": "",
							"type": "bool"
						}
					],
					"stateMutability": "nonpayable",
					"type": "function"
				},
				{
					"inputs": [],
					"name": "name",
					"outputs": [
						{
							"internalType": "string",
							"name": "",
							"type": "string"
						}
					],
					"stateMutability": "view",
					"type": "function"
				},
				{
					"inputs": [],
					"name": "symbol",
					"outputs": [
						{
							"internalType": "string",
							"name": "",
							"type": "string"
						}
					],
					"stateMutability": "view",
					"type": "function"
				},
				{
					"inputs": [],
					"name": "totalSupply",
					"outputs": [
						{
							"internalType": "uint256",
							"name": "",
							"type": "uint256"
						}
					],
					"stateMutability": "view",
					"type": "function"
				},
				{
					"inputs": [
						{
							"internalType": "address",
							"name": "to",
							"type": "address"
						},
						{
							"internalType": "uint256",
							"name": "amount",
							"type": "uint256"
						}
					],
					"name": "transfer",
					"outputs": [
						{
							"internalType": "bool",
							"name": "",
							"type": "bool"
						}
					],
					"stateMutability": "nonpayable",
					"type": "function"
				},
				{
					"inputs": [
						{
							"internalType": "address",
							"name": "from",
							"type": "address"
						},
						{
							"internalType": "address",
							"name": "to",
							"type": "address"
						},
						{
							"internalType": "uint256",
							"name": "amount",
							"type": "uint256"
						}
					],
					"name": "transferFrom",
					"outputs": [
						{
							"internalType": "bool",
							"name": "",
							"type": "bool"
						}
					],
					"stateMutability": "nonpayable",
					"type": "function"
				}
			],
			"devdoc": {
				"kind": "dev",
				"methods": {
					"allowance(address,address)": {
						"details": "See {IERC20-allowance}."
					},
					"approve(address,uint256)": {
						"details": "See {IERC20-approve}. NOTE: If `amount` is the maximum `uint256`, the allowance is not updated on `transferFrom`. This is semantically equivalent to an infinite approval. Requirements: - `spender` cannot be the zero address."
					},
					"balanceOf(address)": {
						"details": "See {IERC20-balanceOf}."
					},
					"decimals()": {
						"details": "Returns the number of decimals used to get its user representation. For example, if `decimals` equals `2`, a balance of `505` tokens should be displayed to a user as `5.05` (`505 / 10 ** 2`). Tokens usually opt for a value of 18, imitating the relationship between Ether and Wei. This is the value {ERC20} uses, unless this function is overridden; NOTE: This information is only used for _display_ purposes: it in no way affects any of the arithmetic of the contract, including {IERC20-balanceOf} and {IERC20-transfer}."
					},
					"decreaseAllowance(address,uint256)": {
						"details": "Atomically decreases the allowance granted to `spender` by the caller. This is an alternative to {approve} that can be used as a mitigation for problems described in {IERC20-approve}. Emits an {Approval} event indicating the updated allowance. Requirements: - `spender` cannot be the zero address. - `spender` must have allowance for the caller of at least `subtractedValue`."
					},
					"increaseAllowance(address,uint256)": {
						"details": "Atomically increases the allowance granted to `spender` by the caller. This is an alternative to {approve} that can be used as a mitigation for problems described in {IERC20-approve}. Emits an {Approval} event indicating the updated allowance. Requirements: - `spender` cannot be the zero address."
					},
					"name()": {
						"details": "Returns the name of the token."
					},
					"symbol()": {
						"details": "Returns the symbol of the token, usually a shorter version of the name."
					},
					"totalSupply()": {
						"details": "See {IERC20-totalSupply}."
					},
					"transfer(address,uint256)": {
						"details": "See {IERC20-transfer}. Requirements: - `to` cannot be the zero address. - the caller must have a balance of at least `amount`."
					},
					"transferFrom(address,address,uint256)": {
						"details": "See {IERC20-transferFrom}. Emits an {Approval} event indicating the updated allowance. This is not required by the EIP. See the note at the beginning of {ERC20}. NOTE: Does not update the allowance if the current allowance is the maximum `uint256`. Requirements: - `from` and `to` cannot be the zero address. - `from` must have a balance of at least `amount`. - the caller must have allowance for ``from``'s tokens of at least `amount`."
					}
				},
				"version": 1
			},
			"evm": {
				"assembly": "    /* \"contracts/CODToken.sol\":172:584  contract CODToken is ERC20 {\r... */\n  mstore(0x40, 0x80)\n    /* \"contracts/CODToken.sol\":233:356  constructor() ERC20('CODToken', 'COD'){\r... */\n  callvalue\n  dup1\n  iszero\n  tag_1\n  jumpi\n  0x00\n  dup1\n  revert\ntag_1:\n  pop\n    /* \"https://github.com/OpenZeppelin/openzeppelin-contracts/blob/master/contracts/token/ERC20/ERC20.sol\":1978:2091  constructor(string memory name_, string memory symbol_) {... */\n  mload(0x40)\n  dup1\n  0x40\n  add\n  0x40\n  mstore\n  dup1\n  0x08\n  dup2\n  mstore\n  0x20\n  add\n  0x434f44546f6b656e000000000000000000000000000000000000000000000000\n  dup2\n  mstore\n  pop\n  mload(0x40)\n  dup1\n  0x40\n  add\n  0x40\n  mstore\n  dup1\n  0x03\n  dup2\n  mstore\n  0x20\n  add\n  0x434f440000000000000000000000000000000000000000000000000000000000\n  dup2\n  mstore\n  pop\n    /* \"https://github.com/OpenZeppelin/openzeppelin-contracts/blob/master/contracts/token/ERC20/ERC20.sol\":2052:2057  name_ */\n  dup2\n    /* \"https://github.com/OpenZeppelin/openzeppelin-contracts/blob/master/contracts/token/ERC20/ERC20.sol\":2044:2049  _name */\n  0x03\n    /* \"https://github.com/OpenZeppelin/openzeppelin-contracts/blob/master/contracts/token/ERC20/ERC20.sol\":2044:2057  _name = name_ */\n  swap1\n  dup1\n  mload\n  swap1\n  0x20\n  add\n  swap1\n  tag_5\n  swap3\n  swap2\n  swap1\n  tag_6\n  jump\t// in\ntag_5:\n  pop\n    /* \"https://github.com/OpenZeppelin/openzeppelin-contracts/blob/master/contracts/token/ERC20/ERC20.sol\":2077:2084  symbol_ */\n  dup1\n    /* \"https://github.com/OpenZeppelin/openzeppelin-contracts/blob/master/contracts/token/ERC20/ERC20.sol\":2067:2074  _symbol */\n  0x04\n    /* \"https://github.com/OpenZeppelin/openzeppelin-contracts/blob/master/contracts/token/ERC20/ERC20.sol\":2067:2084  _symbol = symbol_ */\n  swap1\n  dup1\n  mload\n  swap1\n  0x20\n  add\n  swap1\n  tag_7\n  swap3\n  swap2\n  swap1\n  tag_6\n  jump\t// in\ntag_7:\n  pop\n    /* \"https://github.com/OpenZeppelin/openzeppelin-contracts/blob/master/contracts/token/ERC20/ERC20.sol\":1978:2091  constructor(string memory name_, string memory symbol_) {... */\n  pop\n  pop\n    /* \"contracts/CODToken.sol\":282:319  _mint(msg.sender, 1000000 * 10 ** 18) */\n  tag_9\n    /* \"contracts/CODToken.sol\":288:298  msg.sender */\n  caller\n    /* \"contracts/CODToken.sol\":300:318  1000000 * 10 ** 18 */\n  0xd3c21bcecceda1000000\n    /* \"contracts/CODToken.sol\":282:287  _mint */\n  shl(0x20, tag_10)\n    /* \"contracts/CODToken.sol\":282:319  _mint(msg.sender, 1000000 * 10 ** 18) */\n  0x20\n  shr\n  jump\t// in\ntag_9:\n    /* \"contracts/CODToken.sol\":338:348  msg.sender */\n  caller\n    /* \"contracts/CODToken.sol\":330:335  admin */\n  0x05\n  0x00\n    /* \"contracts/CODToken.sol\":330:348  admin = msg.sender */\n  0x0100\n  exp\n  dup2\n  sload\n  dup2\n  0xffffffffffffffffffffffffffffffffffffffff\n  mul\n  not\n  and\n  swap1\n  dup4\n  0xffffffffffffffffffffffffffffffffffffffff\n  and\n  mul\n  or\n  swap1\n  sstore\n  pop\n    /* \"contracts/CODToken.sol\":172:584  contract CODToken is ERC20 {\r... */\n  jump(tag_11)\n    /* \"https://github.com/OpenZeppelin/openzeppelin-contracts/blob/master/contracts/token/ERC20/ERC20.sol\":8411:8800  function _mint(address account, uint256 amount) internal virtual {... */\ntag_10:\n    /* \"https://github.com/OpenZeppelin/openzeppelin-contracts/blob/master/contracts/token/ERC20/ERC20.sol\":8513:8514  0 */\n  0x00\n    /* \"https://github.com/OpenZeppelin/openzeppelin-contracts/blob/master/contracts/token/ERC20/ERC20.sol\":8494:8515  account != address(0) */\n  0xffffffffffffffffffffffffffffffffffffffff\n  and\n    /* \"https://github.com/OpenZeppelin/openzeppelin-contracts/blob/master/contracts/token/ERC20/ERC20.sol\":8494:8501  account */\n  dup3\n    /* \"https://github.com/OpenZeppelin/openzeppelin-contracts/blob/master/contracts/token/ERC20/ERC20.sol\":8494:8515  account != address(0) */\n  0xffffffffffffffffffffffffffffffffffffffff\n  and\n  eq\n  iszero\n    /* \"https://github.com/OpenZeppelin/openzeppelin-contracts/blob/master/contracts/token/ERC20/ERC20.sol\":8486:8551  require(account != address(0), \"ERC20: mint to the zero address\") */\n  tag_13\n  jumpi\n  mload(0x40)\n  0x08c379a000000000000000000000000000000000000000000000000000000000\n  dup2\n  mstore\n  0x04\n  add\n  tag_14\n  swap1\n  tag_15\n  jump\t// in\ntag_14:\n  mload(0x40)\n  dup1\n  swap2\n  sub\n  swap1\n  revert\ntag_13:\n    /* \"https://github.com/OpenZeppelin/openzeppelin-contracts/blob/master/contracts/token/ERC20/ERC20.sol\":8562:8611  _beforeTokenTransfer(address(0), account, amount) */\n  tag_16\n    /* \"https://github.com/OpenZeppelin/openzeppelin-contracts/blob/master/contracts/token/ERC20/ERC20.sol\":8591:8592  0 */\n  0x00\n    /* \"https://github.com/OpenZeppelin/openzeppelin-contracts/blob/master/contracts/token/ERC20/ERC20.sol\":8595:8602  account */\n  dup4\n    /* \"https://github.com/OpenZeppelin/openzeppelin-contracts/blob/master/contracts/token/ERC20/ERC20.sol\":8604:8610  amount */\n  dup4\n    /* \"https://github.com/OpenZeppelin/openzeppelin-contracts/blob/master/contracts/token/ERC20/ERC20.sol\":8562:8582  _beforeTokenTransfer */\n  shl(0x20, tag_17)\n    /* \"https://github.com/OpenZeppelin/openzeppelin-contracts/blob/master/contracts/token/ERC20/ERC20.sol\":8562:8611  _beforeTokenTransfer(address(0), account, amount) */\n  0x20\n  shr\n  jump\t// in\ntag_16:\n    /* \"https://github.com/OpenZeppelin/openzeppelin-contracts/blob/master/contracts/token/ERC20/ERC20.sol\":8638:8644  amount */\n  dup1\n    /* \"https://github.com/OpenZeppelin/openzeppelin-contracts/blob/master/contracts/token/ERC20/ERC20.sol\":8622:8634  _totalSupply */\n  0x02\n  0x00\n    /* \"https://github.com/OpenZeppelin/openzeppelin-contracts/blob/master/contracts/token/ERC20/ERC20.sol\":8622:8644  _totalSupply += amount */\n  dup3\n  dup3\n  sload\n  tag_18\n  swap2\n  swap1\n  tag_19\n  jump\t// in\ntag_18:\n  swap3\n  pop\n  pop\n  dup2\n  swap1\n  sstore\n  pop\n    /* \"https://github.com/OpenZeppelin/openzeppelin-contracts/blob/master/contracts/token/ERC20/ERC20.sol\":8676:8682  amount */\n  dup1\n    /* \"https://github.com/OpenZeppelin/openzeppelin-contracts/blob/master/contracts/token/ERC20/ERC20.sol\":8654:8663  _balances */\n  0x00\n    /* \"https://github.com/OpenZeppelin/openzeppelin-contracts/blob/master/contracts/token/ERC20/ERC20.sol\":8654:8672  _balances[account] */\n  dup1\n    /* \"https://github.com/OpenZeppelin/openzeppelin-contracts/blob/master/contracts/token/ERC20/ERC20.sol\":8664:8671  account */\n  dup5\n    /* \"https://github.com/OpenZeppelin/openzeppelin-contracts/blob/master/contracts/token/ERC20/ERC20.sol\":8654:8672  _balances[account] */\n  0xffffffffffffffffffffffffffffffffffffffff\n  and\n  0xffffffffffffffffffffffffffffffffffffffff\n  and\n  dup2\n  mstore\n  0x20\n  add\n  swap1\n  dup2\n  mstore\n  0x20\n  add\n  0x00\n  keccak256\n  0x00\n    /* \"https://github.com/OpenZeppelin/openzeppelin-contracts/blob/master/contracts/token/ERC20/ERC20.sol\":8654:8682  _balances[account] += amount */\n  dup3\n  dup3\n  sload\n  tag_20\n  swap2\n  swap1\n  tag_19\n  jump\t// in\ntag_20:\n  swap3\n  pop\n  pop\n  dup2\n  swap1\n  sstore\n  pop\n    /* \"https://github.com/OpenZeppelin/openzeppelin-contracts/blob/master/contracts/token/ERC20/ERC20.sol\":8718:8725  account */\n  dup2\n    /* \"https://github.com/OpenZeppelin/openzeppelin-contracts/blob/master/contracts/token/ERC20/ERC20.sol\":8697:8734  Transfer(address(0), account, amount) */\n  0xffffffffffffffffffffffffffffffffffffffff\n  and\n    /* \"https://github.com/OpenZeppelin/openzeppelin-contracts/blob/master/contracts/token/ERC20/ERC20.sol\":8714:8715  0 */\n  0x00\n    /* \"https://github.com/OpenZeppelin/openzeppelin-contracts/blob/master/contracts/token/ERC20/ERC20.sol\":8697:8734  Transfer(address(0), account, amount) */\n  0xffffffffffffffffffffffffffffffffffffffff\n  and\n  0xddf252ad1be2c89b69c2b068fc378daa952ba7f163c4a11628f55a4df523b3ef\n    /* \"https://github.com/OpenZeppelin/openzeppelin-contracts/blob/master/contracts/token/ERC20/ERC20.sol\":8727:8733  amount */\n  dup4\n    /* \"https://github.com/OpenZeppelin/openzeppelin-contracts/blob/master/contracts/token/ERC20/ERC20.sol\":8697:8734  Transfer(address(0), account, amount) */\n  mload(0x40)\n  tag_21\n  swap2\n  swap1\n  tag_22\n  jump\t// in\ntag_21:\n  mload(0x40)\n  dup1\n  swap2\n  sub\n  swap1\n  log3\n    /* \"https://github.com/OpenZeppelin/openzeppelin-contracts/blob/master/contracts/token/ERC20/ERC20.sol\":8745:8793  _afterTokenTransfer(address(0), account, amount) */\n  tag_23\n    /* \"https://github.com/OpenZeppelin/openzeppelin-contracts/blob/master/contracts/token/ERC20/ERC20.sol\":8773:8774  0 */\n  0x00\n    /* \"https://github.com/OpenZeppelin/openzeppelin-contracts/blob/master/contracts/token/ERC20/ERC20.sol\":8777:8784  account */\n  dup4\n    /* \"https://github.com/OpenZeppelin/openzeppelin-contracts/blob/master/contracts/token/ERC20/ERC20.sol\":8786:8792  amount */\n  dup4\n    /* \"https://github.com/OpenZeppelin/openzeppelin-contracts/blob/master/contracts/token/ERC20/ERC20.sol\":8745:8764  _afterTokenTransfer */\n  shl(0x20, tag_24)\n    /* \"https://github.com/OpenZeppelin/openzeppelin-contracts/blob/master/contracts/token/ERC20/ERC20.sol\":8745:8793  _afterTokenTransfer(address(0), account, amount) */\n  0x20\n  shr\n  jump\t// in\ntag_23:\n    /* \"https://github.com/OpenZeppelin/openzeppelin-contracts/blob/master/contracts/token/ERC20/ERC20.sol\":8411:8800  function _mint(address account, uint256 amount) internal virtual {... */\n  pop\n  pop\n  jump\t// out\n    /* \"https://github.com/OpenZeppelin/openzeppelin-contracts/blob/master/contracts/token/ERC20/ERC20.sol\":11795:11916  function _beforeTokenTransfer(... */\ntag_17:\n  pop\n  pop\n  pop\n  jump\t// out\n    /* \"https://github.com/OpenZeppelin/openzeppelin-contracts/blob/master/contracts/token/ERC20/ERC20.sol\":12504:12624  function _afterTokenTransfer(... */\ntag_24:\n  pop\n  pop\n  pop\n  jump\t// out\n    /* \"contracts/CODToken.sol\":172:584  contract CODToken is ERC20 {\r... */\ntag_6:\n  dup3\n  dup1\n  sload\n  tag_27\n  swap1\n  tag_28\n  jump\t// in\ntag_27:\n  swap1\n  0x00\n  mstore\n  keccak256(0x00, 0x20)\n  swap1\n  0x1f\n  add\n  0x20\n  swap1\n  div\n  dup2\n  add\n  swap3\n  dup3\n  tag_30\n  jumpi\n  0x00\n  dup6\n  sstore\n  jump(tag_29)\ntag_30:\n  dup3\n  0x1f\n  lt\n  tag_31\n  jumpi\n  dup1\n  mload\n  not(0xff)\n  and\n  dup4\n  dup1\n  add\n  or\n  dup6\n  sstore\n  jump(tag_29)\ntag_31:\n  dup3\n  dup1\n  add\n  0x01\n  add\n  dup6\n  sstore\n  dup3\n  iszero\n  tag_29\n  jumpi\n  swap2\n  dup3\n  add\ntag_32:\n  dup3\n  dup2\n  gt\n  iszero\n  tag_33\n  jumpi\n  dup3\n  mload\n  dup3\n  sstore\n  swap2\n  0x20\n  add\n  swap2\n  swap1\n  0x01\n  add\n  swap1\n  jump(tag_32)\ntag_33:\ntag_29:\n  pop\n  swap1\n  pop\n  tag_34\n  swap2\n  swap1\n  tag_35\n  jump\t// in\ntag_34:\n  pop\n  swap1\n  jump\t// out\ntag_35:\ntag_36:\n  dup1\n  dup3\n  gt\n  iszero\n  tag_37\n  jumpi\n  0x00\n  dup2\n  0x00\n  swap1\n  sstore\n  pop\n  0x01\n  add\n  jump(tag_36)\ntag_37:\n  pop\n  swap1\n  jump\t// out\n    /* \"#utility.yul\":7:373   */\ntag_39:\n    /* \"#utility.yul\":149:152   */\n  0x00\n    /* \"#utility.yul\":170:237   */\n  tag_41\n    /* \"#utility.yul\":234:236   */\n  0x1f\n    /* \"#utility.yul\":229:232   */\n  dup4\n    /* \"#utility.yul\":170:237   */\n  tag_42\n  jump\t// in\ntag_41:\n    /* \"#utility.yul\":163:237   */\n  swap2\n  pop\n    /* \"#utility.yul\":246:339   */\n  tag_43\n    /* \"#utility.yul\":335:338   */\n  dup3\n    /* \"#utility.yul\":246:339   */\n  tag_44\n  jump\t// in\ntag_43:\n    /* \"#utility.yul\":364:366   */\n  0x20\n    /* \"#utility.yul\":359:362   */\n  dup3\n    /* \"#utility.yul\":355:367   */\n  add\n    /* \"#utility.yul\":348:367   */\n  swap1\n  pop\n    /* \"#utility.yul\":7:373   */\n  swap2\n  swap1\n  pop\n  jump\t// out\n    /* \"#utility.yul\":379:497   */\ntag_45:\n    /* \"#utility.yul\":466:490   */\n  tag_47\n    /* \"#utility.yul\":484:489   */\n  dup2\n    /* \"#utility.yul\":466:490   */\n  tag_48\n  jump\t// in\ntag_47:\n    /* \"#utility.yul\":461:464   */\n  dup3\n    /* \"#utility.yul\":454:491   */\n  mstore\n    /* \"#utility.yul\":379:497   */\n  pop\n  pop\n  jump\t// out\n    /* \"#utility.yul\":503:922   */\ntag_15:\n    /* \"#utility.yul\":669:673   */\n  0x00\n    /* \"#utility.yul\":707:709   */\n  0x20\n    /* \"#utility.yul\":696:705   */\n  dup3\n    /* \"#utility.yul\":692:710   */\n  add\n    /* \"#utility.yul\":684:710   */\n  swap1\n  pop\n    /* \"#utility.yul\":756:765   */\n  dup2\n    /* \"#utility.yul\":750:754   */\n  dup2\n    /* \"#utility.yul\":746:766   */\n  sub\n    /* \"#utility.yul\":742:743   */\n  0x00\n    /* \"#utility.yul\":731:740   */\n  dup4\n    /* \"#utility.yul\":727:744   */\n  add\n    /* \"#utility.yul\":720:767   */\n  mstore\n    /* \"#utility.yul\":784:915   */\n  tag_50\n    /* \"#utility.yul\":910:914   */\n  dup2\n    /* \"#utility.yul\":784:915   */\n  tag_39\n  jump\t// in\ntag_50:\n    /* \"#utility.yul\":776:915   */\n  swap1\n  pop\n    /* \"#utility.yul\":503:922   */\n  swap2\n  swap1\n  pop\n  jump\t// out\n    /* \"#utility.yul\":928:1150   */\ntag_22:\n    /* \"#utility.yul\":1021:1025   */\n  0x00\n    /* \"#utility.yul\":1059:1061   */\n  0x20\n    /* \"#utility.yul\":1048:1057   */\n  dup3\n    /* \"#utility.yul\":1044:1062   */\n  add\n    /* \"#utility.yul\":1036:1062   */\n  swap1\n  pop\n    /* \"#utility.yul\":1072:1143   */\n  tag_52\n    /* \"#utility.yul\":1140:1141   */\n  0x00\n    /* \"#utility.yul\":1129:1138   */\n  dup4\n    /* \"#utility.yul\":1125:1142   */\n  add\n    /* \"#utility.yul\":1116:1122   */\n  dup5\n    /* \"#utility.yul\":1072:1143   */\n  tag_45\n  jump\t// in\ntag_52:\n    /* \"#utility.yul\":928:1150   */\n  swap3\n  swap2\n  pop\n  pop\n  jump\t// out\n    /* \"#utility.yul\":1156:1325   */\ntag_42:\n    /* \"#utility.yul\":1240:1251   */\n  0x00\n    /* \"#utility.yul\":1274:1280   */\n  dup3\n    /* \"#utility.yul\":1269:1272   */\n  dup3\n    /* \"#utility.yul\":1262:1281   */\n  mstore\n    /* \"#utility.yul\":1314:1318   */\n  0x20\n    /* \"#utility.yul\":1309:1312   */\n  dup3\n    /* \"#utility.yul\":1305:1319   */\n  add\n    /* \"#utility.yul\":1290:1319   */\n  swap1\n  pop\n    /* \"#utility.yul\":1156:1325   */\n  swap3\n  swap2\n  pop\n  pop\n  jump\t// out\n    /* \"#utility.yul\":1331:1636   */\ntag_19:\n    /* \"#utility.yul\":1371:1374   */\n  0x00\n    /* \"#utility.yul\":1390:1410   */\n  tag_55\n    /* \"#utility.yul\":1408:1409   */\n  dup3\n    /* \"#utility.yul\":1390:1410   */\n  tag_48\n  jump\t// in\ntag_55:\n    /* \"#utility.yul\":1385:1410   */\n  swap2\n  pop\n    /* \"#utility.yul\":1424:1444   */\n  tag_56\n    /* \"#utility.yul\":1442:1443   */\n  dup4\n    /* \"#utility.yul\":1424:1444   */\n  tag_48\n  jump\t// in\ntag_56:\n    /* \"#utility.yul\":1419:1444   */\n  swap3\n  pop\n    /* \"#utility.yul\":1578:1579   */\n  dup3\n    /* \"#utility.yul\":1510:1576   */\n  0xffffffffffffffffffffffffffffffffffffffffffffffffffffffffffffffff\n    /* \"#utility.yul\":1506:1580   */\n  sub\n    /* \"#utility.yul\":1503:1504   */\n  dup3\n    /* \"#utility.yul\":1500:1581   */\n  gt\n    /* \"#utility.yul\":1497:1604   */\n  iszero\n  tag_57\n  jumpi\n    /* \"#utility.yul\":1584:1602   */\n  tag_58\n  tag_59\n  jump\t// in\ntag_58:\n    /* \"#utility.yul\":1497:1604   */\ntag_57:\n    /* \"#utility.yul\":1628:1629   */\n  dup3\n    /* \"#utility.yul\":1625:1626   */\n  dup3\n    /* \"#utility.yul\":1621:1630   */\n  add\n    /* \"#utility.yul\":1614:1630   */\n  swap1\n  pop\n    /* \"#utility.yul\":1331:1636   */\n  swap3\n  swap2\n  pop\n  pop\n  jump\t// out\n    /* \"#utility.yul\":1642:1719   */\ntag_48:\n    /* \"#utility.yul\":1679:1686   */\n  0x00\n    /* \"#utility.yul\":1708:1713   */\n  dup2\n    /* \"#utility.yul\":1697:1713   */\n  swap1\n  pop\n    /* \"#utility.yul\":1642:1719   */\n  swap2\n  swap1\n  pop\n  jump\t// out\n    /* \"#utility.yul\":1725:2045   */\ntag_28:\n    /* \"#utility.yul\":1769:1775   */\n  0x00\n    /* \"#utility.yul\":1806:1807   */\n  0x02\n    /* \"#utility.yul\":1800:1804   */\n  dup3\n    /* \"#utility.yul\":1796:1808   */\n  div\n    /* \"#utility.yul\":1786:1808   */\n  swap1\n  pop\n    /* \"#utility.yul\":1853:1854   */\n  0x01\n    /* \"#utility.yul\":1847:1851   */\n  dup3\n    /* \"#utility.yul\":1843:1855   */\n  and\n    /* \"#utility.yul\":1874:1892   */\n  dup1\n    /* \"#utility.yul\":1864:1945   */\n  tag_62\n  jumpi\n    /* \"#utility.yul\":1930:1934   */\n  0x7f\n    /* \"#utility.yul\":1922:1928   */\n  dup3\n    /* \"#utility.yul\":1918:1935   */\n  and\n    /* \"#utility.yul\":1908:1935   */\n  swap2\n  pop\n    /* \"#utility.yul\":1864:1945   */\ntag_62:\n    /* \"#utility.yul\":1992:1994   */\n  0x20\n    /* \"#utility.yul\":1984:1990   */\n  dup3\n    /* \"#utility.yul\":1981:1995   */\n  lt\n    /* \"#utility.yul\":1961:1979   */\n  dup2\n    /* \"#utility.yul\":1958:1996   */\n  eq\n    /* \"#utility.yul\":1955:2039   */\n  iszero\n  tag_63\n  jumpi\n    /* \"#utility.yul\":2011:2029   */\n  tag_64\n  tag_65\n  jump\t// in\ntag_64:\n    /* \"#utility.yul\":1955:2039   */\ntag_63:\n    /* \"#utility.yul\":1776:2045   */\n  pop\n    /* \"#utility.yul\":1725:2045   */\n  swap2\n  swap1\n  pop\n  jump\t// out\n    /* \"#utility.yul\":2051:2231   */\ntag_59:\n    /* \"#utility.yul\":2099:2176   */\n  0x4e487b7100000000000000000000000000000000000000000000000000000000\n    /* \"#utility.yul\":2096:2097   */\n  0x00\n    /* \"#utility.yul\":2089:2177   */\n  mstore\n    /* \"#utility.yul\":2196:2200   */\n  0x11\n    /* \"#utility.yul\":2193:2194   */\n  0x04\n    /* \"#utility.yul\":2186:2201   */\n  mstore\n    /* \"#utility.yul\":2220:2224   */\n  0x24\n    /* \"#utility.yul\":2217:2218   */\n  0x00\n    /* \"#utility.yul\":2210:2225   */\n  revert\n    /* \"#utility.yul\":2237:2417   */\ntag_65:\n    /* \"#utility.yul\":2285:2362   */\n  0x4e487b7100000000000000000000000000000000000000000000000000000000\n    /* \"#utility.yul\":2282:2283   */\n  0x00\n    /* \"#utility.yul\":2275:2363   */\n  mstore\n    /* \"#utility.yul\":2382:2386   */\n  0x22\n    /* \"#utility.yul\":2379:2380   */\n  0x04\n    /* \"#utility.yul\":2372:2387   */\n  mstore\n    /* \"#utility.yul\":2406:2410   */\n  0x24\n    /* \"#utility.yul\":2403:2404   */\n  0x00\n    /* \"#utility.yul\":2396:2411   */\n  revert\n    /* \"#utility.yul\":2423:2604   */\ntag_44:\n    /* \"#utility.yul\":2563:2596   */\n  0x45524332303a206d696e7420746f20746865207a65726f206164647265737300\n    /* \"#utility.yul\":2559:2560   */\n  0x00\n    /* \"#utility.yul\":2551:2557   */\n  dup3\n    /* \"#utility.yul\":2547:2561   */\n  add\n    /* \"#utility.yul\":2540:2597   */\n  mstore\n    /* \"#utility.yul\":2423:2604   */\n  pop\n  jump\t// out\n    /* \"contracts/CODToken.sol\":172:584  contract CODToken is ERC20 {\r... */\ntag_11:\n  dataSize(sub_0)\n  dup1\n  dataOffset(sub_0)\n  0x00\n  codecopy\n  0x00\n  return\nstop\n\nsub_0: assembly {\n        /* \"contracts/CODToken.sol\":172:584  contract CODToken is ERC20 {\r... */\n      mstore(0x40, 0x80)\n      jumpi(tag_1, lt(calldatasize, 0x04))\n      shr(0xe0, calldataload(0x00))\n      dup1\n      0x70a08231\n      gt\n      tag_15\n      jumpi\n      dup1\n      0xa457c2d7\n      gt\n      tag_16\n      jumpi\n      dup1\n      0xa457c2d7\n      eq\n      tag_11\n      jumpi\n      dup1\n      0xa9059cbb\n      eq\n      tag_12\n      jumpi\n      dup1\n      0xdd62ed3e\n      eq\n      tag_13\n      jumpi\n      dup1\n      0xf851a440\n      eq\n      tag_14\n      jumpi\n      jump(tag_1)\n    tag_16:\n      dup1\n      0x70a08231\n      eq\n      tag_8\n      jumpi\n      dup1\n      0x7e72fb52\n      eq\n      tag_9\n      jumpi\n      dup1\n      0x95d89b41\n      eq\n      tag_10\n      jumpi\n      jump(tag_1)\n    tag_15:\n      dup1\n      0x06fdde03\n      eq\n      tag_2\n      jumpi\n      dup1\n      0x095ea7b3\n      eq\n      tag_3\n      jumpi\n      dup1\n      0x18160ddd\n      eq\n      tag_4\n      jumpi\n      dup1\n      0x23b872dd\n      eq\n      tag_5\n      jumpi\n      dup1\n      0x313ce567\n      eq\n      tag_6\n      jumpi\n      dup1\n      0x39509351\n      eq\n      tag_7\n      jumpi\n    tag_1:\n      0x00\n      dup1\n      revert\n        /* \"https://github.com/OpenZeppelin/openzeppelin-contracts/blob/master/contracts/token/ERC20/ERC20.sol\":2156:2254  function name() public view virtual override returns (string memory) {... */\n    tag_2:\n      callvalue\n      dup1\n      iszero\n      tag_17\n      jumpi\n      0x00\n      dup1\n      revert\n    tag_17:\n      pop\n      tag_18\n      tag_19\n      jump\t// in\n    tag_18:\n      mload(0x40)\n      tag_20\n      swap2\n      swap1\n      tag_21\n      jump\t// in\n    tag_20:\n      mload(0x40)\n      dup1\n      swap2\n      sub\n      swap1\n      return\n        /* \"https://github.com/OpenZeppelin/openzeppelin-contracts/blob/master/contracts/token/ERC20/ERC20.sol\":4433:4630  function approve(address spender, uint256 amount) public virtual override returns (bool) {... */\n    tag_3:\n      callvalue\n      dup1\n      iszero\n      tag_22\n      jumpi\n      0x00\n      dup1\n      revert\n    tag_22:\n      pop\n      tag_23\n      0x04\n      dup1\n      calldatasize\n      sub\n      dup2\n      add\n      swap1\n      tag_24\n      swap2\n      swap1\n      tag_25\n      jump\t// in\n    tag_24:\n      tag_26\n      jump\t// in\n    tag_23:\n      mload(0x40)\n      tag_27\n      swap2\n      swap1\n      tag_28\n      jump\t// in\n    tag_27:\n      mload(0x40)\n      dup1\n      swap2\n      sub\n      swap1\n      return\n        /* \"https://github.com/OpenZeppelin/openzeppelin-contracts/blob/master/contracts/token/ERC20/ERC20.sol\":3244:3350  function totalSupply() public view virtual override returns (uint256) {... */\n    tag_4:\n      callvalue\n      dup1\n      iszero\n      tag_29\n      jumpi\n      0x00\n      dup1\n      revert\n    tag_29:\n      pop\n      tag_30\n      tag_31\n      jump\t// in\n    tag_30:\n      mload(0x40)\n      tag_32\n      swap2\n      swap1\n      tag_33\n      jump\t// in\n    tag_32:\n      mload(0x40)\n      dup1\n      swap2\n      sub\n      swap1\n      return\n        /* \"https://github.com/OpenZeppelin/openzeppelin-contracts/blob/master/contracts/token/ERC20/ERC20.sol\":5192:5478  function transferFrom(... */\n    tag_5:\n      callvalue\n      dup1\n      iszero\n      tag_34\n      jumpi\n      0x00\n      dup1\n      revert\n    tag_34:\n      pop\n      tag_35\n      0x04\n      dup1\n      calldatasize\n      sub\n      dup2\n      add\n      swap1\n      tag_36\n      swap2\n      swap1\n      tag_37\n      jump\t// in\n    tag_36:\n      tag_38\n      jump\t// in\n    tag_35:\n      mload(0x40)\n      tag_39\n      swap2\n      swap1\n      tag_28\n      jump\t// in\n    tag_39:\n      mload(0x40)\n      dup1\n      swap2\n      sub\n      swap1\n      return\n        /* \"https://github.com/OpenZeppelin/openzeppelin-contracts/blob/master/contracts/token/ERC20/ERC20.sol\":3093:3184  function decimals() public view virtual override returns (uint8) {... */\n    tag_6:\n      callvalue\n      dup1\n      iszero\n      tag_40\n      jumpi\n      0x00\n      dup1\n      revert\n    tag_40:\n      pop\n      tag_41\n      tag_42\n      jump\t// in\n    tag_41:\n      mload(0x40)\n      tag_43\n      swap2\n      swap1\n      tag_44\n      jump\t// in\n    tag_43:\n      mload(0x40)\n      dup1\n      swap2\n      sub\n      swap1\n      return\n        /* \"https://github.com/OpenZeppelin/openzeppelin-contracts/blob/master/contracts/token/ERC20/ERC20.sol\":5873:6107  function increaseAllowance(address spender, uint256 addedValue) public virtual returns (bool) {... */\n    tag_7:\n      callvalue\n      dup1\n      iszero\n      tag_45\n      jumpi\n      0x00\n      dup1\n      revert\n    tag_45:\n      pop\n      tag_46\n      0x04\n      dup1\n      calldatasize\n      sub\n      dup2\n      add\n      swap1\n      tag_47\n      swap2\n      swap1\n      tag_25\n      jump\t// in\n    tag_47:\n      tag_48\n      jump\t// in\n    tag_46:\n      mload(0x40)\n      tag_49\n      swap2\n      swap1\n      tag_28\n      jump\t// in\n    tag_49:\n      mload(0x40)\n      dup1\n      swap2\n      sub\n      swap1\n      return\n        /* \"https://github.com/OpenZeppelin/openzeppelin-contracts/blob/master/contracts/token/ERC20/ERC20.sol\":3408:3533  function balanceOf(address account) public view virtual override returns (uint256) {... */\n    tag_8:\n      callvalue\n      dup1\n      iszero\n      tag_50\n      jumpi\n      0x00\n      dup1\n      revert\n    tag_50:\n      pop\n      tag_51\n      0x04\n      dup1\n      calldatasize\n      sub\n      dup2\n      add\n      swap1\n      tag_52\n      swap2\n      swap1\n      tag_53\n      jump\t// in\n    tag_52:\n      tag_54\n      jump\t// in\n    tag_51:\n      mload(0x40)\n      tag_55\n      swap2\n      swap1\n      tag_33\n      jump\t// in\n    tag_55:\n      mload(0x40)\n      dup1\n      swap2\n      sub\n      swap1\n      return\n        /* \"contracts/CODToken.sol\":364:581  function buyToken(address _recipient) public payable {\r... */\n    tag_9:\n      tag_56\n      0x04\n      dup1\n      calldatasize\n      sub\n      dup2\n      add\n      swap1\n      tag_57\n      swap2\n      swap1\n      tag_53\n      jump\t// in\n    tag_57:\n      tag_58\n      jump\t// in\n    tag_56:\n      stop\n        /* \"https://github.com/OpenZeppelin/openzeppelin-contracts/blob/master/contracts/token/ERC20/ERC20.sol\":2367:2469  function symbol() public view virtual override returns (string memory) {... */\n    tag_10:\n      callvalue\n      dup1\n      iszero\n      tag_59\n      jumpi\n      0x00\n      dup1\n      revert\n    tag_59:\n      pop\n      tag_60\n      tag_61\n      jump\t// in\n    tag_60:\n      mload(0x40)\n      tag_62\n      swap2\n      swap1\n      tag_21\n      jump\t// in\n    tag_62:\n      mload(0x40)\n      dup1\n      swap2\n      sub\n      swap1\n      return\n        /* \"https://github.com/OpenZeppelin/openzeppelin-contracts/blob/master/contracts/token/ERC20/ERC20.sol\":6594:7021  function decreaseAllowance(address spender, uint256 subtractedValue) public virtual returns (bool) {... */\n    tag_11:\n      callvalue\n      dup1\n      iszero\n      tag_63\n      jumpi\n      0x00\n      dup1\n      revert\n    tag_63:\n      pop\n      tag_64\n      0x04\n      dup1\n      calldatasize\n      sub\n      dup2\n      add\n      swap1\n      tag_65\n      swap2\n      swap1\n      tag_25\n      jump\t// in\n    tag_65:\n      tag_66\n      jump\t// in\n    tag_64:\n      mload(0x40)\n      tag_67\n      swap2\n      swap1\n      tag_28\n      jump\t// in\n    tag_67:\n      mload(0x40)\n      dup1\n      swap2\n      sub\n      swap1\n      return\n        /* \"https://github.com/OpenZeppelin/openzeppelin-contracts/blob/master/contracts/token/ERC20/ERC20.sol\":3729:3918  function transfer(address to, uint256 amount) public virtual override returns (bool) {... */\n    tag_12:\n      callvalue\n      dup1\n      iszero\n      tag_68\n      jumpi\n      0x00\n      dup1\n      revert\n    tag_68:\n      pop\n      tag_69\n      0x04\n      dup1\n      calldatasize\n      sub\n      dup2\n      add\n      swap1\n      tag_70\n      swap2\n      swap1\n      tag_25\n      jump\t// in\n    tag_70:\n      tag_71\n      jump\t// in\n    tag_69:\n      mload(0x40)\n      tag_72\n      swap2\n      swap1\n      tag_28\n      jump\t// in\n    tag_72:\n      mload(0x40)\n      dup1\n      swap2\n      sub\n      swap1\n      return\n        /* \"https://github.com/OpenZeppelin/openzeppelin-contracts/blob/master/contracts/token/ERC20/ERC20.sol\":3976:4125  function allowance(address owner, address spender) public view virtual override returns (uint256) {... */\n    tag_13:\n      callvalue\n      dup1\n      iszero\n      tag_73\n      jumpi\n      0x00\n      dup1\n      revert\n    tag_73:\n      pop\n      tag_74\n      0x04\n      dup1\n      calldatasize\n      sub\n      dup2\n      add\n      swap1\n      tag_75\n      swap2\n      swap1\n      tag_76\n      jump\t// in\n    tag_75:\n      tag_77\n      jump\t// in\n    tag_74:\n      mload(0x40)\n      tag_78\n      swap2\n      swap1\n      tag_33\n      jump\t// in\n    tag_78:\n      mload(0x40)\n      dup1\n      swap2\n      sub\n      swap1\n      return\n        /* \"contracts/CODToken.sol\":206:226  address public admin */\n    tag_14:\n      callvalue\n      dup1\n      iszero\n      tag_79\n      jumpi\n      0x00\n      dup1\n      revert\n    tag_79:\n      pop\n      tag_80\n      tag_81\n      jump\t// in\n    tag_80:\n      mload(0x40)\n      tag_82\n      swap2\n      swap1\n      tag_83\n      jump\t// in\n    tag_82:\n      mload(0x40)\n      dup1\n      swap2\n      sub\n      swap1\n      return\n        /* \"https://github.com/OpenZeppelin/openzeppelin-contracts/blob/master/contracts/token/ERC20/ERC20.sol\":2156:2254  function name() public view virtual override returns (string memory) {... */\n    tag_19:\n        /* \"https://github.com/OpenZeppelin/openzeppelin-contracts/blob/master/contracts/token/ERC20/ERC20.sol\":2210:2223  string memory */\n      0x60\n        /* \"https://github.com/OpenZeppelin/openzeppelin-contracts/blob/master/contracts/token/ERC20/ERC20.sol\":2242:2247  _name */\n      0x03\n        /* \"https://github.com/OpenZeppelin/openzeppelin-contracts/blob/master/contracts/token/ERC20/ERC20.sol\":2235:2247  return _name */\n      dup1\n      sload\n      tag_85\n      swap1\n      tag_86\n      jump\t// in\n    tag_85:\n      dup1\n      0x1f\n      add\n      0x20\n      dup1\n      swap2\n      div\n      mul\n      0x20\n      add\n      mload(0x40)\n      swap1\n      dup2\n      add\n      0x40\n      mstore\n      dup1\n      swap3\n      swap2\n      swap1\n      dup2\n      dup2\n      mstore\n      0x20\n      add\n      dup3\n      dup1\n      sload\n      tag_87\n      swap1\n      tag_86\n      jump\t// in\n    tag_87:\n      dup1\n      iszero\n      tag_88\n      jumpi\n      dup1\n      0x1f\n      lt\n      tag_89\n      jumpi\n      0x0100\n      dup1\n      dup4\n      sload\n      div\n      mul\n      dup4\n      mstore\n      swap2\n      0x20\n      add\n      swap2\n      jump(tag_88)\n    tag_89:\n      dup3\n      add\n      swap2\n      swap1\n      0x00\n      mstore\n      keccak256(0x00, 0x20)\n      swap1\n    tag_90:\n      dup2\n      sload\n      dup2\n      mstore\n      swap1\n      0x01\n      add\n      swap1\n      0x20\n      add\n      dup1\n      dup4\n      gt\n      tag_90\n      jumpi\n      dup3\n      swap1\n      sub\n      0x1f\n      and\n      dup3\n      add\n      swap2\n    tag_88:\n      pop\n      pop\n      pop\n      pop\n      pop\n      swap1\n      pop\n        /* \"https://github.com/OpenZeppelin/openzeppelin-contracts/blob/master/contracts/token/ERC20/ERC20.sol\":2156:2254  function name() public view virtual override returns (string memory) {... */\n      swap1\n      jump\t// out\n        /* \"https://github.com/OpenZeppelin/openzeppelin-contracts/blob/master/contracts/token/ERC20/ERC20.sol\":4433:4630  function approve(address spender, uint256 amount) public virtual override returns (bool) {... */\n    tag_26:\n        /* \"https://github.com/OpenZeppelin/openzeppelin-contracts/blob/master/contracts/token/ERC20/ERC20.sol\":4516:4520  bool */\n      0x00\n        /* \"https://github.com/OpenZeppelin/openzeppelin-contracts/blob/master/contracts/token/ERC20/ERC20.sol\":4532:4545  address owner */\n      dup1\n        /* \"https://github.com/OpenZeppelin/openzeppelin-contracts/blob/master/contracts/token/ERC20/ERC20.sol\":4548:4560  _msgSender() */\n      tag_92\n        /* \"https://github.com/OpenZeppelin/openzeppelin-contracts/blob/master/contracts/token/ERC20/ERC20.sol\":4548:4558  _msgSender */\n      tag_93\n        /* \"https://github.com/OpenZeppelin/openzeppelin-contracts/blob/master/contracts/token/ERC20/ERC20.sol\":4548:4560  _msgSender() */\n      jump\t// in\n    tag_92:\n        /* \"https://github.com/OpenZeppelin/openzeppelin-contracts/blob/master/contracts/token/ERC20/ERC20.sol\":4532:4560  address owner = _msgSender() */\n      swap1\n      pop\n        /* \"https://github.com/OpenZeppelin/openzeppelin-contracts/blob/master/contracts/token/ERC20/ERC20.sol\":4570:4602  _approve(owner, spender, amount) */\n      tag_94\n        /* \"https://github.com/OpenZeppelin/openzeppelin-contracts/blob/master/contracts/token/ERC20/ERC20.sol\":4579:4584  owner */\n      dup2\n        /* \"https://github.com/OpenZeppelin/openzeppelin-contracts/blob/master/contracts/token/ERC20/ERC20.sol\":4586:4593  spender */\n      dup6\n        /* \"https://github.com/OpenZeppelin/openzeppelin-contracts/blob/master/contracts/token/ERC20/ERC20.sol\":4595:4601  amount */\n      dup6\n        /* \"https://github.com/OpenZeppelin/openzeppelin-contracts/blob/master/contracts/token/ERC20/ERC20.sol\":4570:4578  _approve */\n      tag_95\n        /* \"https://github.com/OpenZeppelin/openzeppelin-contracts/blob/master/contracts/token/ERC20/ERC20.sol\":4570:4602  _approve(owner, spender, amount) */\n      jump\t// in\n    tag_94:\n        /* \"https://github.com/OpenZeppelin/openzeppelin-contracts/blob/master/contracts/token/ERC20/ERC20.sol\":4619:4623  true */\n      0x01\n        /* \"https://github.com/OpenZeppelin/openzeppelin-contracts/blob/master/contracts/token/ERC20/ERC20.sol\":4612:4623  return true */\n      swap2\n      pop\n      pop\n        /* \"https://github.com/OpenZeppelin/openzeppelin-contracts/blob/master/contracts/token/ERC20/ERC20.sol\":4433:4630  function approve(address spender, uint256 amount) public virtual override returns (bool) {... */\n      swap3\n      swap2\n      pop\n      pop\n      jump\t// out\n        /* \"https://github.com/OpenZeppelin/openzeppelin-contracts/blob/master/contracts/token/ERC20/ERC20.sol\":3244:3350  function totalSupply() public view virtual override returns (uint256) {... */\n    tag_31:\n        /* \"https://github.com/OpenZeppelin/openzeppelin-contracts/blob/master/contracts/token/ERC20/ERC20.sol\":3305:3312  uint256 */\n      0x00\n        /* \"https://github.com/OpenZeppelin/openzeppelin-contracts/blob/master/contracts/token/ERC20/ERC20.sol\":3331:3343  _totalSupply */\n      sload(0x02)\n        /* \"https://github.com/OpenZeppelin/openzeppelin-contracts/blob/master/contracts/token/ERC20/ERC20.sol\":3324:3343  return _totalSupply */\n      swap1\n      pop\n        /* \"https://github.com/OpenZeppelin/openzeppelin-contracts/blob/master/contracts/token/ERC20/ERC20.sol\":3244:3350  function totalSupply() public view virtual override returns (uint256) {... */\n      swap1\n      jump\t// out\n        /* \"https://github.com/OpenZeppelin/openzeppelin-contracts/blob/master/contracts/token/ERC20/ERC20.sol\":5192:5478  function transferFrom(... */\n    tag_38:\n        /* \"https://github.com/OpenZeppelin/openzeppelin-contracts/blob/master/contracts/token/ERC20/ERC20.sol\":5319:5323  bool */\n      0x00\n        /* \"https://github.com/OpenZeppelin/openzeppelin-contracts/blob/master/contracts/token/ERC20/ERC20.sol\":5335:5350  address spender */\n      dup1\n        /* \"https://github.com/OpenZeppelin/openzeppelin-contracts/blob/master/contracts/token/ERC20/ERC20.sol\":5353:5365  _msgSender() */\n      tag_98\n        /* \"https://github.com/OpenZeppelin/openzeppelin-contracts/blob/master/contracts/token/ERC20/ERC20.sol\":5353:5363  _msgSender */\n      tag_93\n        /* \"https://github.com/OpenZeppelin/openzeppelin-contracts/blob/master/contracts/token/ERC20/ERC20.sol\":5353:5365  _msgSender() */\n      jump\t// in\n    tag_98:\n        /* \"https://github.com/OpenZeppelin/openzeppelin-contracts/blob/master/contracts/token/ERC20/ERC20.sol\":5335:5365  address spender = _msgSender() */\n      swap1\n      pop\n        /* \"https://github.com/OpenZeppelin/openzeppelin-contracts/blob/master/contracts/token/ERC20/ERC20.sol\":5375:5413  _spendAllowance(from, spender, amount) */\n      tag_99\n        /* \"https://github.com/OpenZeppelin/openzeppelin-contracts/blob/master/contracts/token/ERC20/ERC20.sol\":5391:5395  from */\n      dup6\n        /* \"https://github.com/OpenZeppelin/openzeppelin-contracts/blob/master/contracts/token/ERC20/ERC20.sol\":5397:5404  spender */\n      dup3\n        /* \"https://github.com/OpenZeppelin/openzeppelin-contracts/blob/master/contracts/token/ERC20/ERC20.sol\":5406:5412  amount */\n      dup6\n        /* \"https://github.com/OpenZeppelin/openzeppelin-contracts/blob/master/contracts/token/ERC20/ERC20.sol\":5375:5390  _spendAllowance */\n      tag_100\n        /* \"https://github.com/OpenZeppelin/openzeppelin-contracts/blob/master/contracts/token/ERC20/ERC20.sol\":5375:5413  _spendAllowance(from, spender, amount) */\n      jump\t// in\n    tag_99:\n        /* \"https://github.com/OpenZeppelin/openzeppelin-contracts/blob/master/contracts/token/ERC20/ERC20.sol\":5423:5450  _transfer(from, to, amount) */\n      tag_101\n        /* \"https://github.com/OpenZeppelin/openzeppelin-contracts/blob/master/contracts/token/ERC20/ERC20.sol\":5433:5437  from */\n      dup6\n        /* \"https://github.com/OpenZeppelin/openzeppelin-contracts/blob/master/contracts/token/ERC20/ERC20.sol\":5439:5441  to */\n      dup6\n        /* \"https://github.com/OpenZeppelin/openzeppelin-contracts/blob/master/contracts/token/ERC20/ERC20.sol\":5443:5449  amount */\n      dup6\n        /* \"https://github.com/OpenZeppelin/openzeppelin-contracts/blob/master/contracts/token/ERC20/ERC20.sol\":5423:5432  _transfer */\n      tag_102\n        /* \"https://github.com/OpenZeppelin/openzeppelin-contracts/blob/master/contracts/token/ERC20/ERC20.sol\":5423:5450  _transfer(from, to, amount) */\n      jump\t// in\n    tag_101:\n        /* \"https://github.com/OpenZeppelin/openzeppelin-contracts/blob/master/contracts/token/ERC20/ERC20.sol\":5467:5471  true */\n      0x01\n        /* \"https://github.com/OpenZeppelin/openzeppelin-contracts/blob/master/contracts/token/ERC20/ERC20.sol\":5460:5471  return true */\n      swap2\n      pop\n      pop\n        /* \"https://github.com/OpenZeppelin/openzeppelin-contracts/blob/master/contracts/token/ERC20/ERC20.sol\":5192:5478  function transferFrom(... */\n      swap4\n      swap3\n      pop\n      pop\n      pop\n      jump\t// out\n        /* \"https://github.com/OpenZeppelin/openzeppelin-contracts/blob/master/contracts/token/ERC20/ERC20.sol\":3093:3184  function decimals() public view virtual override returns (uint8) {... */\n    tag_42:\n        /* \"https://github.com/OpenZeppelin/openzeppelin-contracts/blob/master/contracts/token/ERC20/ERC20.sol\":3151:3156  uint8 */\n      0x00\n        /* \"https://github.com/OpenZeppelin/openzeppelin-contracts/blob/master/contracts/token/ERC20/ERC20.sol\":3175:3177  18 */\n      0x12\n        /* \"https://github.com/OpenZeppelin/openzeppelin-contracts/blob/master/contracts/token/ERC20/ERC20.sol\":3168:3177  return 18 */\n      swap1\n      pop\n        /* \"https://github.com/OpenZeppelin/openzeppelin-contracts/blob/master/contracts/token/ERC20/ERC20.sol\":3093:3184  function decimals() public view virtual override returns (uint8) {... */\n      swap1\n      jump\t// out\n        /* \"https://github.com/OpenZeppelin/openzeppelin-contracts/blob/master/contracts/token/ERC20/ERC20.sol\":5873:6107  function increaseAllowance(address spender, uint256 addedValue) public virtual returns (bool) {... */\n    tag_48:\n        /* \"https://github.com/OpenZeppelin/openzeppelin-contracts/blob/master/contracts/token/ERC20/ERC20.sol\":5961:5965  bool */\n      0x00\n        /* \"https://github.com/OpenZeppelin/openzeppelin-contracts/blob/master/contracts/token/ERC20/ERC20.sol\":5977:5990  address owner */\n      dup1\n        /* \"https://github.com/OpenZeppelin/openzeppelin-contracts/blob/master/contracts/token/ERC20/ERC20.sol\":5993:6005  _msgSender() */\n      tag_105\n        /* \"https://github.com/OpenZeppelin/openzeppelin-contracts/blob/master/contracts/token/ERC20/ERC20.sol\":5993:6003  _msgSender */\n      tag_93\n        /* \"https://github.com/OpenZeppelin/openzeppelin-contracts/blob/master/contracts/token/ERC20/ERC20.sol\":5993:6005  _msgSender() */\n      jump\t// in\n    tag_105:\n        /* \"https://github.com/OpenZeppelin/openzeppelin-contracts/blob/master/contracts/token/ERC20/ERC20.sol\":5977:6005  address owner = _msgSender() */\n      swap1\n      pop\n        /* \"https://github.com/OpenZeppelin/openzeppelin-contracts/blob/master/contracts/token/ERC20/ERC20.sol\":6015:6079  _approve(owner, spender, allowance(owner, spender) + addedValue) */\n      tag_106\n        /* \"https://github.com/OpenZeppelin/openzeppelin-contracts/blob/master/contracts/token/ERC20/ERC20.sol\":6024:6029  owner */\n      dup2\n        /* \"https://github.com/OpenZeppelin/openzeppelin-contracts/blob/master/contracts/token/ERC20/ERC20.sol\":6031:6038  spender */\n      dup6\n        /* \"https://github.com/OpenZeppelin/openzeppelin-contracts/blob/master/contracts/token/ERC20/ERC20.sol\":6068:6078  addedValue */\n      dup6\n        /* \"https://github.com/OpenZeppelin/openzeppelin-contracts/blob/master/contracts/token/ERC20/ERC20.sol\":6040:6065  allowance(owner, spender) */\n      tag_107\n        /* \"https://github.com/OpenZeppelin/openzeppelin-contracts/blob/master/contracts/token/ERC20/ERC20.sol\":6050:6055  owner */\n      dup6\n        /* \"https://github.com/OpenZeppelin/openzeppelin-contracts/blob/master/contracts/token/ERC20/ERC20.sol\":6057:6064  spender */\n      dup10\n        /* \"https://github.com/OpenZeppelin/openzeppelin-contracts/blob/master/contracts/token/ERC20/ERC20.sol\":6040:6049  allowance */\n      tag_77\n        /* \"https://github.com/OpenZeppelin/openzeppelin-contracts/blob/master/contracts/token/ERC20/ERC20.sol\":6040:6065  allowance(owner, spender) */\n      jump\t// in\n    tag_107:\n        /* \"https://github.com/OpenZeppelin/openzeppelin-contracts/blob/master/contracts/token/ERC20/ERC20.sol\":6040:6078  allowance(owner, spender) + addedValue */\n      tag_108\n      swap2\n      swap1\n      tag_109\n      jump\t// in\n    tag_108:\n        /* \"https://github.com/OpenZeppelin/openzeppelin-contracts/blob/master/contracts/token/ERC20/ERC20.sol\":6015:6023  _approve */\n      tag_95\n        /* \"https://github.com/OpenZeppelin/openzeppelin-contracts/blob/master/contracts/token/ERC20/ERC20.sol\":6015:6079  _approve(owner, spender, allowance(owner, spender) + addedValue) */\n      jump\t// in\n    tag_106:\n        /* \"https://github.com/OpenZeppelin/openzeppelin-contracts/blob/master/contracts/token/ERC20/ERC20.sol\":6096:6100  true */\n      0x01\n        /* \"https://github.com/OpenZeppelin/openzeppelin-contracts/blob/master/contracts/token/ERC20/ERC20.sol\":6089:6100  return true */\n      swap2\n      pop\n      pop\n        /* \"https://github.com/OpenZeppelin/openzeppelin-contracts/blob/master/contracts/token/ERC20/ERC20.sol\":5873:6107  function increaseAllowance(address spender, uint256 addedValue) public virtual returns (bool) {... */\n      swap3\n      swap2\n      pop\n      pop\n      jump\t// out\n        /* \"https://github.com/OpenZeppelin/openzeppelin-contracts/blob/master/contracts/token/ERC20/ERC20.sol\":3408:3533  function balanceOf(address account) public view virtual override returns (uint256) {... */\n    tag_54:\n        /* \"https://github.com/OpenZeppelin/openzeppelin-contracts/blob/master/contracts/token/ERC20/ERC20.sol\":3482:3489  uint256 */\n      0x00\n        /* \"https://github.com/OpenZeppelin/openzeppelin-contracts/blob/master/contracts/token/ERC20/ERC20.sol\":3508:3517  _balances */\n      dup1\n        /* \"https://github.com/OpenZeppelin/openzeppelin-contracts/blob/master/contracts/token/ERC20/ERC20.sol\":3508:3526  _balances[account] */\n      0x00\n        /* \"https://github.com/OpenZeppelin/openzeppelin-contracts/blob/master/contracts/token/ERC20/ERC20.sol\":3518:3525  account */\n      dup4\n        /* \"https://github.com/OpenZeppelin/openzeppelin-contracts/blob/master/contracts/token/ERC20/ERC20.sol\":3508:3526  _balances[account] */\n      0xffffffffffffffffffffffffffffffffffffffff\n      and\n      0xffffffffffffffffffffffffffffffffffffffff\n      and\n      dup2\n      mstore\n      0x20\n      add\n      swap1\n      dup2\n      mstore\n      0x20\n      add\n      0x00\n      keccak256\n      sload\n        /* \"https://github.com/OpenZeppelin/openzeppelin-contracts/blob/master/contracts/token/ERC20/ERC20.sol\":3501:3526  return _balances[account] */\n      swap1\n      pop\n        /* \"https://github.com/OpenZeppelin/openzeppelin-contracts/blob/master/contracts/token/ERC20/ERC20.sol\":3408:3533  function balanceOf(address account) public view virtual override returns (uint256) {... */\n      swap2\n      swap1\n      pop\n      jump\t// out\n        /* \"contracts/CODToken.sol\":364:581  function buyToken(address _recipient) public payable {\r... */\n    tag_58:\n        /* \"contracts/CODToken.sol\":428:447  uint256 tokenPerEth */\n      0x00\n        /* \"contracts/CODToken.sol\":450:454  1000 */\n      0x03e8\n        /* \"contracts/CODToken.sol\":428:454  uint256 tokenPerEth = 1000 */\n      swap1\n      pop\n        /* \"contracts/CODToken.sol\":465:485  uint256 amountTomint */\n      0x00\n        /* \"contracts/CODToken.sol\":521:531  decimals() */\n      tag_112\n        /* \"contracts/CODToken.sol\":521:529  decimals */\n      tag_42\n        /* \"contracts/CODToken.sol\":521:531  decimals() */\n      jump\t// in\n    tag_112:\n        /* \"contracts/CODToken.sol\":516:518  10 */\n      0x0a\n        /* \"contracts/CODToken.sol\":516:531  10 **decimals() */\n      tag_113\n      swap2\n      swap1\n      tag_114\n      jump\t// in\n    tag_113:\n        /* \"contracts/CODToken.sol\":501:512  tokenPerEth */\n      dup3\n        /* \"contracts/CODToken.sol\":489:498  msg.value */\n      callvalue\n        /* \"contracts/CODToken.sol\":489:512  msg.value * tokenPerEth */\n      tag_115\n      swap2\n      swap1\n      tag_116\n      jump\t// in\n    tag_115:\n        /* \"contracts/CODToken.sol\":488:531  (msg.value * tokenPerEth) / 10 **decimals() */\n      tag_117\n      swap2\n      swap1\n      tag_118\n      jump\t// in\n    tag_117:\n        /* \"contracts/CODToken.sol\":465:531  uint256 amountTomint = (msg.value * tokenPerEth) / 10 **decimals() */\n      swap1\n      pop\n        /* \"contracts/CODToken.sol\":542:573  _mint(_recipient, amountTomint) */\n      tag_119\n        /* \"contracts/CODToken.sol\":548:558  _recipient */\n      dup4\n        /* \"contracts/CODToken.sol\":560:572  amountTomint */\n      dup3\n        /* \"contracts/CODToken.sol\":542:547  _mint */\n      tag_120\n        /* \"contracts/CODToken.sol\":542:573  _mint(_recipient, amountTomint) */\n      jump\t// in\n    tag_119:\n        /* \"contracts/CODToken.sol\":417:581  {\r... */\n      pop\n      pop\n        /* \"contracts/CODToken.sol\":364:581  function buyToken(address _recipient) public payable {\r... */\n      pop\n      jump\t// out\n        /* \"https://github.com/OpenZeppelin/openzeppelin-contracts/blob/master/contracts/token/ERC20/ERC20.sol\":2367:2469  function symbol() public view virtual override returns (string memory) {... */\n    tag_61:\n        /* \"https://github.com/OpenZeppelin/openzeppelin-contracts/blob/master/contracts/token/ERC20/ERC20.sol\":2423:2436  string memory */\n      0x60\n        /* \"https://github.com/OpenZeppelin/openzeppelin-contracts/blob/master/contracts/token/ERC20/ERC20.sol\":2455:2462  _symbol */\n      0x04\n        /* \"https://github.com/OpenZeppelin/openzeppelin-contracts/blob/master/contracts/token/ERC20/ERC20.sol\":2448:2462  return _symbol */\n      dup1\n      sload\n      tag_122\n      swap1\n      tag_86\n      jump\t// in\n    tag_122:\n      dup1\n      0x1f\n      add\n      0x20\n      dup1\n      swap2\n      div\n      mul\n      0x20\n      add\n      mload(0x40)\n      swap1\n      dup2\n      add\n      0x40\n      mstore\n      dup1\n      swap3\n      swap2\n      swap1\n      dup2\n      dup2\n      mstore\n      0x20\n      add\n      dup3\n      dup1\n      sload\n      tag_123\n      swap1\n      tag_86\n      jump\t// in\n    tag_123:\n      dup1\n      iszero\n      tag_124\n      jumpi\n      dup1\n      0x1f\n      lt\n      tag_125\n      jumpi\n      0x0100\n      dup1\n      dup4\n      sload\n      div\n      mul\n      dup4\n      mstore\n      swap2\n      0x20\n      add\n      swap2\n      jump(tag_124)\n    tag_125:\n      dup3\n      add\n      swap2\n      swap1\n      0x00\n      mstore\n      keccak256(0x00, 0x20)\n      swap1\n    tag_126:\n      dup2\n      sload\n      dup2\n      mstore\n      swap1\n      0x01\n      add\n      swap1\n      0x20\n      add\n      dup1\n      dup4\n      gt\n      tag_126\n      jumpi\n      dup3\n      swap1\n      sub\n      0x1f\n      and\n      dup3\n      add\n      swap2\n    tag_124:\n      pop\n      pop\n      pop\n      pop\n      pop\n      swap1\n      pop\n        /* \"https://github.com/OpenZeppelin/openzeppelin-contracts/blob/master/contracts/token/ERC20/ERC20.sol\":2367:2469  function symbol() public view virtual override returns (string memory) {... */\n      swap1\n      jump\t// out\n        /* \"https://github.com/OpenZeppelin/openzeppelin-contracts/blob/master/contracts/token/ERC20/ERC20.sol\":6594:7021  function decreaseAllowance(address spender, uint256 subtractedValue) public virtual returns (bool) {... */\n    tag_66:\n        /* \"https://github.com/OpenZeppelin/openzeppelin-contracts/blob/master/contracts/token/ERC20/ERC20.sol\":6687:6691  bool */\n      0x00\n        /* \"https://github.com/OpenZeppelin/openzeppelin-contracts/blob/master/contracts/token/ERC20/ERC20.sol\":6703:6716  address owner */\n      dup1\n        /* \"https://github.com/OpenZeppelin/openzeppelin-contracts/blob/master/contracts/token/ERC20/ERC20.sol\":6719:6731  _msgSender() */\n      tag_128\n        /* \"https://github.com/OpenZeppelin/openzeppelin-contracts/blob/master/contracts/token/ERC20/ERC20.sol\":6719:6729  _msgSender */\n      tag_93\n        /* \"https://github.com/OpenZeppelin/openzeppelin-contracts/blob/master/contracts/token/ERC20/ERC20.sol\":6719:6731  _msgSender() */\n      jump\t// in\n    tag_128:\n        /* \"https://github.com/OpenZeppelin/openzeppelin-contracts/blob/master/contracts/token/ERC20/ERC20.sol\":6703:6731  address owner = _msgSender() */\n      swap1\n      pop\n        /* \"https://github.com/OpenZeppelin/openzeppelin-contracts/blob/master/contracts/token/ERC20/ERC20.sol\":6741:6765  uint256 currentAllowance */\n      0x00\n        /* \"https://github.com/OpenZeppelin/openzeppelin-contracts/blob/master/contracts/token/ERC20/ERC20.sol\":6768:6793  allowance(owner, spender) */\n      tag_129\n        /* \"https://github.com/OpenZeppelin/openzeppelin-contracts/blob/master/contracts/token/ERC20/ERC20.sol\":6778:6783  owner */\n      dup3\n        /* \"https://github.com/OpenZeppelin/openzeppelin-contracts/blob/master/contracts/token/ERC20/ERC20.sol\":6785:6792  spender */\n      dup7\n        /* \"https://github.com/OpenZeppelin/openzeppelin-contracts/blob/master/contracts/token/ERC20/ERC20.sol\":6768:6777  allowance */\n      tag_77\n        /* \"https://github.com/OpenZeppelin/openzeppelin-contracts/blob/master/contracts/token/ERC20/ERC20.sol\":6768:6793  allowance(owner, spender) */\n      jump\t// in\n    tag_129:\n        /* \"https://github.com/OpenZeppelin/openzeppelin-contracts/blob/master/contracts/token/ERC20/ERC20.sol\":6741:6793  uint256 currentAllowance = allowance(owner, spender) */\n      swap1\n      pop\n        /* \"https://github.com/OpenZeppelin/openzeppelin-contracts/blob/master/contracts/token/ERC20/ERC20.sol\":6831:6846  subtractedValue */\n      dup4\n        /* \"https://github.com/OpenZeppelin/openzeppelin-contracts/blob/master/contracts/token/ERC20/ERC20.sol\":6811:6827  currentAllowance */\n      dup2\n        /* \"https://github.com/OpenZeppelin/openzeppelin-contracts/blob/master/contracts/token/ERC20/ERC20.sol\":6811:6846  currentAllowance >= subtractedValue */\n      lt\n      iszero\n        /* \"https://github.com/OpenZeppelin/openzeppelin-contracts/blob/master/contracts/token/ERC20/ERC20.sol\":6803:6888  require(currentAllowance >= subtractedValue, \"ERC20: decreased allowance below zero\") */\n      tag_130\n      jumpi\n      mload(0x40)\n      0x08c379a000000000000000000000000000000000000000000000000000000000\n      dup2\n      mstore\n      0x04\n      add\n      tag_131\n      swap1\n      tag_132\n      jump\t// in\n    tag_131:\n      mload(0x40)\n      dup1\n      swap2\n      sub\n      swap1\n      revert\n    tag_130:\n        /* \"https://github.com/OpenZeppelin/openzeppelin-contracts/blob/master/contracts/token/ERC20/ERC20.sol\":6922:6982  _approve(owner, spender, currentAllowance - subtractedValue) */\n      tag_133\n        /* \"https://github.com/OpenZeppelin/openzeppelin-contracts/blob/master/contracts/token/ERC20/ERC20.sol\":6931:6936  owner */\n      dup3\n        /* \"https://github.com/OpenZeppelin/openzeppelin-contracts/blob/master/contracts/token/ERC20/ERC20.sol\":6938:6945  spender */\n      dup7\n        /* \"https://github.com/OpenZeppelin/openzeppelin-contracts/blob/master/contracts/token/ERC20/ERC20.sol\":6966:6981  subtractedValue */\n      dup7\n        /* \"https://github.com/OpenZeppelin/openzeppelin-contracts/blob/master/contracts/token/ERC20/ERC20.sol\":6947:6963  currentAllowance */\n      dup5\n        /* \"https://github.com/OpenZeppelin/openzeppelin-contracts/blob/master/contracts/token/ERC20/ERC20.sol\":6947:6981  currentAllowance - subtractedValue */\n      sub\n        /* \"https://github.com/OpenZeppelin/openzeppelin-contracts/blob/master/contracts/token/ERC20/ERC20.sol\":6922:6930  _approve */\n      tag_95\n        /* \"https://github.com/OpenZeppelin/openzeppelin-contracts/blob/master/contracts/token/ERC20/ERC20.sol\":6922:6982  _approve(owner, spender, currentAllowance - subtractedValue) */\n      jump\t// in\n    tag_133:\n        /* \"https://github.com/OpenZeppelin/openzeppelin-contracts/blob/master/contracts/token/ERC20/ERC20.sol\":7010:7014  true */\n      0x01\n        /* \"https://github.com/OpenZeppelin/openzeppelin-contracts/blob/master/contracts/token/ERC20/ERC20.sol\":7003:7014  return true */\n      swap3\n      pop\n      pop\n      pop\n        /* \"https://github.com/OpenZeppelin/openzeppelin-contracts/blob/master/contracts/token/ERC20/ERC20.sol\":6594:7021  function decreaseAllowance(address spender, uint256 subtractedValue) public virtual returns (bool) {... */\n      swap3\n      swap2\n      pop\n      pop\n      jump\t// out\n        /* \"https://github.com/OpenZeppelin/openzeppelin-contracts/blob/master/contracts/token/ERC20/ERC20.sol\":3729:3918  function transfer(address to, uint256 amount) public virtual override returns (bool) {... */\n    tag_71:\n        /* \"https://github.com/OpenZeppelin/openzeppelin-contracts/blob/master/contracts/token/ERC20/ERC20.sol\":3808:3812  bool */\n      0x00\n        /* \"https://github.com/OpenZeppelin/openzeppelin-contracts/blob/master/contracts/token/ERC20/ERC20.sol\":3824:3837  address owner */\n      dup1\n        /* \"https://github.com/OpenZeppelin/openzeppelin-contracts/blob/master/contracts/token/ERC20/ERC20.sol\":3840:3852  _msgSender() */\n      tag_135\n        /* \"https://github.com/OpenZeppelin/openzeppelin-contracts/blob/master/contracts/token/ERC20/ERC20.sol\":3840:3850  _msgSender */\n      tag_93\n        /* \"https://github.com/OpenZeppelin/openzeppelin-contracts/blob/master/contracts/token/ERC20/ERC20.sol\":3840:3852  _msgSender() */\n      jump\t// in\n    tag_135:\n        /* \"https://github.com/OpenZeppelin/openzeppelin-contracts/blob/master/contracts/token/ERC20/ERC20.sol\":3824:3852  address owner = _msgSender() */\n      swap1\n      pop\n        /* \"https://github.com/OpenZeppelin/openzeppelin-contracts/blob/master/contracts/token/ERC20/ERC20.sol\":3862:3890  _transfer(owner, to, amount) */\n      tag_136\n        /* \"https://github.com/OpenZeppelin/openzeppelin-contracts/blob/master/contracts/token/ERC20/ERC20.sol\":3872:3877  owner */\n      dup2\n        /* \"https://github.com/OpenZeppelin/openzeppelin-contracts/blob/master/contracts/token/ERC20/ERC20.sol\":3879:3881  to */\n      dup6\n        /* \"https://github.com/OpenZeppelin/openzeppelin-contracts/blob/master/contracts/token/ERC20/ERC20.sol\":3883:3889  amount */\n      dup6\n        /* \"https://github.com/OpenZeppelin/openzeppelin-contracts/blob/master/contracts/token/ERC20/ERC20.sol\":3862:3871  _transfer */\n      tag_102\n        /* \"https://github.com/OpenZeppelin/openzeppelin-contracts/blob/master/contracts/token/ERC20/ERC20.sol\":3862:3890  _transfer(owner, to, amount) */\n      jump\t// in\n    tag_136:\n        /* \"https://github.com/OpenZeppelin/openzeppelin-contracts/blob/master/contracts/token/ERC20/ERC20.sol\":3907:3911  true */\n      0x01\n        /* \"https://github.com/OpenZeppelin/openzeppelin-contracts/blob/master/contracts/token/ERC20/ERC20.sol\":3900:3911  return true */\n      swap2\n      pop\n      pop\n        /* \"https://github.com/OpenZeppelin/openzeppelin-contracts/blob/master/contracts/token/ERC20/ERC20.sol\":3729:3918  function transfer(address to, uint256 amount) public virtual override returns (bool) {... */\n      swap3\n      swap2\n      pop\n      pop\n      jump\t// out\n        /* \"https://github.com/OpenZeppelin/openzeppelin-contracts/blob/master/contracts/token/ERC20/ERC20.sol\":3976:4125  function allowance(address owner, address spender) public view virtual override returns (uint256) {... */\n    tag_77:\n        /* \"https://github.com/OpenZeppelin/openzeppelin-contracts/blob/master/contracts/token/ERC20/ERC20.sol\":4065:4072  uint256 */\n      0x00\n        /* \"https://github.com/OpenZeppelin/openzeppelin-contracts/blob/master/contracts/token/ERC20/ERC20.sol\":4091:4102  _allowances */\n      0x01\n        /* \"https://github.com/OpenZeppelin/openzeppelin-contracts/blob/master/contracts/token/ERC20/ERC20.sol\":4091:4109  _allowances[owner] */\n      0x00\n        /* \"https://github.com/OpenZeppelin/openzeppelin-contracts/blob/master/contracts/token/ERC20/ERC20.sol\":4103:4108  owner */\n      dup5\n        /* \"https://github.com/OpenZeppelin/openzeppelin-contracts/blob/master/contracts/token/ERC20/ERC20.sol\":4091:4109  _allowances[owner] */\n      0xffffffffffffffffffffffffffffffffffffffff\n      and\n      0xffffffffffffffffffffffffffffffffffffffff\n      and\n      dup2\n      mstore\n      0x20\n      add\n      swap1\n      dup2\n      mstore\n      0x20\n      add\n      0x00\n      keccak256\n        /* \"https://github.com/OpenZeppelin/openzeppelin-contracts/blob/master/contracts/token/ERC20/ERC20.sol\":4091:4118  _allowances[owner][spender] */\n      0x00\n        /* \"https://github.com/OpenZeppelin/openzeppelin-contracts/blob/master/contracts/token/ERC20/ERC20.sol\":4110:4117  spender */\n      dup4\n        /* \"https://github.com/OpenZeppelin/openzeppelin-contracts/blob/master/contracts/token/ERC20/ERC20.sol\":4091:4118  _allowances[owner][spender] */\n      0xffffffffffffffffffffffffffffffffffffffff\n      and\n      0xffffffffffffffffffffffffffffffffffffffff\n      and\n      dup2\n      mstore\n      0x20\n      add\n      swap1\n      dup2\n      mstore\n      0x20\n      add\n      0x00\n      keccak256\n      sload\n        /* \"https://github.com/OpenZeppelin/openzeppelin-contracts/blob/master/contracts/token/ERC20/ERC20.sol\":4084:4118  return _allowances[owner][spender] */\n      swap1\n      pop\n        /* \"https://github.com/OpenZeppelin/openzeppelin-contracts/blob/master/contracts/token/ERC20/ERC20.sol\":3976:4125  function allowance(address owner, address spender) public view virtual override returns (uint256) {... */\n      swap3\n      swap2\n      pop\n      pop\n      jump\t// out\n        /* \"contracts/CODToken.sol\":206:226  address public admin */\n    tag_81:\n      0x05\n      0x00\n      swap1\n      sload\n      swap1\n      0x0100\n      exp\n      swap1\n      div\n      0xffffffffffffffffffffffffffffffffffffffff\n      and\n      dup2\n      jump\t// out\n        /* \"https://github.com/OpenZeppelin/openzeppelin-contracts/blob/master/contracts/utils/Context.sol\":640:736  function _msgSender() internal view virtual returns (address) {... */\n    tag_93:\n        /* \"https://github.com/OpenZeppelin/openzeppelin-contracts/blob/master/contracts/utils/Context.sol\":693:700  address */\n      0x00\n        /* \"https://github.com/OpenZeppelin/openzeppelin-contracts/blob/master/contracts/utils/Context.sol\":719:729  msg.sender */\n      caller\n        /* \"https://github.com/OpenZeppelin/openzeppelin-contracts/blob/master/contracts/utils/Context.sol\":712:729  return msg.sender */\n      swap1\n      pop\n        /* \"https://github.com/OpenZeppelin/openzeppelin-contracts/blob/master/contracts/utils/Context.sol\":640:736  function _msgSender() internal view virtual returns (address) {... */\n      swap1\n      jump\t// out\n        /* \"https://github.com/OpenZeppelin/openzeppelin-contracts/blob/master/contracts/token/ERC20/ERC20.sol\":10119:10489  function _approve(... */\n    tag_95:\n        /* \"https://github.com/OpenZeppelin/openzeppelin-contracts/blob/master/contracts/token/ERC20/ERC20.sol\":10267:10268  0 */\n      0x00\n        /* \"https://github.com/OpenZeppelin/openzeppelin-contracts/blob/master/contracts/token/ERC20/ERC20.sol\":10250:10269  owner != address(0) */\n      0xffffffffffffffffffffffffffffffffffffffff\n      and\n        /* \"https://github.com/OpenZeppelin/openzeppelin-contracts/blob/master/contracts/token/ERC20/ERC20.sol\":10250:10255  owner */\n      dup4\n        /* \"https://github.com/OpenZeppelin/openzeppelin-contracts/blob/master/contracts/token/ERC20/ERC20.sol\":10250:10269  owner != address(0) */\n      0xffffffffffffffffffffffffffffffffffffffff\n      and\n      eq\n      iszero\n        /* \"https://github.com/OpenZeppelin/openzeppelin-contracts/blob/master/contracts/token/ERC20/ERC20.sol\":10242:10310  require(owner != address(0), \"ERC20: approve from the zero address\") */\n      tag_140\n      jumpi\n      mload(0x40)\n      0x08c379a000000000000000000000000000000000000000000000000000000000\n      dup2\n      mstore\n      0x04\n      add\n      tag_141\n      swap1\n      tag_142\n      jump\t// in\n    tag_141:\n      mload(0x40)\n      dup1\n      swap2\n      sub\n      swap1\n      revert\n    tag_140:\n        /* \"https://github.com/OpenZeppelin/openzeppelin-contracts/blob/master/contracts/token/ERC20/ERC20.sol\":10347:10348  0 */\n      0x00\n        /* \"https://github.com/OpenZeppelin/openzeppelin-contracts/blob/master/contracts/token/ERC20/ERC20.sol\":10328:10349  spender != address(0) */\n      0xffffffffffffffffffffffffffffffffffffffff\n      and\n        /* \"https://github.com/OpenZeppelin/openzeppelin-contracts/blob/master/contracts/token/ERC20/ERC20.sol\":10328:10335  spender */\n      dup3\n        /* \"https://github.com/OpenZeppelin/openzeppelin-contracts/blob/master/contracts/token/ERC20/ERC20.sol\":10328:10349  spender != address(0) */\n      0xffffffffffffffffffffffffffffffffffffffff\n      and\n      eq\n      iszero\n        /* \"https://github.com/OpenZeppelin/openzeppelin-contracts/blob/master/contracts/token/ERC20/ERC20.sol\":10320:10388  require(spender != address(0), \"ERC20: approve to the zero address\") */\n      tag_143\n      jumpi\n      mload(0x40)\n      0x08c379a000000000000000000000000000000000000000000000000000000000\n      dup2\n      mstore\n      0x04\n      add\n      tag_144\n      swap1\n      tag_145\n      jump\t// in\n    tag_144:\n      mload(0x40)\n      dup1\n      swap2\n      sub\n      swap1\n      revert\n    tag_143:\n        /* \"https://github.com/OpenZeppelin/openzeppelin-contracts/blob/master/contracts/token/ERC20/ERC20.sol\":10429:10435  amount */\n      dup1\n        /* \"https://github.com/OpenZeppelin/openzeppelin-contracts/blob/master/contracts/token/ERC20/ERC20.sol\":10399:10410  _allowances */\n      0x01\n        /* \"https://github.com/OpenZeppelin/openzeppelin-contracts/blob/master/contracts/token/ERC20/ERC20.sol\":10399:10417  _allowances[owner] */\n      0x00\n        /* \"https://github.com/OpenZeppelin/openzeppelin-contracts/blob/master/contracts/token/ERC20/ERC20.sol\":10411:10416  owner */\n      dup6\n        /* \"https://github.com/OpenZeppelin/openzeppelin-contracts/blob/master/contracts/token/ERC20/ERC20.sol\":10399:10417  _allowances[owner] */\n      0xffffffffffffffffffffffffffffffffffffffff\n      and\n      0xffffffffffffffffffffffffffffffffffffffff\n      and\n      dup2\n      mstore\n      0x20\n      add\n      swap1\n      dup2\n      mstore\n      0x20\n      add\n      0x00\n      keccak256\n        /* \"https://github.com/OpenZeppelin/openzeppelin-contracts/blob/master/contracts/token/ERC20/ERC20.sol\":10399:10426  _allowances[owner][spender] */\n      0x00\n        /* \"https://github.com/OpenZeppelin/openzeppelin-contracts/blob/master/contracts/token/ERC20/ERC20.sol\":10418:10425  spender */\n      dup5\n        /* \"https://github.com/OpenZeppelin/openzeppelin-contracts/blob/master/contracts/token/ERC20/ERC20.sol\":10399:10426  _allowances[owner][spender] */\n      0xffffffffffffffffffffffffffffffffffffffff\n      and\n      0xffffffffffffffffffffffffffffffffffffffff\n      and\n      dup2\n      mstore\n      0x20\n      add\n      swap1\n      dup2\n      mstore\n      0x20\n      add\n      0x00\n      keccak256\n        /* \"https://github.com/OpenZeppelin/openzeppelin-contracts/blob/master/contracts/token/ERC20/ERC20.sol\":10399:10435  _allowances[owner][spender] = amount */\n      dup2\n      swap1\n      sstore\n      pop\n        /* \"https://github.com/OpenZeppelin/openzeppelin-contracts/blob/master/contracts/token/ERC20/ERC20.sol\":10466:10473  spender */\n      dup2\n        /* \"https://github.com/OpenZeppelin/openzeppelin-contracts/blob/master/contracts/token/ERC20/ERC20.sol\":10450:10482  Approval(owner, spender, amount) */\n      0xffffffffffffffffffffffffffffffffffffffff\n      and\n        /* \"https://github.com/OpenZeppelin/openzeppelin-contracts/blob/master/contracts/token/ERC20/ERC20.sol\":10459:10464  owner */\n      dup4\n        /* \"https://github.com/OpenZeppelin/openzeppelin-contracts/blob/master/contracts/token/ERC20/ERC20.sol\":10450:10482  Approval(owner, spender, amount) */\n      0xffffffffffffffffffffffffffffffffffffffff\n      and\n      0x8c5be1e5ebec7d5bd14f71427d1e84f3dd0314c0f7b2291e5b200ac8c7c3b925\n        /* \"https://github.com/OpenZeppelin/openzeppelin-contracts/blob/master/contracts/token/ERC20/ERC20.sol\":10475:10481  amount */\n      dup4\n        /* \"https://github.com/OpenZeppelin/openzeppelin-contracts/blob/master/contracts/token/ERC20/ERC20.sol\":10450:10482  Approval(owner, spender, amount) */\n      mload(0x40)\n      tag_146\n      swap2\n      swap1\n      tag_33\n      jump\t// in\n    tag_146:\n      mload(0x40)\n      dup1\n      swap2\n      sub\n      swap1\n      log3\n        /* \"https://github.com/OpenZeppelin/openzeppelin-contracts/blob/master/contracts/token/ERC20/ERC20.sol\":10119:10489  function _approve(... */\n      pop\n      pop\n      pop\n      jump\t// out\n        /* \"https://github.com/OpenZeppelin/openzeppelin-contracts/blob/master/contracts/token/ERC20/ERC20.sol\":10770:11211  function _spendAllowance(... */\n    tag_100:\n        /* \"https://github.com/OpenZeppelin/openzeppelin-contracts/blob/master/contracts/token/ERC20/ERC20.sol\":10900:10924  uint256 currentAllowance */\n      0x00\n        /* \"https://github.com/OpenZeppelin/openzeppelin-contracts/blob/master/contracts/token/ERC20/ERC20.sol\":10927:10952  allowance(owner, spender) */\n      tag_148\n        /* \"https://github.com/OpenZeppelin/openzeppelin-contracts/blob/master/contracts/token/ERC20/ERC20.sol\":10937:10942  owner */\n      dup5\n        /* \"https://github.com/OpenZeppelin/openzeppelin-contracts/blob/master/contracts/token/ERC20/ERC20.sol\":10944:10951  spender */\n      dup5\n        /* \"https://github.com/OpenZeppelin/openzeppelin-contracts/blob/master/contracts/token/ERC20/ERC20.sol\":10927:10936  allowance */\n      tag_77\n        /* \"https://github.com/OpenZeppelin/openzeppelin-contracts/blob/master/contracts/token/ERC20/ERC20.sol\":10927:10952  allowance(owner, spender) */\n      jump\t// in\n    tag_148:\n        /* \"https://github.com/OpenZeppelin/openzeppelin-contracts/blob/master/contracts/token/ERC20/ERC20.sol\":10900:10952  uint256 currentAllowance = allowance(owner, spender) */\n      swap1\n      pop\n        /* \"https://github.com/OpenZeppelin/openzeppelin-contracts/blob/master/contracts/token/ERC20/ERC20.sol\":10986:11003  type(uint256).max */\n      0xffffffffffffffffffffffffffffffffffffffffffffffffffffffffffffffff\n        /* \"https://github.com/OpenZeppelin/openzeppelin-contracts/blob/master/contracts/token/ERC20/ERC20.sol\":10966:10982  currentAllowance */\n      dup2\n        /* \"https://github.com/OpenZeppelin/openzeppelin-contracts/blob/master/contracts/token/ERC20/ERC20.sol\":10966:11003  currentAllowance != type(uint256).max */\n      eq\n        /* \"https://github.com/OpenZeppelin/openzeppelin-contracts/blob/master/contracts/token/ERC20/ERC20.sol\":10962:11205  if (currentAllowance != type(uint256).max) {... */\n      tag_149\n      jumpi\n        /* \"https://github.com/OpenZeppelin/openzeppelin-contracts/blob/master/contracts/token/ERC20/ERC20.sol\":11047:11053  amount */\n      dup2\n        /* \"https://github.com/OpenZeppelin/openzeppelin-contracts/blob/master/contracts/token/ERC20/ERC20.sol\":11027:11043  currentAllowance */\n      dup2\n        /* \"https://github.com/OpenZeppelin/openzeppelin-contracts/blob/master/contracts/token/ERC20/ERC20.sol\":11027:11053  currentAllowance >= amount */\n      lt\n      iszero\n        /* \"https://github.com/OpenZeppelin/openzeppelin-contracts/blob/master/contracts/token/ERC20/ERC20.sol\":11019:11087  require(currentAllowance >= amount, \"ERC20: insufficient allowance\") */\n      tag_150\n      jumpi\n      mload(0x40)\n      0x08c379a000000000000000000000000000000000000000000000000000000000\n      dup2\n      mstore\n      0x04\n      add\n      tag_151\n      swap1\n      tag_152\n      jump\t// in\n    tag_151:\n      mload(0x40)\n      dup1\n      swap2\n      sub\n      swap1\n      revert\n    tag_150:\n        /* \"https://github.com/OpenZeppelin/openzeppelin-contracts/blob/master/contracts/token/ERC20/ERC20.sol\":11129:11180  _approve(owner, spender, currentAllowance - amount) */\n      tag_153\n        /* \"https://github.com/OpenZeppelin/openzeppelin-contracts/blob/master/contracts/token/ERC20/ERC20.sol\":11138:11143  owner */\n      dup5\n        /* \"https://github.com/OpenZeppelin/openzeppelin-contracts/blob/master/contracts/token/ERC20/ERC20.sol\":11145:11152  spender */\n      dup5\n        /* \"https://github.com/OpenZeppelin/openzeppelin-contracts/blob/master/contracts/token/ERC20/ERC20.sol\":11173:11179  amount */\n      dup5\n        /* \"https://github.com/OpenZeppelin/openzeppelin-contracts/blob/master/contracts/token/ERC20/ERC20.sol\":11154:11170  currentAllowance */\n      dup5\n        /* \"https://github.com/OpenZeppelin/openzeppelin-contracts/blob/master/contracts/token/ERC20/ERC20.sol\":11154:11179  currentAllowance - amount */\n      sub\n        /* \"https://github.com/OpenZeppelin/openzeppelin-contracts/blob/master/contracts/token/ERC20/ERC20.sol\":11129:11137  _approve */\n      tag_95\n        /* \"https://github.com/OpenZeppelin/openzeppelin-contracts/blob/master/contracts/token/ERC20/ERC20.sol\":11129:11180  _approve(owner, spender, currentAllowance - amount) */\n      jump\t// in\n    tag_153:\n        /* \"https://github.com/OpenZeppelin/openzeppelin-contracts/blob/master/contracts/token/ERC20/ERC20.sol\":10962:11205  if (currentAllowance != type(uint256).max) {... */\n    tag_149:\n        /* \"https://github.com/OpenZeppelin/openzeppelin-contracts/blob/master/contracts/token/ERC20/ERC20.sol\":10890:11211  {... */\n      pop\n        /* \"https://github.com/OpenZeppelin/openzeppelin-contracts/blob/master/contracts/token/ERC20/ERC20.sol\":10770:11211  function _spendAllowance(... */\n      pop\n      pop\n      pop\n      jump\t// out\n        /* \"https://github.com/OpenZeppelin/openzeppelin-contracts/blob/master/contracts/token/ERC20/ERC20.sol\":7484:8135  function _transfer(... */\n    tag_102:\n        /* \"https://github.com/OpenZeppelin/openzeppelin-contracts/blob/master/contracts/token/ERC20/ERC20.sol\":7626:7627  0 */\n      0x00\n        /* \"https://github.com/OpenZeppelin/openzeppelin-contracts/blob/master/contracts/token/ERC20/ERC20.sol\":7610:7628  from != address(0) */\n      0xffffffffffffffffffffffffffffffffffffffff\n      and\n        /* \"https://github.com/OpenZeppelin/openzeppelin-contracts/blob/master/contracts/token/ERC20/ERC20.sol\":7610:7614  from */\n      dup4\n        /* \"https://github.com/OpenZeppelin/openzeppelin-contracts/blob/master/contracts/token/ERC20/ERC20.sol\":7610:7628  from != address(0) */\n      0xffffffffffffffffffffffffffffffffffffffff\n      and\n      eq\n      iszero\n        /* \"https://github.com/OpenZeppelin/openzeppelin-contracts/blob/master/contracts/token/ERC20/ERC20.sol\":7602:7670  require(from != address(0), \"ERC20: transfer from the zero address\") */\n      tag_155\n      jumpi\n      mload(0x40)\n      0x08c379a000000000000000000000000000000000000000000000000000000000\n      dup2\n      mstore\n      0x04\n      add\n      tag_156\n      swap1\n      tag_157\n      jump\t// in\n    tag_156:\n      mload(0x40)\n      dup1\n      swap2\n      sub\n      swap1\n      revert\n    tag_155:\n        /* \"https://github.com/OpenZeppelin/openzeppelin-contracts/blob/master/contracts/token/ERC20/ERC20.sol\":7702:7703  0 */\n      0x00\n        /* \"https://github.com/OpenZeppelin/openzeppelin-contracts/blob/master/contracts/token/ERC20/ERC20.sol\":7688:7704  to != address(0) */\n      0xffffffffffffffffffffffffffffffffffffffff\n      and\n        /* \"https://github.com/OpenZeppelin/openzeppelin-contracts/blob/master/contracts/token/ERC20/ERC20.sol\":7688:7690  to */\n      dup3\n        /* \"https://github.com/OpenZeppelin/openzeppelin-contracts/blob/master/contracts/token/ERC20/ERC20.sol\":7688:7704  to != address(0) */\n      0xffffffffffffffffffffffffffffffffffffffff\n      and\n      eq\n      iszero\n        /* \"https://github.com/OpenZeppelin/openzeppelin-contracts/blob/master/contracts/token/ERC20/ERC20.sol\":7680:7744  require(to != address(0), \"ERC20: transfer to the zero address\") */\n      tag_158\n      jumpi\n      mload(0x40)\n      0x08c379a000000000000000000000000000000000000000000000000000000000\n      dup2\n      mstore\n      0x04\n      add\n      tag_159\n      swap1\n      tag_160\n      jump\t// in\n    tag_159:\n      mload(0x40)\n      dup1\n      swap2\n      sub\n      swap1\n      revert\n    tag_158:\n        /* \"https://github.com/OpenZeppelin/openzeppelin-contracts/blob/master/contracts/token/ERC20/ERC20.sol\":7755:7793  _beforeTokenTransfer(from, to, amount) */\n      tag_161\n        /* \"https://github.com/OpenZeppelin/openzeppelin-contracts/blob/master/contracts/token/ERC20/ERC20.sol\":7776:7780  from */\n      dup4\n        /* \"https://github.com/OpenZeppelin/openzeppelin-contracts/blob/master/contracts/token/ERC20/ERC20.sol\":7782:7784  to */\n      dup4\n        /* \"https://github.com/OpenZeppelin/openzeppelin-contracts/blob/master/contracts/token/ERC20/ERC20.sol\":7786:7792  amount */\n      dup4\n        /* \"https://github.com/OpenZeppelin/openzeppelin-contracts/blob/master/contracts/token/ERC20/ERC20.sol\":7755:7775  _beforeTokenTransfer */\n      tag_162\n        /* \"https://github.com/OpenZeppelin/openzeppelin-contracts/blob/master/contracts/token/ERC20/ERC20.sol\":7755:7793  _beforeTokenTransfer(from, to, amount) */\n      jump\t// in\n    tag_161:\n        /* \"https://github.com/OpenZeppelin/openzeppelin-contracts/blob/master/contracts/token/ERC20/ERC20.sol\":7804:7823  uint256 fromBalance */\n      0x00\n        /* \"https://github.com/OpenZeppelin/openzeppelin-contracts/blob/master/contracts/token/ERC20/ERC20.sol\":7826:7835  _balances */\n      dup1\n        /* \"https://github.com/OpenZeppelin/openzeppelin-contracts/blob/master/contracts/token/ERC20/ERC20.sol\":7826:7841  _balances[from] */\n      0x00\n        /* \"https://github.com/OpenZeppelin/openzeppelin-contracts/blob/master/contracts/token/ERC20/ERC20.sol\":7836:7840  from */\n      dup6\n        /* \"https://github.com/OpenZeppelin/openzeppelin-contracts/blob/master/contracts/token/ERC20/ERC20.sol\":7826:7841  _balances[from] */\n      0xffffffffffffffffffffffffffffffffffffffff\n      and\n      0xffffffffffffffffffffffffffffffffffffffff\n      and\n      dup2\n      mstore\n      0x20\n      add\n      swap1\n      dup2\n      mstore\n      0x20\n      add\n      0x00\n      keccak256\n      sload\n        /* \"https://github.com/OpenZeppelin/openzeppelin-contracts/blob/master/contracts/token/ERC20/ERC20.sol\":7804:7841  uint256 fromBalance = _balances[from] */\n      swap1\n      pop\n        /* \"https://github.com/OpenZeppelin/openzeppelin-contracts/blob/master/contracts/token/ERC20/ERC20.sol\":7874:7880  amount */\n      dup2\n        /* \"https://github.com/OpenZeppelin/openzeppelin-contracts/blob/master/contracts/token/ERC20/ERC20.sol\":7859:7870  fromBalance */\n      dup2\n        /* \"https://github.com/OpenZeppelin/openzeppelin-contracts/blob/master/contracts/token/ERC20/ERC20.sol\":7859:7880  fromBalance >= amount */\n      lt\n      iszero\n        /* \"https://github.com/OpenZeppelin/openzeppelin-contracts/blob/master/contracts/token/ERC20/ERC20.sol\":7851:7923  require(fromBalance >= amount, \"ERC20: transfer amount exceeds balance\") */\n      tag_163\n      jumpi\n      mload(0x40)\n      0x08c379a000000000000000000000000000000000000000000000000000000000\n      dup2\n      mstore\n      0x04\n      add\n      tag_164\n      swap1\n      tag_165\n      jump\t// in\n    tag_164:\n      mload(0x40)\n      dup1\n      swap2\n      sub\n      swap1\n      revert\n    tag_163:\n        /* \"https://github.com/OpenZeppelin/openzeppelin-contracts/blob/master/contracts/token/ERC20/ERC20.sol\":7989:7995  amount */\n      dup2\n        /* \"https://github.com/OpenZeppelin/openzeppelin-contracts/blob/master/contracts/token/ERC20/ERC20.sol\":7975:7986  fromBalance */\n      dup2\n        /* \"https://github.com/OpenZeppelin/openzeppelin-contracts/blob/master/contracts/token/ERC20/ERC20.sol\":7975:7995  fromBalance - amount */\n      sub\n        /* \"https://github.com/OpenZeppelin/openzeppelin-contracts/blob/master/contracts/token/ERC20/ERC20.sol\":7957:7966  _balances */\n      0x00\n        /* \"https://github.com/OpenZeppelin/openzeppelin-contracts/blob/master/contracts/token/ERC20/ERC20.sol\":7957:7972  _balances[from] */\n      dup1\n        /* \"https://github.com/OpenZeppelin/openzeppelin-contracts/blob/master/contracts/token/ERC20/ERC20.sol\":7967:7971  from */\n      dup7\n        /* \"https://github.com/OpenZeppelin/openzeppelin-contracts/blob/master/contracts/token/ERC20/ERC20.sol\":7957:7972  _balances[from] */\n      0xffffffffffffffffffffffffffffffffffffffff\n      and\n      0xffffffffffffffffffffffffffffffffffffffff\n      and\n      dup2\n      mstore\n      0x20\n      add\n      swap1\n      dup2\n      mstore\n      0x20\n      add\n      0x00\n      keccak256\n        /* \"https://github.com/OpenZeppelin/openzeppelin-contracts/blob/master/contracts/token/ERC20/ERC20.sol\":7957:7995  _balances[from] = fromBalance - amount */\n      dup2\n      swap1\n      sstore\n      pop\n        /* \"https://github.com/OpenZeppelin/openzeppelin-contracts/blob/master/contracts/token/ERC20/ERC20.sol\":8032:8038  amount */\n      dup2\n        /* \"https://github.com/OpenZeppelin/openzeppelin-contracts/blob/master/contracts/token/ERC20/ERC20.sol\":8015:8024  _balances */\n      0x00\n        /* \"https://github.com/OpenZeppelin/openzeppelin-contracts/blob/master/contracts/token/ERC20/ERC20.sol\":8015:8028  _balances[to] */\n      dup1\n        /* \"https://github.com/OpenZeppelin/openzeppelin-contracts/blob/master/contracts/token/ERC20/ERC20.sol\":8025:8027  to */\n      dup6\n        /* \"https://github.com/OpenZeppelin/openzeppelin-contracts/blob/master/contracts/token/ERC20/ERC20.sol\":8015:8028  _balances[to] */\n      0xffffffffffffffffffffffffffffffffffffffff\n      and\n      0xffffffffffffffffffffffffffffffffffffffff\n      and\n      dup2\n      mstore\n      0x20\n      add\n      swap1\n      dup2\n      mstore\n      0x20\n      add\n      0x00\n      keccak256\n      0x00\n        /* \"https://github.com/OpenZeppelin/openzeppelin-contracts/blob/master/contracts/token/ERC20/ERC20.sol\":8015:8038  _balances[to] += amount */\n      dup3\n      dup3\n      sload\n      tag_166\n      swap2\n      swap1\n      tag_109\n      jump\t// in\n    tag_166:\n      swap3\n      pop\n      pop\n      dup2\n      swap1\n      sstore\n      pop\n        /* \"https://github.com/OpenZeppelin/openzeppelin-contracts/blob/master/contracts/token/ERC20/ERC20.sol\":8069:8071  to */\n      dup3\n        /* \"https://github.com/OpenZeppelin/openzeppelin-contracts/blob/master/contracts/token/ERC20/ERC20.sol\":8054:8080  Transfer(from, to, amount) */\n      0xffffffffffffffffffffffffffffffffffffffff\n      and\n        /* \"https://github.com/OpenZeppelin/openzeppelin-contracts/blob/master/contracts/token/ERC20/ERC20.sol\":8063:8067  from */\n      dup5\n        /* \"https://github.com/OpenZeppelin/openzeppelin-contracts/blob/master/contracts/token/ERC20/ERC20.sol\":8054:8080  Transfer(from, to, amount) */\n      0xffffffffffffffffffffffffffffffffffffffff\n      and\n      0xddf252ad1be2c89b69c2b068fc378daa952ba7f163c4a11628f55a4df523b3ef\n        /* \"https://github.com/OpenZeppelin/openzeppelin-contracts/blob/master/contracts/token/ERC20/ERC20.sol\":8073:8079  amount */\n      dup5\n        /* \"https://github.com/OpenZeppelin/openzeppelin-contracts/blob/master/contracts/token/ERC20/ERC20.sol\":8054:8080  Transfer(from, to, amount) */\n      mload(0x40)\n      tag_167\n      swap2\n      swap1\n      tag_33\n      jump\t// in\n    tag_167:\n      mload(0x40)\n      dup1\n      swap2\n      sub\n      swap1\n      log3\n        /* \"https://github.com/OpenZeppelin/openzeppelin-contracts/blob/master/contracts/token/ERC20/ERC20.sol\":8091:8128  _afterTokenTransfer(from, to, amount) */\n      tag_168\n        /* \"https://github.com/OpenZeppelin/openzeppelin-contracts/blob/master/contracts/token/ERC20/ERC20.sol\":8111:8115  from */\n      dup5\n        /* \"https://github.com/OpenZeppelin/openzeppelin-contracts/blob/master/contracts/token/ERC20/ERC20.sol\":8117:8119  to */\n      dup5\n        /* \"https://github.com/OpenZeppelin/openzeppelin-contracts/blob/master/contracts/token/ERC20/ERC20.sol\":8121:8127  amount */\n      dup5\n        /* \"https://github.com/OpenZeppelin/openzeppelin-contracts/blob/master/contracts/token/ERC20/ERC20.sol\":8091:8110  _afterTokenTransfer */\n      tag_169\n        /* \"https://github.com/OpenZeppelin/openzeppelin-contracts/blob/master/contracts/token/ERC20/ERC20.sol\":8091:8128  _afterTokenTransfer(from, to, amount) */\n      jump\t// in\n    tag_168:\n        /* \"https://github.com/OpenZeppelin/openzeppelin-contracts/blob/master/contracts/token/ERC20/ERC20.sol\":7592:8135  {... */\n      pop\n        /* \"https://github.com/OpenZeppelin/openzeppelin-contracts/blob/master/contracts/token/ERC20/ERC20.sol\":7484:8135  function _transfer(... */\n      pop\n      pop\n      pop\n      jump\t// out\n        /* \"https://github.com/OpenZeppelin/openzeppelin-contracts/blob/master/contracts/token/ERC20/ERC20.sol\":8411:8800  function _mint(address account, uint256 amount) internal virtual {... */\n    tag_120:\n        /* \"https://github.com/OpenZeppelin/openzeppelin-contracts/blob/master/contracts/token/ERC20/ERC20.sol\":8513:8514  0 */\n      0x00\n        /* \"https://github.com/OpenZeppelin/openzeppelin-contracts/blob/master/contracts/token/ERC20/ERC20.sol\":8494:8515  account != address(0) */\n      0xffffffffffffffffffffffffffffffffffffffff\n      and\n        /* \"https://github.com/OpenZeppelin/openzeppelin-contracts/blob/master/contracts/token/ERC20/ERC20.sol\":8494:8501  account */\n      dup3\n        /* \"https://github.com/OpenZeppelin/openzeppelin-contracts/blob/master/contracts/token/ERC20/ERC20.sol\":8494:8515  account != address(0) */\n      0xffffffffffffffffffffffffffffffffffffffff\n      and\n      eq\n      iszero\n        /* \"https://github.com/OpenZeppelin/openzeppelin-contracts/blob/master/contracts/token/ERC20/ERC20.sol\":8486:8551  require(account != address(0), \"ERC20: mint to the zero address\") */\n      tag_171\n      jumpi\n      mload(0x40)\n      0x08c379a000000000000000000000000000000000000000000000000000000000\n      dup2\n      mstore\n      0x04\n      add\n      tag_172\n      swap1\n      tag_173\n      jump\t// in\n    tag_172:\n      mload(0x40)\n      dup1\n      swap2\n      sub\n      swap1\n      revert\n    tag_171:\n        /* \"https://github.com/OpenZeppelin/openzeppelin-contracts/blob/master/contracts/token/ERC20/ERC20.sol\":8562:8611  _beforeTokenTransfer(address(0), account, amount) */\n      tag_174\n        /* \"https://github.com/OpenZeppelin/openzeppelin-contracts/blob/master/contracts/token/ERC20/ERC20.sol\":8591:8592  0 */\n      0x00\n        /* \"https://github.com/OpenZeppelin/openzeppelin-contracts/blob/master/contracts/token/ERC20/ERC20.sol\":8595:8602  account */\n      dup4\n        /* \"https://github.com/OpenZeppelin/openzeppelin-contracts/blob/master/contracts/token/ERC20/ERC20.sol\":8604:8610  amount */\n      dup4\n        /* \"https://github.com/OpenZeppelin/openzeppelin-contracts/blob/master/contracts/token/ERC20/ERC20.sol\":8562:8582  _beforeTokenTransfer */\n      tag_162\n        /* \"https://github.com/OpenZeppelin/openzeppelin-contracts/blob/master/contracts/token/ERC20/ERC20.sol\":8562:8611  _beforeTokenTransfer(address(0), account, amount) */\n      jump\t// in\n    tag_174:\n        /* \"https://github.com/OpenZeppelin/openzeppelin-contracts/blob/master/contracts/token/ERC20/ERC20.sol\":8638:8644  amount */\n      dup1\n        /* \"https://github.com/OpenZeppelin/openzeppelin-contracts/blob/master/contracts/token/ERC20/ERC20.sol\":8622:8634  _totalSupply */\n      0x02\n      0x00\n        /* \"https://github.com/OpenZeppelin/openzeppelin-contracts/blob/master/contracts/token/ERC20/ERC20.sol\":8622:8644  _totalSupply += amount */\n      dup3\n      dup3\n      sload\n      tag_175\n      swap2\n      swap1\n      tag_109\n      jump\t// in\n    tag_175:\n      swap3\n      pop\n      pop\n      dup2\n      swap1\n      sstore\n      pop\n        /* \"https://github.com/OpenZeppelin/openzeppelin-contracts/blob/master/contracts/token/ERC20/ERC20.sol\":8676:8682  amount */\n      dup1\n        /* \"https://github.com/OpenZeppelin/openzeppelin-contracts/blob/master/contracts/token/ERC20/ERC20.sol\":8654:8663  _balances */\n      0x00\n        /* \"https://github.com/OpenZeppelin/openzeppelin-contracts/blob/master/contracts/token/ERC20/ERC20.sol\":8654:8672  _balances[account] */\n      dup1\n        /* \"https://github.com/OpenZeppelin/openzeppelin-contracts/blob/master/contracts/token/ERC20/ERC20.sol\":8664:8671  account */\n      dup5\n        /* \"https://github.com/OpenZeppelin/openzeppelin-contracts/blob/master/contracts/token/ERC20/ERC20.sol\":8654:8672  _balances[account] */\n      0xffffffffffffffffffffffffffffffffffffffff\n      and\n      0xffffffffffffffffffffffffffffffffffffffff\n      and\n      dup2\n      mstore\n      0x20\n      add\n      swap1\n      dup2\n      mstore\n      0x20\n      add\n      0x00\n      keccak256\n      0x00\n        /* \"https://github.com/OpenZeppelin/openzeppelin-contracts/blob/master/contracts/token/ERC20/ERC20.sol\":8654:8682  _balances[account] += amount */\n      dup3\n      dup3\n      sload\n      tag_176\n      swap2\n      swap1\n      tag_109\n      jump\t// in\n    tag_176:\n      swap3\n      pop\n      pop\n      dup2\n      swap1\n      sstore\n      pop\n        /* \"https://github.com/OpenZeppelin/openzeppelin-contracts/blob/master/contracts/token/ERC20/ERC20.sol\":8718:8725  account */\n      dup2\n        /* \"https://github.com/OpenZeppelin/openzeppelin-contracts/blob/master/contracts/token/ERC20/ERC20.sol\":8697:8734  Transfer(address(0), account, amount) */\n      0xffffffffffffffffffffffffffffffffffffffff\n      and\n        /* \"https://github.com/OpenZeppelin/openzeppelin-contracts/blob/master/contracts/token/ERC20/ERC20.sol\":8714:8715  0 */\n      0x00\n        /* \"https://github.com/OpenZeppelin/openzeppelin-contracts/blob/master/contracts/token/ERC20/ERC20.sol\":8697:8734  Transfer(address(0), account, amount) */\n      0xffffffffffffffffffffffffffffffffffffffff\n      and\n      0xddf252ad1be2c89b69c2b068fc378daa952ba7f163c4a11628f55a4df523b3ef\n        /* \"https://github.com/OpenZeppelin/openzeppelin-contracts/blob/master/contracts/token/ERC20/ERC20.sol\":8727:8733  amount */\n      dup4\n        /* \"https://github.com/OpenZeppelin/openzeppelin-contracts/blob/master/contracts/token/ERC20/ERC20.sol\":8697:8734  Transfer(address(0), account, amount) */\n      mload(0x40)\n      tag_177\n      swap2\n      swap1\n      tag_33\n      jump\t// in\n    tag_177:\n      mload(0x40)\n      dup1\n      swap2\n      sub\n      swap1\n      log3\n        /* \"https://github.com/OpenZeppelin/openzeppelin-contracts/blob/master/contracts/token/ERC20/ERC20.sol\":8745:8793  _afterTokenTransfer(address(0), account, amount) */\n      tag_178\n        /* \"https://github.com/OpenZeppelin/openzeppelin-contracts/blob/master/contracts/token/ERC20/ERC20.sol\":8773:8774  0 */\n      0x00\n        /* \"https://github.com/OpenZeppelin/openzeppelin-contracts/blob/master/contracts/token/ERC20/ERC20.sol\":8777:8784  account */\n      dup4\n        /* \"https://github.com/OpenZeppelin/openzeppelin-contracts/blob/master/contracts/token/ERC20/ERC20.sol\":8786:8792  amount */\n      dup4\n        /* \"https://github.com/OpenZeppelin/openzeppelin-contracts/blob/master/contracts/token/ERC20/ERC20.sol\":8745:8764  _afterTokenTransfer */\n      tag_169\n        /* \"https://github.com/OpenZeppelin/openzeppelin-contracts/blob/master/contracts/token/ERC20/ERC20.sol\":8745:8793  _afterTokenTransfer(address(0), account, amount) */\n      jump\t// in\n    tag_178:\n        /* \"https://github.com/OpenZeppelin/openzeppelin-contracts/blob/master/contracts/token/ERC20/ERC20.sol\":8411:8800  function _mint(address account, uint256 amount) internal virtual {... */\n      pop\n      pop\n      jump\t// out\n        /* \"https://github.com/OpenZeppelin/openzeppelin-contracts/blob/master/contracts/token/ERC20/ERC20.sol\":11795:11916  function _beforeTokenTransfer(... */\n    tag_162:\n      pop\n      pop\n      pop\n      jump\t// out\n        /* \"https://github.com/OpenZeppelin/openzeppelin-contracts/blob/master/contracts/token/ERC20/ERC20.sol\":12504:12624  function _afterTokenTransfer(... */\n    tag_169:\n      pop\n      pop\n      pop\n      jump\t// out\n        /* \"#utility.yul\":7:146   */\n    tag_182:\n        /* \"#utility.yul\":53:58   */\n      0x00\n        /* \"#utility.yul\":91:97   */\n      dup2\n        /* \"#utility.yul\":78:98   */\n      calldataload\n        /* \"#utility.yul\":69:98   */\n      swap1\n      pop\n        /* \"#utility.yul\":107:140   */\n      tag_184\n        /* \"#utility.yul\":134:139   */\n      dup2\n        /* \"#utility.yul\":107:140   */\n      tag_185\n      jump\t// in\n    tag_184:\n        /* \"#utility.yul\":7:146   */\n      swap3\n      swap2\n      pop\n      pop\n      jump\t// out\n        /* \"#utility.yul\":152:291   */\n    tag_186:\n        /* \"#utility.yul\":198:203   */\n      0x00\n        /* \"#utility.yul\":236:242   */\n      dup2\n        /* \"#utility.yul\":223:243   */\n      calldataload\n        /* \"#utility.yul\":214:243   */\n      swap1\n      pop\n        /* \"#utility.yul\":252:285   */\n      tag_188\n        /* \"#utility.yul\":279:284   */\n      dup2\n        /* \"#utility.yul\":252:285   */\n      tag_189\n      jump\t// in\n    tag_188:\n        /* \"#utility.yul\":152:291   */\n      swap3\n      swap2\n      pop\n      pop\n      jump\t// out\n        /* \"#utility.yul\":297:626   */\n    tag_53:\n        /* \"#utility.yul\":356:362   */\n      0x00\n        /* \"#utility.yul\":405:407   */\n      0x20\n        /* \"#utility.yul\":393:402   */\n      dup3\n        /* \"#utility.yul\":384:391   */\n      dup5\n        /* \"#utility.yul\":380:403   */\n      sub\n        /* \"#utility.yul\":376:408   */\n      slt\n        /* \"#utility.yul\":373:492   */\n      iszero\n      tag_191\n      jumpi\n        /* \"#utility.yul\":411:490   */\n      tag_192\n      tag_193\n      jump\t// in\n    tag_192:\n        /* \"#utility.yul\":373:492   */\n    tag_191:\n        /* \"#utility.yul\":531:532   */\n      0x00\n        /* \"#utility.yul\":556:609   */\n      tag_194\n        /* \"#utility.yul\":601:608   */\n      dup5\n        /* \"#utility.yul\":592:598   */\n      dup3\n        /* \"#utility.yul\":581:590   */\n      dup6\n        /* \"#utility.yul\":577:599   */\n      add\n        /* \"#utility.yul\":556:609   */\n      tag_182\n      jump\t// in\n    tag_194:\n        /* \"#utility.yul\":546:609   */\n      swap2\n      pop\n        /* \"#utility.yul\":502:619   */\n      pop\n        /* \"#utility.yul\":297:626   */\n      swap3\n      swap2\n      pop\n      pop\n      jump\t// out\n        /* \"#utility.yul\":632:1106   */\n    tag_76:\n        /* \"#utility.yul\":700:706   */\n      0x00\n        /* \"#utility.yul\":708:714   */\n      dup1\n        /* \"#utility.yul\":757:759   */\n      0x40\n        /* \"#utility.yul\":745:754   */\n      dup4\n        /* \"#utility.yul\":736:743   */\n      dup6\n        /* \"#utility.yul\":732:755   */\n      sub\n        /* \"#utility.yul\":728:760   */\n      slt\n        /* \"#utility.yul\":725:844   */\n      iszero\n      tag_196\n      jumpi\n        /* \"#utility.yul\":763:842   */\n      tag_197\n      tag_193\n      jump\t// in\n    tag_197:\n        /* \"#utility.yul\":725:844   */\n    tag_196:\n        /* \"#utility.yul\":883:884   */\n      0x00\n        /* \"#utility.yul\":908:961   */\n      tag_198\n        /* \"#utility.yul\":953:960   */\n      dup6\n        /* \"#utility.yul\":944:950   */\n      dup3\n        /* \"#utility.yul\":933:942   */\n      dup7\n        /* \"#utility.yul\":929:951   */\n      add\n        /* \"#utility.yul\":908:961   */\n      tag_182\n      jump\t// in\n    tag_198:\n        /* \"#utility.yul\":898:961   */\n      swap3\n      pop\n        /* \"#utility.yul\":854:971   */\n      pop\n        /* \"#utility.yul\":1010:1012   */\n      0x20\n        /* \"#utility.yul\":1036:1089   */\n      tag_199\n        /* \"#utility.yul\":1081:1088   */\n      dup6\n        /* \"#utility.yul\":1072:1078   */\n      dup3\n        /* \"#utility.yul\":1061:1070   */\n      dup7\n        /* \"#utility.yul\":1057:1079   */\n      add\n        /* \"#utility.yul\":1036:1089   */\n      tag_182\n      jump\t// in\n    tag_199:\n        /* \"#utility.yul\":1026:1089   */\n      swap2\n      pop\n        /* \"#utility.yul\":981:1099   */\n      pop\n        /* \"#utility.yul\":632:1106   */\n      swap3\n      pop\n      swap3\n      swap1\n      pop\n      jump\t// out\n        /* \"#utility.yul\":1112:1731   */\n    tag_37:\n        /* \"#utility.yul\":1189:1195   */\n      0x00\n        /* \"#utility.yul\":1197:1203   */\n      dup1\n        /* \"#utility.yul\":1205:1211   */\n      0x00\n        /* \"#utility.yul\":1254:1256   */\n      0x60\n        /* \"#utility.yul\":1242:1251   */\n      dup5\n        /* \"#utility.yul\":1233:1240   */\n      dup7\n        /* \"#utility.yul\":1229:1252   */\n      sub\n        /* \"#utility.yul\":1225:1257   */\n      slt\n        /* \"#utility.yul\":1222:1341   */\n      iszero\n      tag_201\n      jumpi\n        /* \"#utility.yul\":1260:1339   */\n      tag_202\n      tag_193\n      jump\t// in\n    tag_202:\n        /* \"#utility.yul\":1222:1341   */\n    tag_201:\n        /* \"#utility.yul\":1380:1381   */\n      0x00\n        /* \"#utility.yul\":1405:1458   */\n      tag_203\n        /* \"#utility.yul\":1450:1457   */\n      dup7\n        /* \"#utility.yul\":1441:1447   */\n      dup3\n        /* \"#utility.yul\":1430:1439   */\n      dup8\n        /* \"#utility.yul\":1426:1448   */\n      add\n        /* \"#utility.yul\":1405:1458   */\n      tag_182\n      jump\t// in\n    tag_203:\n        /* \"#utility.yul\":1395:1458   */\n      swap4\n      pop\n        /* \"#utility.yul\":1351:1468   */\n      pop\n        /* \"#utility.yul\":1507:1509   */\n      0x20\n        /* \"#utility.yul\":1533:1586   */\n      tag_204\n        /* \"#utility.yul\":1578:1585   */\n      dup7\n        /* \"#utility.yul\":1569:1575   */\n      dup3\n        /* \"#utility.yul\":1558:1567   */\n      dup8\n        /* \"#utility.yul\":1554:1576   */\n      add\n        /* \"#utility.yul\":1533:1586   */\n      tag_182\n      jump\t// in\n    tag_204:\n        /* \"#utility.yul\":1523:1586   */\n      swap3\n      pop\n        /* \"#utility.yul\":1478:1596   */\n      pop\n        /* \"#utility.yul\":1635:1637   */\n      0x40\n        /* \"#utility.yul\":1661:1714   */\n      tag_205\n        /* \"#utility.yul\":1706:1713   */\n      dup7\n        /* \"#utility.yul\":1697:1703   */\n      dup3\n        /* \"#utility.yul\":1686:1695   */\n      dup8\n        /* \"#utility.yul\":1682:1704   */\n      add\n        /* \"#utility.yul\":1661:1714   */\n      tag_186\n      jump\t// in\n    tag_205:\n        /* \"#utility.yul\":1651:1714   */\n      swap2\n      pop\n        /* \"#utility.yul\":1606:1724   */\n      pop\n        /* \"#utility.yul\":1112:1731   */\n      swap3\n      pop\n      swap3\n      pop\n      swap3\n      jump\t// out\n        /* \"#utility.yul\":1737:2211   */\n    tag_25:\n        /* \"#utility.yul\":1805:1811   */\n      0x00\n        /* \"#utility.yul\":1813:1819   */\n      dup1\n        /* \"#utility.yul\":1862:1864   */\n      0x40\n        /* \"#utility.yul\":1850:1859   */\n      dup4\n        /* \"#utility.yul\":1841:1848   */\n      dup6\n        /* \"#utility.yul\":1837:1860   */\n      sub\n        /* \"#utility.yul\":1833:1865   */\n      slt\n        /* \"#utility.yul\":1830:1949   */\n      iszero\n      tag_207\n      jumpi\n        /* \"#utility.yul\":1868:1947   */\n      tag_208\n      tag_193\n      jump\t// in\n    tag_208:\n        /* \"#utility.yul\":1830:1949   */\n    tag_207:\n        /* \"#utility.yul\":1988:1989   */\n      0x00\n        /* \"#utility.yul\":2013:2066   */\n      tag_209\n        /* \"#utility.yul\":2058:2065   */\n      dup6\n        /* \"#utility.yul\":2049:2055   */\n      dup3\n        /* \"#utility.yul\":2038:2047   */\n      dup7\n        /* \"#utility.yul\":2034:2056   */\n      add\n        /* \"#utility.yul\":2013:2066   */\n      tag_182\n      jump\t// in\n    tag_209:\n        /* \"#utility.yul\":2003:2066   */\n      swap3\n      pop\n        /* \"#utility.yul\":1959:2076   */\n      pop\n        /* \"#utility.yul\":2115:2117   */\n      0x20\n        /* \"#utility.yul\":2141:2194   */\n      tag_210\n        /* \"#utility.yul\":2186:2193   */\n      dup6\n        /* \"#utility.yul\":2177:2183   */\n      dup3\n        /* \"#utility.yul\":2166:2175   */\n      dup7\n        /* \"#utility.yul\":2162:2184   */\n      add\n        /* \"#utility.yul\":2141:2194   */\n      tag_186\n      jump\t// in\n    tag_210:\n        /* \"#utility.yul\":2131:2194   */\n      swap2\n      pop\n        /* \"#utility.yul\":2086:2204   */\n      pop\n        /* \"#utility.yul\":1737:2211   */\n      swap3\n      pop\n      swap3\n      swap1\n      pop\n      jump\t// out\n        /* \"#utility.yul\":2217:2335   */\n    tag_211:\n        /* \"#utility.yul\":2304:2328   */\n      tag_213\n        /* \"#utility.yul\":2322:2327   */\n      dup2\n        /* \"#utility.yul\":2304:2328   */\n      tag_214\n      jump\t// in\n    tag_213:\n        /* \"#utility.yul\":2299:2302   */\n      dup3\n        /* \"#utility.yul\":2292:2329   */\n      mstore\n        /* \"#utility.yul\":2217:2335   */\n      pop\n      pop\n      jump\t// out\n        /* \"#utility.yul\":2341:2450   */\n    tag_215:\n        /* \"#utility.yul\":2422:2443   */\n      tag_217\n        /* \"#utility.yul\":2437:2442   */\n      dup2\n        /* \"#utility.yul\":2422:2443   */\n      tag_218\n      jump\t// in\n    tag_217:\n        /* \"#utility.yul\":2417:2420   */\n      dup3\n        /* \"#utility.yul\":2410:2444   */\n      mstore\n        /* \"#utility.yul\":2341:2450   */\n      pop\n      pop\n      jump\t// out\n        /* \"#utility.yul\":2456:2820   */\n    tag_219:\n        /* \"#utility.yul\":2544:2547   */\n      0x00\n        /* \"#utility.yul\":2572:2611   */\n      tag_221\n        /* \"#utility.yul\":2605:2610   */\n      dup3\n        /* \"#utility.yul\":2572:2611   */\n      tag_222\n      jump\t// in\n    tag_221:\n        /* \"#utility.yul\":2627:2698   */\n      tag_223\n        /* \"#utility.yul\":2691:2697   */\n      dup2\n        /* \"#utility.yul\":2686:2689   */\n      dup6\n        /* \"#utility.yul\":2627:2698   */\n      tag_224\n      jump\t// in\n    tag_223:\n        /* \"#utility.yul\":2620:2698   */\n      swap4\n      pop\n        /* \"#utility.yul\":2707:2759   */\n      tag_225\n        /* \"#utility.yul\":2752:2758   */\n      dup2\n        /* \"#utility.yul\":2747:2750   */\n      dup6\n        /* \"#utility.yul\":2740:2744   */\n      0x20\n        /* \"#utility.yul\":2733:2738   */\n      dup7\n        /* \"#utility.yul\":2729:2745   */\n      add\n        /* \"#utility.yul\":2707:2759   */\n      tag_226\n      jump\t// in\n    tag_225:\n        /* \"#utility.yul\":2784:2813   */\n      tag_227\n        /* \"#utility.yul\":2806:2812   */\n      dup2\n        /* \"#utility.yul\":2784:2813   */\n      tag_228\n      jump\t// in\n    tag_227:\n        /* \"#utility.yul\":2779:2782   */\n      dup5\n        /* \"#utility.yul\":2775:2814   */\n      add\n        /* \"#utility.yul\":2768:2814   */\n      swap2\n      pop\n        /* \"#utility.yul\":2548:2820   */\n      pop\n        /* \"#utility.yul\":2456:2820   */\n      swap3\n      swap2\n      pop\n      pop\n      jump\t// out\n        /* \"#utility.yul\":2826:3192   */\n    tag_229:\n        /* \"#utility.yul\":2968:2971   */\n      0x00\n        /* \"#utility.yul\":2989:3056   */\n      tag_231\n        /* \"#utility.yul\":3053:3055   */\n      0x23\n        /* \"#utility.yul\":3048:3051   */\n      dup4\n        /* \"#utility.yul\":2989:3056   */\n      tag_224\n      jump\t// in\n    tag_231:\n        /* \"#utility.yul\":2982:3056   */\n      swap2\n      pop\n        /* \"#utility.yul\":3065:3158   */\n      tag_232\n        /* \"#utility.yul\":3154:3157   */\n      dup3\n        /* \"#utility.yul\":3065:3158   */\n      tag_233\n      jump\t// in\n    tag_232:\n        /* \"#utility.yul\":3183:3185   */\n      0x40\n        /* \"#utility.yul\":3178:3181   */\n      dup3\n        /* \"#utility.yul\":3174:3186   */\n      add\n        /* \"#utility.yul\":3167:3186   */\n      swap1\n      pop\n        /* \"#utility.yul\":2826:3192   */\n      swap2\n      swap1\n      pop\n      jump\t// out\n        /* \"#utility.yul\":3198:3564   */\n    tag_234:\n        /* \"#utility.yul\":3340:3343   */\n      0x00\n        /* \"#utility.yul\":3361:3428   */\n      tag_236\n        /* \"#utility.yul\":3425:3427   */\n      0x22\n        /* \"#utility.yul\":3420:3423   */\n      dup4\n        /* \"#utility.yul\":3361:3428   */\n      tag_224\n      jump\t// in\n    tag_236:\n        /* \"#utility.yul\":3354:3428   */\n      swap2\n      pop\n        /* \"#utility.yul\":3437:3530   */\n      tag_237\n        /* \"#utility.yul\":3526:3529   */\n      dup3\n        /* \"#utility.yul\":3437:3530   */\n      tag_238\n      jump\t// in\n    tag_237:\n        /* \"#utility.yul\":3555:3557   */\n      0x40\n        /* \"#utility.yul\":3550:3553   */\n      dup3\n        /* \"#utility.yul\":3546:3558   */\n      add\n        /* \"#utility.yul\":3539:3558   */\n      swap1\n      pop\n        /* \"#utility.yul\":3198:3564   */\n      swap2\n      swap1\n      pop\n      jump\t// out\n        /* \"#utility.yul\":3570:3936   */\n    tag_239:\n        /* \"#utility.yul\":3712:3715   */\n      0x00\n        /* \"#utility.yul\":3733:3800   */\n      tag_241\n        /* \"#utility.yul\":3797:3799   */\n      0x1d\n        /* \"#utility.yul\":3792:3795   */\n      dup4\n        /* \"#utility.yul\":3733:3800   */\n      tag_224\n      jump\t// in\n    tag_241:\n        /* \"#utility.yul\":3726:3800   */\n      swap2\n      pop\n        /* \"#utility.yul\":3809:3902   */\n      tag_242\n        /* \"#utility.yul\":3898:3901   */\n      dup3\n        /* \"#utility.yul\":3809:3902   */\n      tag_243\n      jump\t// in\n    tag_242:\n        /* \"#utility.yul\":3927:3929   */\n      0x20\n        /* \"#utility.yul\":3922:3925   */\n      dup3\n        /* \"#utility.yul\":3918:3930   */\n      add\n        /* \"#utility.yul\":3911:3930   */\n      swap1\n      pop\n        /* \"#utility.yul\":3570:3936   */\n      swap2\n      swap1\n      pop\n      jump\t// out\n        /* \"#utility.yul\":3942:4308   */\n    tag_244:\n        /* \"#utility.yul\":4084:4087   */\n      0x00\n        /* \"#utility.yul\":4105:4172   */\n      tag_246\n        /* \"#utility.yul\":4169:4171   */\n      0x26\n        /* \"#utility.yul\":4164:4167   */\n      dup4\n        /* \"#utility.yul\":4105:4172   */\n      tag_224\n      jump\t// in\n    tag_246:\n        /* \"#utility.yul\":4098:4172   */\n      swap2\n      pop\n        /* \"#utility.yul\":4181:4274   */\n      tag_247\n        /* \"#utility.yul\":4270:4273   */\n      dup3\n        /* \"#utility.yul\":4181:4274   */\n      tag_248\n      jump\t// in\n    tag_247:\n        /* \"#utility.yul\":4299:4301   */\n      0x40\n        /* \"#utility.yul\":4294:4297   */\n      dup3\n        /* \"#utility.yul\":4290:4302   */\n      add\n        /* \"#utility.yul\":4283:4302   */\n      swap1\n      pop\n        /* \"#utility.yul\":3942:4308   */\n      swap2\n      swap1\n      pop\n      jump\t// out\n        /* \"#utility.yul\":4314:4680   */\n    tag_249:\n        /* \"#utility.yul\":4456:4459   */\n      0x00\n        /* \"#utility.yul\":4477:4544   */\n      tag_251\n        /* \"#utility.yul\":4541:4543   */\n      0x25\n        /* \"#utility.yul\":4536:4539   */\n      dup4\n        /* \"#utility.yul\":4477:4544   */\n      tag_224\n      jump\t// in\n    tag_251:\n        /* \"#utility.yul\":4470:4544   */\n      swap2\n      pop\n        /* \"#utility.yul\":4553:4646   */\n      tag_252\n        /* \"#utility.yul\":4642:4645   */\n      dup3\n        /* \"#utility.yul\":4553:4646   */\n      tag_253\n      jump\t// in\n    tag_252:\n        /* \"#utility.yul\":4671:4673   */\n      0x40\n        /* \"#utility.yul\":4666:4669   */\n      dup3\n        /* \"#utility.yul\":4662:4674   */\n      add\n        /* \"#utility.yul\":4655:4674   */\n      swap1\n      pop\n        /* \"#utility.yul\":4314:4680   */\n      swap2\n      swap1\n      pop\n      jump\t// out\n        /* \"#utility.yul\":4686:5052   */\n    tag_254:\n        /* \"#utility.yul\":4828:4831   */\n      0x00\n        /* \"#utility.yul\":4849:4916   */\n      tag_256\n        /* \"#utility.yul\":4913:4915   */\n      0x24\n        /* \"#utility.yul\":4908:4911   */\n      dup4\n        /* \"#utility.yul\":4849:4916   */\n      tag_224\n      jump\t// in\n    tag_256:\n        /* \"#utility.yul\":4842:4916   */\n      swap2\n      pop\n        /* \"#utility.yul\":4925:5018   */\n      tag_257\n        /* \"#utility.yul\":5014:5017   */\n      dup3\n        /* \"#utility.yul\":4925:5018   */\n      tag_258\n      jump\t// in\n    tag_257:\n        /* \"#utility.yul\":5043:5045   */\n      0x40\n        /* \"#utility.yul\":5038:5041   */\n      dup3\n        /* \"#utility.yul\":5034:5046   */\n      add\n        /* \"#utility.yul\":5027:5046   */\n      swap1\n      pop\n        /* \"#utility.yul\":4686:5052   */\n      swap2\n      swap1\n      pop\n      jump\t// out\n        /* \"#utility.yul\":5058:5424   */\n    tag_259:\n        /* \"#utility.yul\":5200:5203   */\n      0x00\n        /* \"#utility.yul\":5221:5288   */\n      tag_261\n        /* \"#utility.yul\":5285:5287   */\n      0x25\n        /* \"#utility.yul\":5280:5283   */\n      dup4\n        /* \"#utility.yul\":5221:5288   */\n      tag_224\n      jump\t// in\n    tag_261:\n        /* \"#utility.yul\":5214:5288   */\n      swap2\n      pop\n        /* \"#utility.yul\":5297:5390   */\n      tag_262\n        /* \"#utility.yul\":5386:5389   */\n      dup3\n        /* \"#utility.yul\":5297:5390   */\n      tag_263\n      jump\t// in\n    tag_262:\n        /* \"#utility.yul\":5415:5417   */\n      0x40\n        /* \"#utility.yul\":5410:5413   */\n      dup3\n        /* \"#utility.yul\":5406:5418   */\n      add\n        /* \"#utility.yul\":5399:5418   */\n      swap1\n      pop\n        /* \"#utility.yul\":5058:5424   */\n      swap2\n      swap1\n      pop\n      jump\t// out\n        /* \"#utility.yul\":5430:5796   */\n    tag_264:\n        /* \"#utility.yul\":5572:5575   */\n      0x00\n        /* \"#utility.yul\":5593:5660   */\n      tag_266\n        /* \"#utility.yul\":5657:5659   */\n      0x1f\n        /* \"#utility.yul\":5652:5655   */\n      dup4\n        /* \"#utility.yul\":5593:5660   */\n      tag_224\n      jump\t// in\n    tag_266:\n        /* \"#utility.yul\":5586:5660   */\n      swap2\n      pop\n        /* \"#utility.yul\":5669:5762   */\n      tag_267\n        /* \"#utility.yul\":5758:5761   */\n      dup3\n        /* \"#utility.yul\":5669:5762   */\n      tag_268\n      jump\t// in\n    tag_267:\n        /* \"#utility.yul\":5787:5789   */\n      0x20\n        /* \"#utility.yul\":5782:5785   */\n      dup3\n        /* \"#utility.yul\":5778:5790   */\n      add\n        /* \"#utility.yul\":5771:5790   */\n      swap1\n      pop\n        /* \"#utility.yul\":5430:5796   */\n      swap2\n      swap1\n      pop\n      jump\t// out\n        /* \"#utility.yul\":5802:5920   */\n    tag_269:\n        /* \"#utility.yul\":5889:5913   */\n      tag_271\n        /* \"#utility.yul\":5907:5912   */\n      dup2\n        /* \"#utility.yul\":5889:5913   */\n      tag_272\n      jump\t// in\n    tag_271:\n        /* \"#utility.yul\":5884:5887   */\n      dup3\n        /* \"#utility.yul\":5877:5914   */\n      mstore\n        /* \"#utility.yul\":5802:5920   */\n      pop\n      pop\n      jump\t// out\n        /* \"#utility.yul\":5926:6038   */\n    tag_273:\n        /* \"#utility.yul\":6009:6031   */\n      tag_275\n        /* \"#utility.yul\":6025:6030   */\n      dup2\n        /* \"#utility.yul\":6009:6031   */\n      tag_276\n      jump\t// in\n    tag_275:\n        /* \"#utility.yul\":6004:6007   */\n      dup3\n        /* \"#utility.yul\":5997:6032   */\n      mstore\n        /* \"#utility.yul\":5926:6038   */\n      pop\n      pop\n      jump\t// out\n        /* \"#utility.yul\":6044:6266   */\n    tag_83:\n        /* \"#utility.yul\":6137:6141   */\n      0x00\n        /* \"#utility.yul\":6175:6177   */\n      0x20\n        /* \"#utility.yul\":6164:6173   */\n      dup3\n        /* \"#utility.yul\":6160:6178   */\n      add\n        /* \"#utility.yul\":6152:6178   */\n      swap1\n      pop\n        /* \"#utility.yul\":6188:6259   */\n      tag_278\n        /* \"#utility.yul\":6256:6257   */\n      0x00\n        /* \"#utility.yul\":6245:6254   */\n      dup4\n        /* \"#utility.yul\":6241:6258   */\n      add\n        /* \"#utility.yul\":6232:6238   */\n      dup5\n        /* \"#utility.yul\":6188:6259   */\n      tag_211\n      jump\t// in\n    tag_278:\n        /* \"#utility.yul\":6044:6266   */\n      swap3\n      swap2\n      pop\n      pop\n      jump\t// out\n        /* \"#utility.yul\":6272:6482   */\n    tag_28:\n        /* \"#utility.yul\":6359:6363   */\n      0x00\n        /* \"#utility.yul\":6397:6399   */\n      0x20\n        /* \"#utility.yul\":6386:6395   */\n      dup3\n        /* \"#utility.yul\":6382:6400   */\n      add\n        /* \"#utility.yul\":6374:6400   */\n      swap1\n      pop\n        /* \"#utility.yul\":6410:6475   */\n      tag_280\n        /* \"#utility.yul\":6472:6473   */\n      0x00\n        /* \"#utility.yul\":6461:6470   */\n      dup4\n        /* \"#utility.yul\":6457:6474   */\n      add\n        /* \"#utility.yul\":6448:6454   */\n      dup5\n        /* \"#utility.yul\":6410:6475   */\n      tag_215\n      jump\t// in\n    tag_280:\n        /* \"#utility.yul\":6272:6482   */\n      swap3\n      swap2\n      pop\n      pop\n      jump\t// out\n        /* \"#utility.yul\":6488:6801   */\n    tag_21:\n        /* \"#utility.yul\":6601:6605   */\n      0x00\n        /* \"#utility.yul\":6639:6641   */\n      0x20\n        /* \"#utility.yul\":6628:6637   */\n      dup3\n        /* \"#utility.yul\":6624:6642   */\n      add\n        /* \"#utility.yul\":6616:6642   */\n      swap1\n      pop\n        /* \"#utility.yul\":6688:6697   */\n      dup2\n        /* \"#utility.yul\":6682:6686   */\n      dup2\n        /* \"#utility.yul\":6678:6698   */\n      sub\n        /* \"#utility.yul\":6674:6675   */\n      0x00\n        /* \"#utility.yul\":6663:6672   */\n      dup4\n        /* \"#utility.yul\":6659:6676   */\n      add\n        /* \"#utility.yul\":6652:6699   */\n      mstore\n        /* \"#utility.yul\":6716:6794   */\n      tag_282\n        /* \"#utility.yul\":6789:6793   */\n      dup2\n        /* \"#utility.yul\":6780:6786   */\n      dup5\n        /* \"#utility.yul\":6716:6794   */\n      tag_219\n      jump\t// in\n    tag_282:\n        /* \"#utility.yul\":6708:6794   */\n      swap1\n      pop\n        /* \"#utility.yul\":6488:6801   */\n      swap3\n      swap2\n      pop\n      pop\n      jump\t// out\n        /* \"#utility.yul\":6807:7226   */\n    tag_160:\n        /* \"#utility.yul\":6973:6977   */\n      0x00\n        /* \"#utility.yul\":7011:7013   */\n      0x20\n        /* \"#utility.yul\":7000:7009   */\n      dup3\n        /* \"#utility.yul\":6996:7014   */\n      add\n        /* \"#utility.yul\":6988:7014   */\n      swap1\n      pop\n        /* \"#utility.yul\":7060:7069   */\n      dup2\n        /* \"#utility.yul\":7054:7058   */\n      dup2\n        /* \"#utility.yul\":7050:7070   */\n      sub\n        /* \"#utility.yul\":7046:7047   */\n      0x00\n        /* \"#utility.yul\":7035:7044   */\n      dup4\n        /* \"#utility.yul\":7031:7048   */\n      add\n        /* \"#utility.yul\":7024:7071   */\n      mstore\n        /* \"#utility.yul\":7088:7219   */\n      tag_284\n        /* \"#utility.yul\":7214:7218   */\n      dup2\n        /* \"#utility.yul\":7088:7219   */\n      tag_229\n      jump\t// in\n    tag_284:\n        /* \"#utility.yul\":7080:7219   */\n      swap1\n      pop\n        /* \"#utility.yul\":6807:7226   */\n      swap2\n      swap1\n      pop\n      jump\t// out\n        /* \"#utility.yul\":7232:7651   */\n    tag_145:\n        /* \"#utility.yul\":7398:7402   */\n      0x00\n        /* \"#utility.yul\":7436:7438   */\n      0x20\n        /* \"#utility.yul\":7425:7434   */\n      dup3\n        /* \"#utility.yul\":7421:7439   */\n      add\n        /* \"#utility.yul\":7413:7439   */\n      swap1\n      pop\n        /* \"#utility.yul\":7485:7494   */\n      dup2\n        /* \"#utility.yul\":7479:7483   */\n      dup2\n        /* \"#utility.yul\":7475:7495   */\n      sub\n        /* \"#utility.yul\":7471:7472   */\n      0x00\n        /* \"#utility.yul\":7460:7469   */\n      dup4\n        /* \"#utility.yul\":7456:7473   */\n      add\n        /* \"#utility.yul\":7449:7496   */\n      mstore\n        /* \"#utility.yul\":7513:7644   */\n      tag_286\n        /* \"#utility.yul\":7639:7643   */\n      dup2\n        /* \"#utility.yul\":7513:7644   */\n      tag_234\n      jump\t// in\n    tag_286:\n        /* \"#utility.yul\":7505:7644   */\n      swap1\n      pop\n        /* \"#utility.yul\":7232:7651   */\n      swap2\n      swap1\n      pop\n      jump\t// out\n        /* \"#utility.yul\":7657:8076   */\n    tag_152:\n        /* \"#utility.yul\":7823:7827   */\n      0x00\n        /* \"#utility.yul\":7861:7863   */\n      0x20\n        /* \"#utility.yul\":7850:7859   */\n      dup3\n        /* \"#utility.yul\":7846:7864   */\n      add\n        /* \"#utility.yul\":7838:7864   */\n      swap1\n      pop\n        /* \"#utility.yul\":7910:7919   */\n      dup2\n        /* \"#utility.yul\":7904:7908   */\n      dup2\n        /* \"#utility.yul\":7900:7920   */\n      sub\n        /* \"#utility.yul\":7896:7897   */\n      0x00\n        /* \"#utility.yul\":7885:7894   */\n      dup4\n        /* \"#utility.yul\":7881:7898   */\n      add\n        /* \"#utility.yul\":7874:7921   */\n      mstore\n        /* \"#utility.yul\":7938:8069   */\n      tag_288\n        /* \"#utility.yul\":8064:8068   */\n      dup2\n        /* \"#utility.yul\":7938:8069   */\n      tag_239\n      jump\t// in\n    tag_288:\n        /* \"#utility.yul\":7930:8069   */\n      swap1\n      pop\n        /* \"#utility.yul\":7657:8076   */\n      swap2\n      swap1\n      pop\n      jump\t// out\n        /* \"#utility.yul\":8082:8501   */\n    tag_165:\n        /* \"#utility.yul\":8248:8252   */\n      0x00\n        /* \"#utility.yul\":8286:8288   */\n      0x20\n        /* \"#utility.yul\":8275:8284   */\n      dup3\n        /* \"#utility.yul\":8271:8289   */\n      add\n        /* \"#utility.yul\":8263:8289   */\n      swap1\n      pop\n        /* \"#utility.yul\":8335:8344   */\n      dup2\n        /* \"#utility.yul\":8329:8333   */\n      dup2\n        /* \"#utility.yul\":8325:8345   */\n      sub\n        /* \"#utility.yul\":8321:8322   */\n      0x00\n        /* \"#utility.yul\":8310:8319   */\n      dup4\n        /* \"#utility.yul\":8306:8323   */\n      add\n        /* \"#utility.yul\":8299:8346   */\n      mstore\n        /* \"#utility.yul\":8363:8494   */\n      tag_290\n        /* \"#utility.yul\":8489:8493   */\n      dup2\n        /* \"#utility.yul\":8363:8494   */\n      tag_244\n      jump\t// in\n    tag_290:\n        /* \"#utility.yul\":8355:8494   */\n      swap1\n      pop\n        /* \"#utility.yul\":8082:8501   */\n      swap2\n      swap1\n      pop\n      jump\t// out\n        /* \"#utility.yul\":8507:8926   */\n    tag_157:\n        /* \"#utility.yul\":8673:8677   */\n      0x00\n        /* \"#utility.yul\":8711:8713   */\n      0x20\n        /* \"#utility.yul\":8700:8709   */\n      dup3\n        /* \"#utility.yul\":8696:8714   */\n      add\n        /* \"#utility.yul\":8688:8714   */\n      swap1\n      pop\n        /* \"#utility.yul\":8760:8769   */\n      dup2\n        /* \"#utility.yul\":8754:8758   */\n      dup2\n        /* \"#utility.yul\":8750:8770   */\n      sub\n        /* \"#utility.yul\":8746:8747   */\n      0x00\n        /* \"#utility.yul\":8735:8744   */\n      dup4\n        /* \"#utility.yul\":8731:8748   */\n      add\n        /* \"#utility.yul\":8724:8771   */\n      mstore\n        /* \"#utility.yul\":8788:8919   */\n      tag_292\n        /* \"#utility.yul\":8914:8918   */\n      dup2\n        /* \"#utility.yul\":8788:8919   */\n      tag_249\n      jump\t// in\n    tag_292:\n        /* \"#utility.yul\":8780:8919   */\n      swap1\n      pop\n        /* \"#utility.yul\":8507:8926   */\n      swap2\n      swap1\n      pop\n      jump\t// out\n        /* \"#utility.yul\":8932:9351   */\n    tag_142:\n        /* \"#utility.yul\":9098:9102   */\n      0x00\n        /* \"#utility.yul\":9136:9138   */\n      0x20\n        /* \"#utility.yul\":9125:9134   */\n      dup3\n        /* \"#utility.yul\":9121:9139   */\n      add\n        /* \"#utility.yul\":9113:9139   */\n      swap1\n      pop\n        /* \"#utility.yul\":9185:9194   */\n      dup2\n        /* \"#utility.yul\":9179:9183   */\n      dup2\n        /* \"#utility.yul\":9175:9195   */\n      sub\n        /* \"#utility.yul\":9171:9172   */\n      0x00\n        /* \"#utility.yul\":9160:9169   */\n      dup4\n        /* \"#utility.yul\":9156:9173   */\n      add\n        /* \"#utility.yul\":9149:9196   */\n      mstore\n        /* \"#utility.yul\":9213:9344   */\n      tag_294\n        /* \"#utility.yul\":9339:9343   */\n      dup2\n        /* \"#utility.yul\":9213:9344   */\n      tag_254\n      jump\t// in\n    tag_294:\n        /* \"#utility.yul\":9205:9344   */\n      swap1\n      pop\n        /* \"#utility.yul\":8932:9351   */\n      swap2\n      swap1\n      pop\n      jump\t// out\n        /* \"#utility.yul\":9357:9776   */\n    tag_132:\n        /* \"#utility.yul\":9523:9527   */\n      0x00\n        /* \"#utility.yul\":9561:9563   */\n      0x20\n        /* \"#utility.yul\":9550:9559   */\n      dup3\n        /* \"#utility.yul\":9546:9564   */\n      add\n        /* \"#utility.yul\":9538:9564   */\n      swap1\n      pop\n        /* \"#utility.yul\":9610:9619   */\n      dup2\n        /* \"#utility.yul\":9604:9608   */\n      dup2\n        /* \"#utility.yul\":9600:9620   */\n      sub\n        /* \"#utility.yul\":9596:9597   */\n      0x00\n        /* \"#utility.yul\":9585:9594   */\n      dup4\n        /* \"#utility.yul\":9581:9598   */\n      add\n        /* \"#utility.yul\":9574:9621   */\n      mstore\n        /* \"#utility.yul\":9638:9769   */\n      tag_296\n        /* \"#utility.yul\":9764:9768   */\n      dup2\n        /* \"#utility.yul\":9638:9769   */\n      tag_259\n      jump\t// in\n    tag_296:\n        /* \"#utility.yul\":9630:9769   */\n      swap1\n      pop\n        /* \"#utility.yul\":9357:9776   */\n      swap2\n      swap1\n      pop\n      jump\t// out\n        /* \"#utility.yul\":9782:10201   */\n    tag_173:\n        /* \"#utility.yul\":9948:9952   */\n      0x00\n        /* \"#utility.yul\":9986:9988   */\n      0x20\n        /* \"#utility.yul\":9975:9984   */\n      dup3\n        /* \"#utility.yul\":9971:9989   */\n      add\n        /* \"#utility.yul\":9963:9989   */\n      swap1\n      pop\n        /* \"#utility.yul\":10035:10044   */\n      dup2\n        /* \"#utility.yul\":10029:10033   */\n      dup2\n        /* \"#utility.yul\":10025:10045   */\n      sub\n        /* \"#utility.yul\":10021:10022   */\n      0x00\n        /* \"#utility.yul\":10010:10019   */\n      dup4\n        /* \"#utility.yul\":10006:10023   */\n      add\n        /* \"#utility.yul\":9999:10046   */\n      mstore\n        /* \"#utility.yul\":10063:10194   */\n      tag_298\n        /* \"#utility.yul\":10189:10193   */\n      dup2\n        /* \"#utility.yul\":10063:10194   */\n      tag_264\n      jump\t// in\n    tag_298:\n        /* \"#utility.yul\":10055:10194   */\n      swap1\n      pop\n        /* \"#utility.yul\":9782:10201   */\n      swap2\n      swap1\n      pop\n      jump\t// out\n        /* \"#utility.yul\":10207:10429   */\n    tag_33:\n        /* \"#utility.yul\":10300:10304   */\n      0x00\n        /* \"#utility.yul\":10338:10340   */\n      0x20\n        /* \"#utility.yul\":10327:10336   */\n      dup3\n        /* \"#utility.yul\":10323:10341   */\n      add\n        /* \"#utility.yul\":10315:10341   */\n      swap1\n      pop\n        /* \"#utility.yul\":10351:10422   */\n      tag_300\n        /* \"#utility.yul\":10419:10420   */\n      0x00\n        /* \"#utility.yul\":10408:10417   */\n      dup4\n        /* \"#utility.yul\":10404:10421   */\n      add\n        /* \"#utility.yul\":10395:10401   */\n      dup5\n        /* \"#utility.yul\":10351:10422   */\n      tag_269\n      jump\t// in\n    tag_300:\n        /* \"#utility.yul\":10207:10429   */\n      swap3\n      swap2\n      pop\n      pop\n      jump\t// out\n        /* \"#utility.yul\":10435:10649   */\n    tag_44:\n        /* \"#utility.yul\":10524:10528   */\n      0x00\n        /* \"#utility.yul\":10562:10564   */\n      0x20\n        /* \"#utility.yul\":10551:10560   */\n      dup3\n        /* \"#utility.yul\":10547:10565   */\n      add\n        /* \"#utility.yul\":10539:10565   */\n      swap1\n      pop\n        /* \"#utility.yul\":10575:10642   */\n      tag_302\n        /* \"#utility.yul\":10639:10640   */\n      0x00\n        /* \"#utility.yul\":10628:10637   */\n      dup4\n        /* \"#utility.yul\":10624:10641   */\n      add\n        /* \"#utility.yul\":10615:10621   */\n      dup5\n        /* \"#utility.yul\":10575:10642   */\n      tag_273\n      jump\t// in\n    tag_302:\n        /* \"#utility.yul\":10435:10649   */\n      swap3\n      swap2\n      pop\n      pop\n      jump\t// out\n        /* \"#utility.yul\":10736:10835   */\n    tag_222:\n        /* \"#utility.yul\":10788:10794   */\n      0x00\n        /* \"#utility.yul\":10822:10827   */\n      dup2\n        /* \"#utility.yul\":10816:10828   */\n      mload\n        /* \"#utility.yul\":10806:10828   */\n      swap1\n      pop\n        /* \"#utility.yul\":10736:10835   */\n      swap2\n      swap1\n      pop\n      jump\t// out\n        /* \"#utility.yul\":10841:11010   */\n    tag_224:\n        /* \"#utility.yul\":10925:10936   */\n      0x00\n        /* \"#utility.yul\":10959:10965   */\n      dup3\n        /* \"#utility.yul\":10954:10957   */\n      dup3\n        /* \"#utility.yul\":10947:10966   */\n      mstore\n        /* \"#utility.yul\":10999:11003   */\n      0x20\n        /* \"#utility.yul\":10994:10997   */\n      dup3\n        /* \"#utility.yul\":10990:11004   */\n      add\n        /* \"#utility.yul\":10975:11004   */\n      swap1\n      pop\n        /* \"#utility.yul\":10841:11010   */\n      swap3\n      swap2\n      pop\n      pop\n      jump\t// out\n        /* \"#utility.yul\":11016:11321   */\n    tag_109:\n        /* \"#utility.yul\":11056:11059   */\n      0x00\n        /* \"#utility.yul\":11075:11095   */\n      tag_308\n        /* \"#utility.yul\":11093:11094   */\n      dup3\n        /* \"#utility.yul\":11075:11095   */\n      tag_272\n      jump\t// in\n    tag_308:\n        /* \"#utility.yul\":11070:11095   */\n      swap2\n      pop\n        /* \"#utility.yul\":11109:11129   */\n      tag_309\n        /* \"#utility.yul\":11127:11128   */\n      dup4\n        /* \"#utility.yul\":11109:11129   */\n      tag_272\n      jump\t// in\n    tag_309:\n        /* \"#utility.yul\":11104:11129   */\n      swap3\n      pop\n        /* \"#utility.yul\":11263:11264   */\n      dup3\n        /* \"#utility.yul\":11195:11261   */\n      0xffffffffffffffffffffffffffffffffffffffffffffffffffffffffffffffff\n        /* \"#utility.yul\":11191:11265   */\n      sub\n        /* \"#utility.yul\":11188:11189   */\n      dup3\n        /* \"#utility.yul\":11185:11266   */\n      gt\n        /* \"#utility.yul\":11182:11289   */\n      iszero\n      tag_310\n      jumpi\n        /* \"#utility.yul\":11269:11287   */\n      tag_311\n      tag_312\n      jump\t// in\n    tag_311:\n        /* \"#utility.yul\":11182:11289   */\n    tag_310:\n        /* \"#utility.yul\":11313:11314   */\n      dup3\n        /* \"#utility.yul\":11310:11311   */\n      dup3\n        /* \"#utility.yul\":11306:11315   */\n      add\n        /* \"#utility.yul\":11299:11315   */\n      swap1\n      pop\n        /* \"#utility.yul\":11016:11321   */\n      swap3\n      swap2\n      pop\n      pop\n      jump\t// out\n        /* \"#utility.yul\":11327:11512   */\n    tag_118:\n        /* \"#utility.yul\":11367:11368   */\n      0x00\n        /* \"#utility.yul\":11384:11404   */\n      tag_314\n        /* \"#utility.yul\":11402:11403   */\n      dup3\n        /* \"#utility.yul\":11384:11404   */\n      tag_272\n      jump\t// in\n    tag_314:\n        /* \"#utility.yul\":11379:11404   */\n      swap2\n      pop\n        /* \"#utility.yul\":11418:11438   */\n      tag_315\n        /* \"#utility.yul\":11436:11437   */\n      dup4\n        /* \"#utility.yul\":11418:11438   */\n      tag_272\n      jump\t// in\n    tag_315:\n        /* \"#utility.yul\":11413:11438   */\n      swap3\n      pop\n        /* \"#utility.yul\":11457:11458   */\n      dup3\n        /* \"#utility.yul\":11447:11482   */\n      tag_316\n      jumpi\n        /* \"#utility.yul\":11462:11480   */\n      tag_317\n      tag_318\n      jump\t// in\n    tag_317:\n        /* \"#utility.yul\":11447:11482   */\n    tag_316:\n        /* \"#utility.yul\":11504:11505   */\n      dup3\n        /* \"#utility.yul\":11501:11502   */\n      dup3\n        /* \"#utility.yul\":11497:11506   */\n      div\n        /* \"#utility.yul\":11492:11506   */\n      swap1\n      pop\n        /* \"#utility.yul\":11327:11512   */\n      swap3\n      swap2\n      pop\n      pop\n      jump\t// out\n        /* \"#utility.yul\":11518:12366   */\n    tag_319:\n        /* \"#utility.yul\":11579:11584   */\n      0x00\n        /* \"#utility.yul\":11586:11590   */\n      dup1\n        /* \"#utility.yul\":11610:11616   */\n      dup3\n        /* \"#utility.yul\":11601:11616   */\n      swap2\n      pop\n        /* \"#utility.yul\":11634:11639   */\n      dup4\n        /* \"#utility.yul\":11625:11639   */\n      swap1\n      pop\n        /* \"#utility.yul\":11648:12360   */\n    tag_321:\n        /* \"#utility.yul\":11669:11670   */\n      0x01\n        /* \"#utility.yul\":11659:11667   */\n      dup6\n        /* \"#utility.yul\":11656:11671   */\n      gt\n        /* \"#utility.yul\":11648:12360   */\n      iszero\n      tag_323\n      jumpi\n        /* \"#utility.yul\":11764:11768   */\n      dup1\n        /* \"#utility.yul\":11759:11762   */\n      dup7\n        /* \"#utility.yul\":11755:11769   */\n      div\n        /* \"#utility.yul\":11749:11753   */\n      dup2\n        /* \"#utility.yul\":11746:11770   */\n      gt\n        /* \"#utility.yul\":11743:11793   */\n      iszero\n      tag_324\n      jumpi\n        /* \"#utility.yul\":11773:11791   */\n      tag_325\n      tag_312\n      jump\t// in\n    tag_325:\n        /* \"#utility.yul\":11743:11793   */\n    tag_324:\n        /* \"#utility.yul\":11823:11824   */\n      0x01\n        /* \"#utility.yul\":11813:11821   */\n      dup6\n        /* \"#utility.yul\":11809:11825   */\n      and\n        /* \"#utility.yul\":11806:12257   */\n      iszero\n      tag_326\n      jumpi\n        /* \"#utility.yul\":12238:12242   */\n      dup1\n        /* \"#utility.yul\":12231:12236   */\n      dup3\n        /* \"#utility.yul\":12227:12243   */\n      mul\n        /* \"#utility.yul\":12218:12243   */\n      swap2\n      pop\n        /* \"#utility.yul\":11806:12257   */\n    tag_326:\n        /* \"#utility.yul\":12288:12292   */\n      dup1\n        /* \"#utility.yul\":12282:12286   */\n      dup2\n        /* \"#utility.yul\":12278:12293   */\n      mul\n        /* \"#utility.yul\":12270:12293   */\n      swap1\n      pop\n        /* \"#utility.yul\":12318:12350   */\n      tag_327\n        /* \"#utility.yul\":12341:12349   */\n      dup6\n        /* \"#utility.yul\":12318:12350   */\n      tag_328\n      jump\t// in\n    tag_327:\n        /* \"#utility.yul\":12306:12350   */\n      swap5\n      pop\n        /* \"#utility.yul\":11648:12360   */\n      jump(tag_321)\n    tag_323:\n        /* \"#utility.yul\":11518:12366   */\n      swap5\n      pop\n      swap5\n      swap3\n      pop\n      pop\n      pop\n      jump\t// out\n        /* \"#utility.yul\":12372:12653   */\n    tag_114:\n        /* \"#utility.yul\":12430:12435   */\n      0x00\n        /* \"#utility.yul\":12454:12477   */\n      tag_330\n        /* \"#utility.yul\":12472:12476   */\n      dup3\n        /* \"#utility.yul\":12454:12477   */\n      tag_272\n      jump\t// in\n    tag_330:\n        /* \"#utility.yul\":12446:12477   */\n      swap2\n      pop\n        /* \"#utility.yul\":12498:12523   */\n      tag_331\n        /* \"#utility.yul\":12514:12522   */\n      dup4\n        /* \"#utility.yul\":12498:12523   */\n      tag_276\n      jump\t// in\n    tag_331:\n        /* \"#utility.yul\":12486:12523   */\n      swap3\n      pop\n        /* \"#utility.yul\":12542:12646   */\n      tag_332\n        /* \"#utility.yul\":12579:12645   */\n      0xffffffffffffffffffffffffffffffffffffffffffffffffffffffffffffffff\n        /* \"#utility.yul\":12569:12577   */\n      dup5\n        /* \"#utility.yul\":12563:12567   */\n      dup5\n        /* \"#utility.yul\":12542:12646   */\n      tag_333\n      jump\t// in\n    tag_332:\n        /* \"#utility.yul\":12533:12646   */\n      swap1\n      pop\n        /* \"#utility.yul\":12372:12653   */\n      swap3\n      swap2\n      pop\n      pop\n      jump\t// out\n        /* \"#utility.yul\":12659:13732   */\n    tag_333:\n        /* \"#utility.yul\":12713:12718   */\n      0x00\n        /* \"#utility.yul\":12904:12912   */\n      dup3\n        /* \"#utility.yul\":12894:12934   */\n      tag_335\n      jumpi\n        /* \"#utility.yul\":12925:12926   */\n      0x01\n        /* \"#utility.yul\":12916:12926   */\n      swap1\n      pop\n        /* \"#utility.yul\":12927:12932   */\n      jump(tag_334)\n        /* \"#utility.yul\":12894:12934   */\n    tag_335:\n        /* \"#utility.yul\":12953:12957   */\n      dup2\n        /* \"#utility.yul\":12943:12979   */\n      tag_336\n      jumpi\n        /* \"#utility.yul\":12970:12971   */\n      0x00\n        /* \"#utility.yul\":12961:12971   */\n      swap1\n      pop\n        /* \"#utility.yul\":12972:12977   */\n      jump(tag_334)\n        /* \"#utility.yul\":12943:12979   */\n    tag_336:\n        /* \"#utility.yul\":13039:13043   */\n      dup2\n        /* \"#utility.yul\":13087:13088   */\n      0x01\n        /* \"#utility.yul\":13082:13109   */\n      dup2\n      eq\n      tag_338\n      jumpi\n        /* \"#utility.yul\":13123:13124   */\n      0x02\n        /* \"#utility.yul\":13118:13309   */\n      dup2\n      eq\n      tag_339\n      jumpi\n        /* \"#utility.yul\":13032:13309   */\n      jump(tag_337)\n        /* \"#utility.yul\":13082:13109   */\n    tag_338:\n        /* \"#utility.yul\":13100:13101   */\n      0x01\n        /* \"#utility.yul\":13091:13101   */\n      swap2\n      pop\n        /* \"#utility.yul\":13102:13107   */\n      pop\n      jump(tag_334)\n        /* \"#utility.yul\":13118:13309   */\n    tag_339:\n        /* \"#utility.yul\":13163:13166   */\n      0xff\n        /* \"#utility.yul\":13153:13161   */\n      dup5\n        /* \"#utility.yul\":13150:13167   */\n      gt\n        /* \"#utility.yul\":13147:13190   */\n      iszero\n      tag_340\n      jumpi\n        /* \"#utility.yul\":13170:13188   */\n      tag_341\n      tag_312\n      jump\t// in\n    tag_341:\n        /* \"#utility.yul\":13147:13190   */\n    tag_340:\n        /* \"#utility.yul\":13219:13227   */\n      dup4\n        /* \"#utility.yul\":13216:13217   */\n      0x02\n        /* \"#utility.yul\":13212:13228   */\n      exp\n        /* \"#utility.yul\":13203:13228   */\n      swap2\n      pop\n        /* \"#utility.yul\":13254:13257   */\n      dup5\n        /* \"#utility.yul\":13247:13252   */\n      dup3\n        /* \"#utility.yul\":13244:13258   */\n      gt\n        /* \"#utility.yul\":13241:13281   */\n      iszero\n      tag_342\n      jumpi\n        /* \"#utility.yul\":13261:13279   */\n      tag_343\n      tag_312\n      jump\t// in\n    tag_343:\n        /* \"#utility.yul\":13241:13281   */\n    tag_342:\n        /* \"#utility.yul\":13294:13299   */\n      pop\n      jump(tag_334)\n        /* \"#utility.yul\":13032:13309   */\n    tag_337:\n      pop\n        /* \"#utility.yul\":13418:13420   */\n      0x20\n        /* \"#utility.yul\":13408:13416   */\n      dup4\n        /* \"#utility.yul\":13405:13421   */\n      lt\n        /* \"#utility.yul\":13399:13402   */\n      0x0133\n        /* \"#utility.yul\":13393:13397   */\n      dup4\n        /* \"#utility.yul\":13390:13403   */\n      lt\n        /* \"#utility.yul\":13386:13422   */\n      and\n        /* \"#utility.yul\":13368:13370   */\n      0x4e\n        /* \"#utility.yul\":13358:13366   */\n      dup5\n        /* \"#utility.yul\":13355:13371   */\n      lt\n        /* \"#utility.yul\":13350:13352   */\n      0x0b\n        /* \"#utility.yul\":13344:13348   */\n      dup5\n        /* \"#utility.yul\":13341:13353   */\n      lt\n        /* \"#utility.yul\":13337:13372   */\n      and\n        /* \"#utility.yul\":13321:13432   */\n      or\n        /* \"#utility.yul\":13318:13564   */\n      iszero\n      tag_344\n      jumpi\n        /* \"#utility.yul\":13474:13482   */\n      dup3\n        /* \"#utility.yul\":13468:13472   */\n      dup3\n        /* \"#utility.yul\":13464:13483   */\n      exp\n        /* \"#utility.yul\":13455:13483   */\n      swap1\n      pop\n        /* \"#utility.yul\":13509:13512   */\n      dup4\n        /* \"#utility.yul\":13502:13507   */\n      dup2\n        /* \"#utility.yul\":13499:13513   */\n      gt\n        /* \"#utility.yul\":13496:13536   */\n      iszero\n      tag_345\n      jumpi\n        /* \"#utility.yul\":13516:13534   */\n      tag_346\n      tag_312\n      jump\t// in\n    tag_346:\n        /* \"#utility.yul\":13496:13536   */\n    tag_345:\n        /* \"#utility.yul\":13549:13554   */\n      jump(tag_334)\n        /* \"#utility.yul\":13318:13564   */\n    tag_344:\n        /* \"#utility.yul\":13589:13631   */\n      tag_347\n        /* \"#utility.yul\":13627:13630   */\n      dup5\n        /* \"#utility.yul\":13617:13625   */\n      dup5\n        /* \"#utility.yul\":13611:13615   */\n      dup5\n        /* \"#utility.yul\":13608:13609   */\n      0x01\n        /* \"#utility.yul\":13589:13631   */\n      tag_319\n      jump\t// in\n    tag_347:\n        /* \"#utility.yul\":13574:13631   */\n      swap3\n      pop\n      swap1\n      pop\n        /* \"#utility.yul\":13663:13667   */\n      dup2\n        /* \"#utility.yul\":13658:13661   */\n      dup5\n        /* \"#utility.yul\":13654:13668   */\n      div\n        /* \"#utility.yul\":13647:13652   */\n      dup2\n        /* \"#utility.yul\":13644:13669   */\n      gt\n        /* \"#utility.yul\":13641:13692   */\n      iszero\n      tag_348\n      jumpi\n        /* \"#utility.yul\":13672:13690   */\n      tag_349\n      tag_312\n      jump\t// in\n    tag_349:\n        /* \"#utility.yul\":13641:13692   */\n    tag_348:\n        /* \"#utility.yul\":13721:13725   */\n      dup2\n        /* \"#utility.yul\":13714:13719   */\n      dup2\n        /* \"#utility.yul\":13710:13726   */\n      mul\n        /* \"#utility.yul\":13701:13726   */\n      swap1\n      pop\n        /* \"#utility.yul\":12659:13732   */\n    tag_334:\n      swap4\n      swap3\n      pop\n      pop\n      pop\n      jump\t// out\n        /* \"#utility.yul\":13738:14086   */\n    tag_116:\n        /* \"#utility.yul\":13778:13785   */\n      0x00\n        /* \"#utility.yul\":13801:13821   */\n      tag_351\n        /* \"#utility.yul\":13819:13820   */\n      dup3\n        /* \"#utility.yul\":13801:13821   */\n      tag_272\n      jump\t// in\n    tag_351:\n        /* \"#utility.yul\":13796:13821   */\n      swap2\n      pop\n        /* \"#utility.yul\":13835:13855   */\n      tag_352\n        /* \"#utility.yul\":13853:13854   */\n      dup4\n        /* \"#utility.yul\":13835:13855   */\n      tag_272\n      jump\t// in\n    tag_352:\n        /* \"#utility.yul\":13830:13855   */\n      swap3\n      pop\n        /* \"#utility.yul\":14023:14024   */\n      dup2\n        /* \"#utility.yul\":13955:14021   */\n      0xffffffffffffffffffffffffffffffffffffffffffffffffffffffffffffffff\n        /* \"#utility.yul\":13951:14025   */\n      div\n        /* \"#utility.yul\":13948:13949   */\n      dup4\n        /* \"#utility.yul\":13945:14026   */\n      gt\n        /* \"#utility.yul\":13940:13941   */\n      dup3\n        /* \"#utility.yul\":13933:13942   */\n      iszero\n        /* \"#utility.yul\":13926:13943   */\n      iszero\n        /* \"#utility.yul\":13922:14027   */\n      and\n        /* \"#utility.yul\":13919:14050   */\n      iszero\n      tag_353\n      jumpi\n        /* \"#utility.yul\":14030:14048   */\n      tag_354\n      tag_312\n      jump\t// in\n    tag_354:\n        /* \"#utility.yul\":13919:14050   */\n    tag_353:\n        /* \"#utility.yul\":14078:14079   */\n      dup3\n        /* \"#utility.yul\":14075:14076   */\n      dup3\n        /* \"#utility.yul\":14071:14080   */\n      mul\n        /* \"#utility.yul\":14060:14080   */\n      swap1\n      pop\n        /* \"#utility.yul\":13738:14086   */\n      swap3\n      swap2\n      pop\n      pop\n      jump\t// out\n        /* \"#utility.yul\":14092:14188   */\n    tag_214:\n        /* \"#utility.yul\":14129:14136   */\n      0x00\n        /* \"#utility.yul\":14158:14182   */\n      tag_356\n        /* \"#utility.yul\":14176:14181   */\n      dup3\n        /* \"#utility.yul\":14158:14182   */\n      tag_357\n      jump\t// in\n    tag_356:\n        /* \"#utility.yul\":14147:14182   */\n      swap1\n      pop\n        /* \"#utility.yul\":14092:14188   */\n      swap2\n      swap1\n      pop\n      jump\t// out\n        /* \"#utility.yul\":14194:14284   */\n    tag_218:\n        /* \"#utility.yul\":14228:14235   */\n      0x00\n        /* \"#utility.yul\":14271:14276   */\n      dup2\n        /* \"#utility.yul\":14264:14277   */\n      iszero\n        /* \"#utility.yul\":14257:14278   */\n      iszero\n        /* \"#utility.yul\":14246:14278   */\n      swap1\n      pop\n        /* \"#utility.yul\":14194:14284   */\n      swap2\n      swap1\n      pop\n      jump\t// out\n        /* \"#utility.yul\":14290:14416   */\n    tag_357:\n        /* \"#utility.yul\":14327:14334   */\n      0x00\n        /* \"#utility.yul\":14367:14409   */\n      0xffffffffffffffffffffffffffffffffffffffff\n        /* \"#utility.yul\":14360:14365   */\n      dup3\n        /* \"#utility.yul\":14356:14410   */\n      and\n        /* \"#utility.yul\":14345:14410   */\n      swap1\n      pop\n        /* \"#utility.yul\":14290:14416   */\n      swap2\n      swap1\n      pop\n      jump\t// out\n        /* \"#utility.yul\":14422:14499   */\n    tag_272:\n        /* \"#utility.yul\":14459:14466   */\n      0x00\n        /* \"#utility.yul\":14488:14493   */\n      dup2\n        /* \"#utility.yul\":14477:14493   */\n      swap1\n      pop\n        /* \"#utility.yul\":14422:14499   */\n      swap2\n      swap1\n      pop\n      jump\t// out\n        /* \"#utility.yul\":14505:14591   */\n    tag_276:\n        /* \"#utility.yul\":14540:14547   */\n      0x00\n        /* \"#utility.yul\":14580:14584   */\n      0xff\n        /* \"#utility.yul\":14573:14578   */\n      dup3\n        /* \"#utility.yul\":14569:14585   */\n      and\n        /* \"#utility.yul\":14558:14585   */\n      swap1\n      pop\n        /* \"#utility.yul\":14505:14591   */\n      swap2\n      swap1\n      pop\n      jump\t// out\n        /* \"#utility.yul\":14597:14904   */\n    tag_226:\n        /* \"#utility.yul\":14665:14666   */\n      0x00\n        /* \"#utility.yul\":14675:14788   */\n    tag_363:\n        /* \"#utility.yul\":14689:14695   */\n      dup4\n        /* \"#utility.yul\":14686:14687   */\n      dup2\n        /* \"#utility.yul\":14683:14696   */\n      lt\n        /* \"#utility.yul\":14675:14788   */\n      iszero\n      tag_365\n      jumpi\n        /* \"#utility.yul\":14774:14775   */\n      dup1\n        /* \"#utility.yul\":14769:14772   */\n      dup3\n        /* \"#utility.yul\":14765:14776   */\n      add\n        /* \"#utility.yul\":14759:14777   */\n      mload\n        /* \"#utility.yul\":14755:14756   */\n      dup2\n        /* \"#utility.yul\":14750:14753   */\n      dup5\n        /* \"#utility.yul\":14746:14757   */\n      add\n        /* \"#utility.yul\":14739:14778   */\n      mstore\n        /* \"#utility.yul\":14711:14713   */\n      0x20\n        /* \"#utility.yul\":14708:14709   */\n      dup2\n        /* \"#utility.yul\":14704:14714   */\n      add\n        /* \"#utility.yul\":14699:14714   */\n      swap1\n      pop\n        /* \"#utility.yul\":14675:14788   */\n      jump(tag_363)\n    tag_365:\n        /* \"#utility.yul\":14806:14812   */\n      dup4\n        /* \"#utility.yul\":14803:14804   */\n      dup2\n        /* \"#utility.yul\":14800:14813   */\n      gt\n        /* \"#utility.yul\":14797:14898   */\n      iszero\n      tag_366\n      jumpi\n        /* \"#utility.yul\":14886:14887   */\n      0x00\n        /* \"#utility.yul\":14877:14883   */\n      dup5\n        /* \"#utility.yul\":14872:14875   */\n      dup5\n        /* \"#utility.yul\":14868:14884   */\n      add\n        /* \"#utility.yul\":14861:14888   */\n      mstore\n        /* \"#utility.yul\":14797:14898   */\n    tag_366:\n        /* \"#utility.yul\":14646:14904   */\n      pop\n        /* \"#utility.yul\":14597:14904   */\n      pop\n      pop\n      pop\n      jump\t// out\n        /* \"#utility.yul\":14910:15230   */\n    tag_86:\n        /* \"#utility.yul\":14954:14960   */\n      0x00\n        /* \"#utility.yul\":14991:14992   */\n      0x02\n        /* \"#utility.yul\":14985:14989   */\n      dup3\n        /* \"#utility.yul\":14981:14993   */\n      div\n        /* \"#utility.yul\":14971:14993   */\n      swap1\n      pop\n        /* \"#utility.yul\":15038:15039   */\n      0x01\n        /* \"#utility.yul\":15032:15036   */\n      dup3\n        /* \"#utility.yul\":15028:15040   */\n      and\n        /* \"#utility.yul\":15059:15077   */\n      dup1\n        /* \"#utility.yul\":15049:15130   */\n      tag_368\n      jumpi\n        /* \"#utility.yul\":15115:15119   */\n      0x7f\n        /* \"#utility.yul\":15107:15113   */\n      dup3\n        /* \"#utility.yul\":15103:15120   */\n      and\n        /* \"#utility.yul\":15093:15120   */\n      swap2\n      pop\n        /* \"#utility.yul\":15049:15130   */\n    tag_368:\n        /* \"#utility.yul\":15177:15179   */\n      0x20\n        /* \"#utility.yul\":15169:15175   */\n      dup3\n        /* \"#utility.yul\":15166:15180   */\n      lt\n        /* \"#utility.yul\":15146:15164   */\n      dup2\n        /* \"#utility.yul\":15143:15181   */\n      eq\n        /* \"#utility.yul\":15140:15224   */\n      iszero\n      tag_369\n      jumpi\n        /* \"#utility.yul\":15196:15214   */\n      tag_370\n      tag_371\n      jump\t// in\n    tag_370:\n        /* \"#utility.yul\":15140:15224   */\n    tag_369:\n        /* \"#utility.yul\":14961:15230   */\n      pop\n        /* \"#utility.yul\":14910:15230   */\n      swap2\n      swap1\n      pop\n      jump\t// out\n        /* \"#utility.yul\":15236:15416   */\n    tag_312:\n        /* \"#utility.yul\":15284:15361   */\n      0x4e487b7100000000000000000000000000000000000000000000000000000000\n        /* \"#utility.yul\":15281:15282   */\n      0x00\n        /* \"#utility.yul\":15274:15362   */\n      mstore\n        /* \"#utility.yul\":15381:15385   */\n      0x11\n        /* \"#utility.yul\":15378:15379   */\n      0x04\n        /* \"#utility.yul\":15371:15386   */\n      mstore\n        /* \"#utility.yul\":15405:15409   */\n      0x24\n        /* \"#utility.yul\":15402:15403   */\n      0x00\n        /* \"#utility.yul\":15395:15410   */\n      revert\n        /* \"#utility.yul\":15422:15602   */\n    tag_318:\n        /* \"#utility.yul\":15470:15547   */\n      0x4e487b7100000000000000000000000000000000000000000000000000000000\n        /* \"#utility.yul\":15467:15468   */\n      0x00\n        /* \"#utility.yul\":15460:15548   */\n      mstore\n        /* \"#utility.yul\":15567:15571   */\n      0x12\n        /* \"#utility.yul\":15564:15565   */\n      0x04\n        /* \"#utility.yul\":15557:15572   */\n      mstore\n        /* \"#utility.yul\":15591:15595   */\n      0x24\n        /* \"#utility.yul\":15588:15589   */\n      0x00\n        /* \"#utility.yul\":15581:15596   */\n      revert\n        /* \"#utility.yul\":15608:15788   */\n    tag_371:\n        /* \"#utility.yul\":15656:15733   */\n      0x4e487b7100000000000000000000000000000000000000000000000000000000\n        /* \"#utility.yul\":15653:15654   */\n      0x00\n        /* \"#utility.yul\":15646:15734   */\n      mstore\n        /* \"#utility.yul\":15753:15757   */\n      0x22\n        /* \"#utility.yul\":15750:15751   */\n      0x04\n        /* \"#utility.yul\":15743:15758   */\n      mstore\n        /* \"#utility.yul\":15777:15781   */\n      0x24\n        /* \"#utility.yul\":15774:15775   */\n      0x00\n        /* \"#utility.yul\":15767:15782   */\n      revert\n        /* \"#utility.yul\":15917:16034   */\n    tag_193:\n        /* \"#utility.yul\":16026:16027   */\n      0x00\n        /* \"#utility.yul\":16023:16024   */\n      dup1\n        /* \"#utility.yul\":16016:16028   */\n      revert\n        /* \"#utility.yul\":16040:16142   */\n    tag_228:\n        /* \"#utility.yul\":16081:16087   */\n      0x00\n        /* \"#utility.yul\":16132:16134   */\n      0x1f\n        /* \"#utility.yul\":16128:16135   */\n      not\n        /* \"#utility.yul\":16123:16125   */\n      0x1f\n        /* \"#utility.yul\":16116:16121   */\n      dup4\n        /* \"#utility.yul\":16112:16126   */\n      add\n        /* \"#utility.yul\":16108:16136   */\n      and\n        /* \"#utility.yul\":16098:16136   */\n      swap1\n      pop\n        /* \"#utility.yul\":16040:16142   */\n      swap2\n      swap1\n      pop\n      jump\t// out\n        /* \"#utility.yul\":16148:16250   */\n    tag_328:\n        /* \"#utility.yul\":16190:16198   */\n      0x00\n        /* \"#utility.yul\":16237:16242   */\n      dup2\n        /* \"#utility.yul\":16234:16235   */\n      0x01\n        /* \"#utility.yul\":16230:16243   */\n      shr\n        /* \"#utility.yul\":16209:16243   */\n      swap1\n      pop\n        /* \"#utility.yul\":16148:16250   */\n      swap2\n      swap1\n      pop\n      jump\t// out\n        /* \"#utility.yul\":16256:16478   */\n    tag_233:\n        /* \"#utility.yul\":16396:16430   */\n      0x45524332303a207472616e7366657220746f20746865207a65726f2061646472\n        /* \"#utility.yul\":16392:16393   */\n      0x00\n        /* \"#utility.yul\":16384:16390   */\n      dup3\n        /* \"#utility.yul\":16380:16394   */\n      add\n        /* \"#utility.yul\":16373:16431   */\n      mstore\n        /* \"#utility.yul\":16465:16470   */\n      0x6573730000000000000000000000000000000000000000000000000000000000\n        /* \"#utility.yul\":16460:16462   */\n      0x20\n        /* \"#utility.yul\":16452:16458   */\n      dup3\n        /* \"#utility.yul\":16448:16463   */\n      add\n        /* \"#utility.yul\":16441:16471   */\n      mstore\n        /* \"#utility.yul\":16256:16478   */\n      pop\n      jump\t// out\n        /* \"#utility.yul\":16484:16705   */\n    tag_238:\n        /* \"#utility.yul\":16624:16658   */\n      0x45524332303a20617070726f766520746f20746865207a65726f206164647265\n        /* \"#utility.yul\":16620:16621   */\n      0x00\n        /* \"#utility.yul\":16612:16618   */\n      dup3\n        /* \"#utility.yul\":16608:16622   */\n      add\n        /* \"#utility.yul\":16601:16659   */\n      mstore\n        /* \"#utility.yul\":16693:16697   */\n      0x7373000000000000000000000000000000000000000000000000000000000000\n        /* \"#utility.yul\":16688:16690   */\n      0x20\n        /* \"#utility.yul\":16680:16686   */\n      dup3\n        /* \"#utility.yul\":16676:16691   */\n      add\n        /* \"#utility.yul\":16669:16698   */\n      mstore\n        /* \"#utility.yul\":16484:16705   */\n      pop\n      jump\t// out\n        /* \"#utility.yul\":16711:16890   */\n    tag_243:\n        /* \"#utility.yul\":16851:16882   */\n      0x45524332303a20696e73756666696369656e7420616c6c6f77616e6365000000\n        /* \"#utility.yul\":16847:16848   */\n      0x00\n        /* \"#utility.yul\":16839:16845   */\n      dup3\n        /* \"#utility.yul\":16835:16849   */\n      add\n        /* \"#utility.yul\":16828:16883   */\n      mstore\n        /* \"#utility.yul\":16711:16890   */\n      pop\n      jump\t// out\n        /* \"#utility.yul\":16896:17121   */\n    tag_248:\n        /* \"#utility.yul\":17036:17070   */\n      0x45524332303a207472616e7366657220616d6f756e7420657863656564732062\n        /* \"#utility.yul\":17032:17033   */\n      0x00\n        /* \"#utility.yul\":17024:17030   */\n      dup3\n        /* \"#utility.yul\":17020:17034   */\n      add\n        /* \"#utility.yul\":17013:17071   */\n      mstore\n        /* \"#utility.yul\":17105:17113   */\n      0x616c616e63650000000000000000000000000000000000000000000000000000\n        /* \"#utility.yul\":17100:17102   */\n      0x20\n        /* \"#utility.yul\":17092:17098   */\n      dup3\n        /* \"#utility.yul\":17088:17103   */\n      add\n        /* \"#utility.yul\":17081:17114   */\n      mstore\n        /* \"#utility.yul\":16896:17121   */\n      pop\n      jump\t// out\n        /* \"#utility.yul\":17127:17351   */\n    tag_253:\n        /* \"#utility.yul\":17267:17301   */\n      0x45524332303a207472616e736665722066726f6d20746865207a65726f206164\n        /* \"#utility.yul\":17263:17264   */\n      0x00\n        /* \"#utility.yul\":17255:17261   */\n      dup3\n        /* \"#utility.yul\":17251:17265   */\n      add\n        /* \"#utility.yul\":17244:17302   */\n      mstore\n        /* \"#utility.yul\":17336:17343   */\n      0x6472657373000000000000000000000000000000000000000000000000000000\n        /* \"#utility.yul\":17331:17333   */\n      0x20\n        /* \"#utility.yul\":17323:17329   */\n      dup3\n        /* \"#utility.yul\":17319:17334   */\n      add\n        /* \"#utility.yul\":17312:17344   */\n      mstore\n        /* \"#utility.yul\":17127:17351   */\n      pop\n      jump\t// out\n        /* \"#utility.yul\":17357:17580   */\n    tag_258:\n        /* \"#utility.yul\":17497:17531   */\n      0x45524332303a20617070726f76652066726f6d20746865207a65726f20616464\n        /* \"#utility.yul\":17493:17494   */\n      0x00\n        /* \"#utility.yul\":17485:17491   */\n      dup3\n        /* \"#utility.yul\":17481:17495   */\n      add\n        /* \"#utility.yul\":17474:17532   */\n      mstore\n        /* \"#utility.yul\":17566:17572   */\n      0x7265737300000000000000000000000000000000000000000000000000000000\n        /* \"#utility.yul\":17561:17563   */\n      0x20\n        /* \"#utility.yul\":17553:17559   */\n      dup3\n        /* \"#utility.yul\":17549:17564   */\n      add\n        /* \"#utility.yul\":17542:17573   */\n      mstore\n        /* \"#utility.yul\":17357:17580   */\n      pop\n      jump\t// out\n        /* \"#utility.yul\":17586:17810   */\n    tag_263:\n        /* \"#utility.yul\":17726:17760   */\n      0x45524332303a2064656372656173656420616c6c6f77616e63652062656c6f77\n        /* \"#utility.yul\":17722:17723   */\n      0x00\n        /* \"#utility.yul\":17714:17720   */\n      dup3\n        /* \"#utility.yul\":17710:17724   */\n      add\n        /* \"#utility.yul\":17703:17761   */\n      mstore\n        /* \"#utility.yul\":17795:17802   */\n      0x207a65726f000000000000000000000000000000000000000000000000000000\n        /* \"#utility.yul\":17790:17792   */\n      0x20\n        /* \"#utility.yul\":17782:17788   */\n      dup3\n        /* \"#utility.yul\":17778:17793   */\n      add\n        /* \"#utility.yul\":17771:17803   */\n      mstore\n        /* \"#utility.yul\":17586:17810   */\n      pop\n      jump\t// out\n        /* \"#utility.yul\":17816:17997   */\n    tag_268:\n        /* \"#utility.yul\":17956:17989   */\n      0x45524332303a206d696e7420746f20746865207a65726f206164647265737300\n        /* \"#utility.yul\":17952:17953   */\n      0x00\n        /* \"#utility.yul\":17944:17950   */\n      dup3\n        /* \"#utility.yul\":17940:17954   */\n      add\n        /* \"#utility.yul\":17933:17990   */\n      mstore\n        /* \"#utility.yul\":17816:17997   */\n      pop\n      jump\t// out\n        /* \"#utility.yul\":18003:18125   */\n    tag_185:\n        /* \"#utility.yul\":18076:18100   */\n      tag_389\n        /* \"#utility.yul\":18094:18099   */\n      dup2\n        /* \"#utility.yul\":18076:18100   */\n      tag_214\n      jump\t// in\n    tag_389:\n        /* \"#utility.yul\":18069:18074   */\n      dup2\n        /* \"#utility.yul\":18066:18101   */\n      eq\n        /* \"#utility.yul\":18056:18119   */\n      tag_390\n      jumpi\n        /* \"#utility.yul\":18115:18116   */\n      0x00\n        /* \"#utility.yul\":18112:18113   */\n      dup1\n        /* \"#utility.yul\":18105:18117   */\n      revert\n        /* \"#utility.yul\":18056:18119   */\n    tag_390:\n        /* \"#utility.yul\":18003:18125   */\n      pop\n      jump\t// out\n        /* \"#utility.yul\":18131:18253   */\n    tag_189:\n        /* \"#utility.yul\":18204:18228   */\n      tag_392\n        /* \"#utility.yul\":18222:18227   */\n      dup2\n        /* \"#utility.yul\":18204:18228   */\n      tag_272\n      jump\t// in\n    tag_392:\n        /* \"#utility.yul\":18197:18202   */\n      dup2\n        /* \"#utility.yul\":18194:18229   */\n      eq\n        /* \"#utility.yul\":18184:18247   */\n      tag_393\n      jumpi\n        /* \"#utility.yul\":18243:18244   */\n      0x00\n        /* \"#utility.yul\":18240:18241   */\n      dup1\n        /* \"#utility.yul\":18233:18245   */\n      revert\n        /* \"#utility.yul\":18184:18247   */\n    tag_393:\n        /* \"#utility.yul\":18131:18253   */\n      pop\n      jump\t// out\n\n    auxdata: 0xa264697066735822122059e74649b5857206750a6c798c8384439a91b0b191b4c65da97a6c064d961b3c64736f6c63430008070033\n}\n",
				"bytecode": {
					"linkReferences": {},
					"object": "60806040523480156200001157600080fd5b506040518060400160405280600881526020017f434f44546f6b656e0000000000000000000000000000000000000000000000008152506040518060400160405280600381526020017f434f44000000000000000000000000000000000000000000000000000000000081525081600390805190602001906200009692919062000298565b508060049080519060200190620000af92919062000298565b505050620000ce3369d3c21bcecceda10000006200011560201b60201c565b33600560006101000a81548173ffffffffffffffffffffffffffffffffffffffff021916908373ffffffffffffffffffffffffffffffffffffffff160217905550620004f4565b600073ffffffffffffffffffffffffffffffffffffffff168273ffffffffffffffffffffffffffffffffffffffff16141562000188576040517f08c379a00000000000000000000000000000000000000000000000000000000081526004016200017f9062000380565b60405180910390fd5b6200019c600083836200028e60201b60201c565b8060026000828254620001b09190620003d0565b92505081905550806000808473ffffffffffffffffffffffffffffffffffffffff1673ffffffffffffffffffffffffffffffffffffffff1681526020019081526020016000206000828254620002079190620003d0565b925050819055508173ffffffffffffffffffffffffffffffffffffffff16600073ffffffffffffffffffffffffffffffffffffffff167fddf252ad1be2c89b69c2b068fc378daa952ba7f163c4a11628f55a4df523b3ef836040516200026e9190620003a2565b60405180910390a36200028a600083836200029360201b60201c565b5050565b505050565b505050565b828054620002a69062000437565b90600052602060002090601f016020900481019282620002ca576000855562000316565b82601f10620002e557805160ff191683800117855562000316565b8280016001018555821562000316579182015b8281111562000315578251825591602001919060010190620002f8565b5b50905062000325919062000329565b5090565b5b80821115620003445760008160009055506001016200032a565b5090565b600062000357601f83620003bf565b91506200036482620004cb565b602082019050919050565b6200037a816200042d565b82525050565b600060208201905081810360008301526200039b8162000348565b9050919050565b6000602082019050620003b960008301846200036f565b92915050565b600082825260208201905092915050565b6000620003dd826200042d565b9150620003ea836200042d565b9250827fffffffffffffffffffffffffffffffffffffffffffffffffffffffffffffffff038211156200042257620004216200046d565b5b828201905092915050565b6000819050919050565b600060028204905060018216806200045057607f821691505b602082108114156200046757620004666200049c565b5b50919050565b7f4e487b7100000000000000000000000000000000000000000000000000000000600052601160045260246000fd5b7f4e487b7100000000000000000000000000000000000000000000000000000000600052602260045260246000fd5b7f45524332303a206d696e7420746f20746865207a65726f206164647265737300600082015250565b6117ef80620005046000396000f3fe6080604052600436106100c25760003560e01c806370a082311161007f578063a457c2d711610059578063a457c2d714610283578063a9059cbb146102c0578063dd62ed3e146102fd578063f851a4401461033a576100c2565b806370a08231146101ff5780637e72fb521461023c57806395d89b4114610258576100c2565b806306fdde03146100c7578063095ea7b3146100f257806318160ddd1461012f57806323b872dd1461015a578063313ce5671461019757806339509351146101c2575b600080fd5b3480156100d357600080fd5b506100dc610365565b6040516100e9919061102f565b60405180910390f35b3480156100fe57600080fd5b5061011960048036038101906101149190610e2c565b6103f7565b6040516101269190611014565b60405180910390f35b34801561013b57600080fd5b5061014461041a565b6040516101519190611151565b60405180910390f35b34801561016657600080fd5b50610181600480360381019061017c9190610dd9565b610424565b60405161018e9190611014565b60405180910390f35b3480156101a357600080fd5b506101ac610453565b6040516101b9919061116c565b60405180910390f35b3480156101ce57600080fd5b506101e960048036038101906101e49190610e2c565b61045c565b6040516101f69190611014565b60405180910390f35b34801561020b57600080fd5b5061022660048036038101906102219190610d6c565b610493565b6040516102339190611151565b60405180910390f35b61025660048036038101906102519190610d6c565b6104db565b005b34801561026457600080fd5b5061026d61051f565b60405161027a919061102f565b60405180910390f35b34801561028f57600080fd5b506102aa60048036038101906102a59190610e2c565b6105b1565b6040516102b79190611014565b60405180910390f35b3480156102cc57600080fd5b506102e760048036038101906102e29190610e2c565b610628565b6040516102f49190611014565b60405180910390f35b34801561030957600080fd5b50610324600480360381019061031f9190610d99565b61064b565b6040516103319190611151565b60405180910390f35b34801561034657600080fd5b5061034f6106d2565b60405161035c9190610ff9565b60405180910390f35b6060600380546103749061147d565b80601f01602080910402602001604051908101604052809291908181526020018280546103a09061147d565b80156103ed5780601f106103c2576101008083540402835291602001916103ed565b820191906000526020600020905b8154815290600101906020018083116103d057829003601f168201915b5050505050905090565b6000806104026106f8565b905061040f818585610700565b600191505092915050565b6000600254905090565b60008061042f6106f8565b905061043c8582856108cb565b610447858585610957565b60019150509392505050565b60006012905090565b6000806104676106f8565b9050610488818585610479858961064b565b61048391906111a3565b610700565b600191505092915050565b60008060008373ffffffffffffffffffffffffffffffffffffffff1673ffffffffffffffffffffffffffffffffffffffff168152602001908152602001600020549050919050565b60006103e8905060006104ec610453565b600a6104f8919061127d565b8234610504919061139b565b61050e91906111f9565b905061051a8382610bd8565b505050565b60606004805461052e9061147d565b80601f016020809104026020016040519081016040528092919081815260200182805461055a9061147d565b80156105a75780601f1061057c576101008083540402835291602001916105a7565b820191906000526020600020905b81548152906001019060200180831161058a57829003601f168201915b5050505050905090565b6000806105bc6106f8565b905060006105ca828661064b565b90508381101561060f576040517f08c379a000000000000000000000000000000000000000000000000000000000815260040161060690611111565b60405180910390fd5b61061c8286868403610700565b60019250505092915050565b6000806106336106f8565b9050610640818585610957565b600191505092915050565b6000600160008473ffffffffffffffffffffffffffffffffffffffff1673ffffffffffffffffffffffffffffffffffffffff16815260200190815260200160002060008373ffffffffffffffffffffffffffffffffffffffff1673ffffffffffffffffffffffffffffffffffffffff16815260200190815260200160002054905092915050565b600560009054906101000a900473ffffffffffffffffffffffffffffffffffffffff1681565b600033905090565b600073ffffffffffffffffffffffffffffffffffffffff168373ffffffffffffffffffffffffffffffffffffffff161415610770576040517f08c379a0000000000000000000000000000000000000000000000000000000008152600401610767906110f1565b60405180910390fd5b600073ffffffffffffffffffffffffffffffffffffffff168273ffffffffffffffffffffffffffffffffffffffff1614156107e0576040517f08c379a00000000000000000000000000000000000000000000000000000000081526004016107d790611071565b60405180910390fd5b80600160008573ffffffffffffffffffffffffffffffffffffffff1673ffffffffffffffffffffffffffffffffffffffff16815260200190815260200160002060008473ffffffffffffffffffffffffffffffffffffffff1673ffffffffffffffffffffffffffffffffffffffff168152602001908152602001600020819055508173ffffffffffffffffffffffffffffffffffffffff168373ffffffffffffffffffffffffffffffffffffffff167f8c5be1e5ebec7d5bd14f71427d1e84f3dd0314c0f7b2291e5b200ac8c7c3b925836040516108be9190611151565b60405180910390a3505050565b60006108d7848461064b565b90507fffffffffffffffffffffffffffffffffffffffffffffffffffffffffffffffff81146109515781811015610943576040517f08c379a000000000000000000000000000000000000000000000000000000000815260040161093a90611091565b60405180910390fd5b6109508484848403610700565b5b50505050565b600073ffffffffffffffffffffffffffffffffffffffff168373ffffffffffffffffffffffffffffffffffffffff1614156109c7576040517f08c379a00000000000000000000000000000000000000000000000000000000081526004016109be906110d1565b60405180910390fd5b600073ffffffffffffffffffffffffffffffffffffffff168273ffffffffffffffffffffffffffffffffffffffff161415610a37576040517f08c379a0000000000000000000000000000000000000000000000000000000008152600401610a2e90611051565b60405180910390fd5b610a42838383610d38565b60008060008573ffffffffffffffffffffffffffffffffffffffff1673ffffffffffffffffffffffffffffffffffffffff16815260200190815260200160002054905081811015610ac8576040517f08c379a0000000000000000000000000000000000000000000000000000000008152600401610abf906110b1565b60405180910390fd5b8181036000808673ffffffffffffffffffffffffffffffffffffffff1673ffffffffffffffffffffffffffffffffffffffff16815260200190815260200160002081905550816000808573ffffffffffffffffffffffffffffffffffffffff1673ffffffffffffffffffffffffffffffffffffffff1681526020019081526020016000206000828254610b5b91906111a3565b925050819055508273ffffffffffffffffffffffffffffffffffffffff168473ffffffffffffffffffffffffffffffffffffffff167fddf252ad1be2c89b69c2b068fc378daa952ba7f163c4a11628f55a4df523b3ef84604051610bbf9190611151565b60405180910390a3610bd2848484610d3d565b50505050565b600073ffffffffffffffffffffffffffffffffffffffff168273ffffffffffffffffffffffffffffffffffffffff161415610c48576040517f08c379a0000000000000000000000000000000000000000000000000000000008152600401610c3f90611131565b60405180910390fd5b610c5460008383610d38565b8060026000828254610c6691906111a3565b92505081905550806000808473ffffffffffffffffffffffffffffffffffffffff1673ffffffffffffffffffffffffffffffffffffffff1681526020019081526020016000206000828254610cbb91906111a3565b925050819055508173ffffffffffffffffffffffffffffffffffffffff16600073ffffffffffffffffffffffffffffffffffffffff167fddf252ad1be2c89b69c2b068fc378daa952ba7f163c4a11628f55a4df523b3ef83604051610d209190611151565b60405180910390a3610d3460008383610d3d565b5050565b505050565b505050565b600081359050610d518161178b565b92915050565b600081359050610d66816117a2565b92915050565b600060208284031215610d8257610d8161153c565b5b6000610d9084828501610d42565b91505092915050565b60008060408385031215610db057610daf61153c565b5b6000610dbe85828601610d42565b9250506020610dcf85828601610d42565b9150509250929050565b600080600060608486031215610df257610df161153c565b5b6000610e0086828701610d42565b9350506020610e1186828701610d42565b9250506040610e2286828701610d57565b9150509250925092565b60008060408385031215610e4357610e4261153c565b5b6000610e5185828601610d42565b9250506020610e6285828601610d57565b9150509250929050565b610e75816113f5565b82525050565b610e8481611407565b82525050565b6000610e9582611187565b610e9f8185611192565b9350610eaf81856020860161144a565b610eb881611541565b840191505092915050565b6000610ed0602383611192565b9150610edb8261155f565b604082019050919050565b6000610ef3602283611192565b9150610efe826115ae565b604082019050919050565b6000610f16601d83611192565b9150610f21826115fd565b602082019050919050565b6000610f39602683611192565b9150610f4482611626565b604082019050919050565b6000610f5c602583611192565b9150610f6782611675565b604082019050919050565b6000610f7f602483611192565b9150610f8a826116c4565b604082019050919050565b6000610fa2602583611192565b9150610fad82611713565b604082019050919050565b6000610fc5601f83611192565b9150610fd082611762565b602082019050919050565b610fe481611433565b82525050565b610ff38161143d565b82525050565b600060208201905061100e6000830184610e6c565b92915050565b60006020820190506110296000830184610e7b565b92915050565b600060208201905081810360008301526110498184610e8a565b905092915050565b6000602082019050818103600083015261106a81610ec3565b9050919050565b6000602082019050818103600083015261108a81610ee6565b9050919050565b600060208201905081810360008301526110aa81610f09565b9050919050565b600060208201905081810360008301526110ca81610f2c565b9050919050565b600060208201905081810360008301526110ea81610f4f565b9050919050565b6000602082019050818103600083015261110a81610f72565b9050919050565b6000602082019050818103600083015261112a81610f95565b9050919050565b6000602082019050818103600083015261114a81610fb8565b9050919050565b60006020820190506111666000830184610fdb565b92915050565b60006020820190506111816000830184610fea565b92915050565b600081519050919050565b600082825260208201905092915050565b60006111ae82611433565b91506111b983611433565b9250827fffffffffffffffffffffffffffffffffffffffffffffffffffffffffffffffff038211156111ee576111ed6114af565b5b828201905092915050565b600061120482611433565b915061120f83611433565b92508261121f5761121e6114de565b5b828204905092915050565b6000808291508390505b6001851115611274578086048111156112505761124f6114af565b5b600185161561125f5780820291505b808102905061126d85611552565b9450611234565b94509492505050565b600061128882611433565b91506112938361143d565b92506112c07fffffffffffffffffffffffffffffffffffffffffffffffffffffffffffffffff84846112c8565b905092915050565b6000826112d85760019050611394565b816112e65760009050611394565b81600181146112fc576002811461130657611335565b6001915050611394565b60ff841115611318576113176114af565b5b8360020a91508482111561132f5761132e6114af565b5b50611394565b5060208310610133831016604e8410600b841016171561136a5782820a905083811115611365576113646114af565b5b611394565b611377848484600161122a565b9250905081840481111561138e5761138d6114af565b5b81810290505b9392505050565b60006113a682611433565b91506113b183611433565b9250817fffffffffffffffffffffffffffffffffffffffffffffffffffffffffffffffff04831182151516156113ea576113e96114af565b5b828202905092915050565b600061140082611413565b9050919050565b60008115159050919050565b600073ffffffffffffffffffffffffffffffffffffffff82169050919050565b6000819050919050565b600060ff82169050919050565b60005b8381101561146857808201518184015260208101905061144d565b83811115611477576000848401525b50505050565b6000600282049050600182168061149557607f821691505b602082108114156114a9576114a861150d565b5b50919050565b7f4e487b7100000000000000000000000000000000000000000000000000000000600052601160045260246000fd5b7f4e487b7100000000000000000000000000000000000000000000000000000000600052601260045260246000fd5b7f4e487b7100000000000000000000000000000000000000000000000000000000600052602260045260246000fd5b600080fd5b6000601f19601f8301169050919050565b60008160011c9050919050565b7f45524332303a207472616e7366657220746f20746865207a65726f206164647260008201527f6573730000000000000000000000000000000000000000000000000000000000602082015250565b7f45524332303a20617070726f766520746f20746865207a65726f20616464726560008201527f7373000000000000000000000000000000000000000000000000000000000000602082015250565b7f45524332303a20696e73756666696369656e7420616c6c6f77616e6365000000600082015250565b7f45524332303a207472616e7366657220616d6f756e742065786365656473206260008201527f616c616e63650000000000000000000000000000000000000000000000000000602082015250565b7f45524332303a207472616e736665722066726f6d20746865207a65726f20616460008201527f6472657373000000000000000000000000000000000000000000000000000000602082015250565b7f45524332303a20617070726f76652066726f6d20746865207a65726f2061646460008201527f7265737300000000000000000000000000000000000000000000000000000000602082015250565b7f45524332303a2064656372656173656420616c6c6f77616e63652062656c6f7760008201527f207a65726f000000000000000000000000000000000000000000000000000000602082015250565b7f45524332303a206d696e7420746f20746865207a65726f206164647265737300600082015250565b611794816113f5565b811461179f57600080fd5b50565b6117ab81611433565b81146117b657600080fd5b5056fea264697066735822122059e74649b5857206750a6c798c8384439a91b0b191b4c65da97a6c064d961b3c64736f6c63430008070033",
					"opcodes": "PUSH1 0x80 PUSH1 0x40 MSTORE CALLVALUE DUP1 ISZERO PUSH3 0x11 JUMPI PUSH1 0x0 DUP1 REVERT JUMPDEST POP PUSH1 0x40 MLOAD DUP1 PUSH1 0x40 ADD PUSH1 0x40 MSTORE DUP1 PUSH1 0x8 DUP2 MSTORE PUSH1 0x20 ADD PUSH32 0x434F44546F6B656E000000000000000000000000000000000000000000000000 DUP2 MSTORE POP PUSH1 0x40 MLOAD DUP1 PUSH1 0x40 ADD PUSH1 0x40 MSTORE DUP1 PUSH1 0x3 DUP2 MSTORE PUSH1 0x20 ADD PUSH32 0x434F440000000000000000000000000000000000000000000000000000000000 DUP2 MSTORE POP DUP2 PUSH1 0x3 SWAP1 DUP1 MLOAD SWAP1 PUSH1 0x20 ADD SWAP1 PUSH3 0x96 SWAP3 SWAP2 SWAP1 PUSH3 0x298 JUMP JUMPDEST POP DUP1 PUSH1 0x4 SWAP1 DUP1 MLOAD SWAP1 PUSH1 0x20 ADD SWAP1 PUSH3 0xAF SWAP3 SWAP2 SWAP1 PUSH3 0x298 JUMP JUMPDEST POP POP POP PUSH3 0xCE CALLER PUSH10 0xD3C21BCECCEDA1000000 PUSH3 0x115 PUSH1 0x20 SHL PUSH1 0x20 SHR JUMP JUMPDEST CALLER PUSH1 0x5 PUSH1 0x0 PUSH2 0x100 EXP DUP2 SLOAD DUP2 PUSH20 0xFFFFFFFFFFFFFFFFFFFFFFFFFFFFFFFFFFFFFFFF MUL NOT AND SWAP1 DUP4 PUSH20 0xFFFFFFFFFFFFFFFFFFFFFFFFFFFFFFFFFFFFFFFF AND MUL OR SWAP1 SSTORE POP PUSH3 0x4F4 JUMP JUMPDEST PUSH1 0x0 PUSH20 0xFFFFFFFFFFFFFFFFFFFFFFFFFFFFFFFFFFFFFFFF AND DUP3 PUSH20 0xFFFFFFFFFFFFFFFFFFFFFFFFFFFFFFFFFFFFFFFF AND EQ ISZERO PUSH3 0x188 JUMPI PUSH1 0x40 MLOAD PUSH32 0x8C379A000000000000000000000000000000000000000000000000000000000 DUP2 MSTORE PUSH1 0x4 ADD PUSH3 0x17F SWAP1 PUSH3 0x380 JUMP JUMPDEST PUSH1 0x40 MLOAD DUP1 SWAP2 SUB SWAP1 REVERT JUMPDEST PUSH3 0x19C PUSH1 0x0 DUP4 DUP4 PUSH3 0x28E PUSH1 0x20 SHL PUSH1 0x20 SHR JUMP JUMPDEST DUP1 PUSH1 0x2 PUSH1 0x0 DUP3 DUP3 SLOAD PUSH3 0x1B0 SWAP2 SWAP1 PUSH3 0x3D0 JUMP JUMPDEST SWAP3 POP POP DUP2 SWAP1 SSTORE POP DUP1 PUSH1 0x0 DUP1 DUP5 PUSH20 0xFFFFFFFFFFFFFFFFFFFFFFFFFFFFFFFFFFFFFFFF AND PUSH20 0xFFFFFFFFFFFFFFFFFFFFFFFFFFFFFFFFFFFFFFFF AND DUP2 MSTORE PUSH1 0x20 ADD SWAP1 DUP2 MSTORE PUSH1 0x20 ADD PUSH1 0x0 KECCAK256 PUSH1 0x0 DUP3 DUP3 SLOAD PUSH3 0x207 SWAP2 SWAP1 PUSH3 0x3D0 JUMP JUMPDEST SWAP3 POP POP DUP2 SWAP1 SSTORE POP DUP2 PUSH20 0xFFFFFFFFFFFFFFFFFFFFFFFFFFFFFFFFFFFFFFFF AND PUSH1 0x0 PUSH20 0xFFFFFFFFFFFFFFFFFFFFFFFFFFFFFFFFFFFFFFFF AND PUSH32 0xDDF252AD1BE2C89B69C2B068FC378DAA952BA7F163C4A11628F55A4DF523B3EF DUP4 PUSH1 0x40 MLOAD PUSH3 0x26E SWAP2 SWAP1 PUSH3 0x3A2 JUMP JUMPDEST PUSH1 0x40 MLOAD DUP1 SWAP2 SUB SWAP1 LOG3 PUSH3 0x28A PUSH1 0x0 DUP4 DUP4 PUSH3 0x293 PUSH1 0x20 SHL PUSH1 0x20 SHR JUMP JUMPDEST POP POP JUMP JUMPDEST POP POP POP JUMP JUMPDEST POP POP POP JUMP JUMPDEST DUP3 DUP1 SLOAD PUSH3 0x2A6 SWAP1 PUSH3 0x437 JUMP JUMPDEST SWAP1 PUSH1 0x0 MSTORE PUSH1 0x20 PUSH1 0x0 KECCAK256 SWAP1 PUSH1 0x1F ADD PUSH1 0x20 SWAP1 DIV DUP2 ADD SWAP3 DUP3 PUSH3 0x2CA JUMPI PUSH1 0x0 DUP6 SSTORE PUSH3 0x316 JUMP JUMPDEST DUP3 PUSH1 0x1F LT PUSH3 0x2E5 JUMPI DUP1 MLOAD PUSH1 0xFF NOT AND DUP4 DUP1 ADD OR DUP6 SSTORE PUSH3 0x316 JUMP JUMPDEST DUP3 DUP1 ADD PUSH1 0x1 ADD DUP6 SSTORE DUP3 ISZERO PUSH3 0x316 JUMPI SWAP2 DUP3 ADD JUMPDEST DUP3 DUP2 GT ISZERO PUSH3 0x315 JUMPI DUP3 MLOAD DUP3 SSTORE SWAP2 PUSH1 0x20 ADD SWAP2 SWAP1 PUSH1 0x1 ADD SWAP1 PUSH3 0x2F8 JUMP JUMPDEST JUMPDEST POP SWAP1 POP PUSH3 0x325 SWAP2 SWAP1 PUSH3 0x329 JUMP JUMPDEST POP SWAP1 JUMP JUMPDEST JUMPDEST DUP1 DUP3 GT ISZERO PUSH3 0x344 JUMPI PUSH1 0x0 DUP2 PUSH1 0x0 SWAP1 SSTORE POP PUSH1 0x1 ADD PUSH3 0x32A JUMP JUMPDEST POP SWAP1 JUMP JUMPDEST PUSH1 0x0 PUSH3 0x357 PUSH1 0x1F DUP4 PUSH3 0x3BF JUMP JUMPDEST SWAP2 POP PUSH3 0x364 DUP3 PUSH3 0x4CB JUMP JUMPDEST PUSH1 0x20 DUP3 ADD SWAP1 POP SWAP2 SWAP1 POP JUMP JUMPDEST PUSH3 0x37A DUP2 PUSH3 0x42D JUMP JUMPDEST DUP3 MSTORE POP POP JUMP JUMPDEST PUSH1 0x0 PUSH1 0x20 DUP3 ADD SWAP1 POP DUP2 DUP2 SUB PUSH1 0x0 DUP4 ADD MSTORE PUSH3 0x39B DUP2 PUSH3 0x348 JUMP JUMPDEST SWAP1 POP SWAP2 SWAP1 POP JUMP JUMPDEST PUSH1 0x0 PUSH1 0x20 DUP3 ADD SWAP1 POP PUSH3 0x3B9 PUSH1 0x0 DUP4 ADD DUP5 PUSH3 0x36F JUMP JUMPDEST SWAP3 SWAP2 POP POP JUMP JUMPDEST PUSH1 0x0 DUP3 DUP3 MSTORE PUSH1 0x20 DUP3 ADD SWAP1 POP SWAP3 SWAP2 POP POP JUMP JUMPDEST PUSH1 0x0 PUSH3 0x3DD DUP3 PUSH3 0x42D JUMP JUMPDEST SWAP2 POP PUSH3 0x3EA DUP4 PUSH3 0x42D JUMP JUMPDEST SWAP3 POP DUP3 PUSH32 0xFFFFFFFFFFFFFFFFFFFFFFFFFFFFFFFFFFFFFFFFFFFFFFFFFFFFFFFFFFFFFFFF SUB DUP3 GT ISZERO PUSH3 0x422 JUMPI PUSH3 0x421 PUSH3 0x46D JUMP JUMPDEST JUMPDEST DUP3 DUP3 ADD SWAP1 POP SWAP3 SWAP2 POP POP JUMP JUMPDEST PUSH1 0x0 DUP2 SWAP1 POP SWAP2 SWAP1 POP JUMP JUMPDEST PUSH1 0x0 PUSH1 0x2 DUP3 DIV SWAP1 POP PUSH1 0x1 DUP3 AND DUP1 PUSH3 0x450 JUMPI PUSH1 0x7F DUP3 AND SWAP2 POP JUMPDEST PUSH1 0x20 DUP3 LT DUP2 EQ ISZERO PUSH3 0x467 JUMPI PUSH3 0x466 PUSH3 0x49C JUMP JUMPDEST JUMPDEST POP SWAP2 SWAP1 POP JUMP JUMPDEST PUSH32 0x4E487B7100000000000000000000000000000000000000000000000000000000 PUSH1 0x0 MSTORE PUSH1 0x11 PUSH1 0x4 MSTORE PUSH1 0x24 PUSH1 0x0 REVERT JUMPDEST PUSH32 0x4E487B7100000000000000000000000000000000000000000000000000000000 PUSH1 0x0 MSTORE PUSH1 0x22 PUSH1 0x4 MSTORE PUSH1 0x24 PUSH1 0x0 REVERT JUMPDEST PUSH32 0x45524332303A206D696E7420746F20746865207A65726F206164647265737300 PUSH1 0x0 DUP3 ADD MSTORE POP JUMP JUMPDEST PUSH2 0x17EF DUP1 PUSH3 0x504 PUSH1 0x0 CODECOPY PUSH1 0x0 RETURN INVALID PUSH1 0x80 PUSH1 0x40 MSTORE PUSH1 0x4 CALLDATASIZE LT PUSH2 0xC2 JUMPI PUSH1 0x0 CALLDATALOAD PUSH1 0xE0 SHR DUP1 PUSH4 0x70A08231 GT PUSH2 0x7F JUMPI DUP1 PUSH4 0xA457C2D7 GT PUSH2 0x59 JUMPI DUP1 PUSH4 0xA457C2D7 EQ PUSH2 0x283 JUMPI DUP1 PUSH4 0xA9059CBB EQ PUSH2 0x2C0 JUMPI DUP1 PUSH4 0xDD62ED3E EQ PUSH2 0x2FD JUMPI DUP1 PUSH4 0xF851A440 EQ PUSH2 0x33A JUMPI PUSH2 0xC2 JUMP JUMPDEST DUP1 PUSH4 0x70A08231 EQ PUSH2 0x1FF JUMPI DUP1 PUSH4 0x7E72FB52 EQ PUSH2 0x23C JUMPI DUP1 PUSH4 0x95D89B41 EQ PUSH2 0x258 JUMPI PUSH2 0xC2 JUMP JUMPDEST DUP1 PUSH4 0x6FDDE03 EQ PUSH2 0xC7 JUMPI DUP1 PUSH4 0x95EA7B3 EQ PUSH2 0xF2 JUMPI DUP1 PUSH4 0x18160DDD EQ PUSH2 0x12F JUMPI DUP1 PUSH4 0x23B872DD EQ PUSH2 0x15A JUMPI DUP1 PUSH4 0x313CE567 EQ PUSH2 0x197 JUMPI DUP1 PUSH4 0x39509351 EQ PUSH2 0x1C2 JUMPI JUMPDEST PUSH1 0x0 DUP1 REVERT JUMPDEST CALLVALUE DUP1 ISZERO PUSH2 0xD3 JUMPI PUSH1 0x0 DUP1 REVERT JUMPDEST POP PUSH2 0xDC PUSH2 0x365 JUMP JUMPDEST PUSH1 0x40 MLOAD PUSH2 0xE9 SWAP2 SWAP1 PUSH2 0x102F JUMP JUMPDEST PUSH1 0x40 MLOAD DUP1 SWAP2 SUB SWAP1 RETURN JUMPDEST CALLVALUE DUP1 ISZERO PUSH2 0xFE JUMPI PUSH1 0x0 DUP1 REVERT JUMPDEST POP PUSH2 0x119 PUSH1 0x4 DUP1 CALLDATASIZE SUB DUP2 ADD SWAP1 PUSH2 0x114 SWAP2 SWAP1 PUSH2 0xE2C JUMP JUMPDEST PUSH2 0x3F7 JUMP JUMPDEST PUSH1 0x40 MLOAD PUSH2 0x126 SWAP2 SWAP1 PUSH2 0x1014 JUMP JUMPDEST PUSH1 0x40 MLOAD DUP1 SWAP2 SUB SWAP1 RETURN JUMPDEST CALLVALUE DUP1 ISZERO PUSH2 0x13B JUMPI PUSH1 0x0 DUP1 REVERT JUMPDEST POP PUSH2 0x144 PUSH2 0x41A JUMP JUMPDEST PUSH1 0x40 MLOAD PUSH2 0x151 SWAP2 SWAP1 PUSH2 0x1151 JUMP JUMPDEST PUSH1 0x40 MLOAD DUP1 SWAP2 SUB SWAP1 RETURN JUMPDEST CALLVALUE DUP1 ISZERO PUSH2 0x166 JUMPI PUSH1 0x0 DUP1 REVERT JUMPDEST POP PUSH2 0x181 PUSH1 0x4 DUP1 CALLDATASIZE SUB DUP2 ADD SWAP1 PUSH2 0x17C SWAP2 SWAP1 PUSH2 0xDD9 JUMP JUMPDEST PUSH2 0x424 JUMP JUMPDEST PUSH1 0x40 MLOAD PUSH2 0x18E SWAP2 SWAP1 PUSH2 0x1014 JUMP JUMPDEST PUSH1 0x40 MLOAD DUP1 SWAP2 SUB SWAP1 RETURN JUMPDEST CALLVALUE DUP1 ISZERO PUSH2 0x1A3 JUMPI PUSH1 0x0 DUP1 REVERT JUMPDEST POP PUSH2 0x1AC PUSH2 0x453 JUMP JUMPDEST PUSH1 0x40 MLOAD PUSH2 0x1B9 SWAP2 SWAP1 PUSH2 0x116C JUMP JUMPDEST PUSH1 0x40 MLOAD DUP1 SWAP2 SUB SWAP1 RETURN JUMPDEST CALLVALUE DUP1 ISZERO PUSH2 0x1CE JUMPI PUSH1 0x0 DUP1 REVERT JUMPDEST POP PUSH2 0x1E9 PUSH1 0x4 DUP1 CALLDATASIZE SUB DUP2 ADD SWAP1 PUSH2 0x1E4 SWAP2 SWAP1 PUSH2 0xE2C JUMP JUMPDEST PUSH2 0x45C JUMP JUMPDEST PUSH1 0x40 MLOAD PUSH2 0x1F6 SWAP2 SWAP1 PUSH2 0x1014 JUMP JUMPDEST PUSH1 0x40 MLOAD DUP1 SWAP2 SUB SWAP1 RETURN JUMPDEST CALLVALUE DUP1 ISZERO PUSH2 0x20B JUMPI PUSH1 0x0 DUP1 REVERT JUMPDEST POP PUSH2 0x226 PUSH1 0x4 DUP1 CALLDATASIZE SUB DUP2 ADD SWAP1 PUSH2 0x221 SWAP2 SWAP1 PUSH2 0xD6C JUMP JUMPDEST PUSH2 0x493 JUMP JUMPDEST PUSH1 0x40 MLOAD PUSH2 0x233 SWAP2 SWAP1 PUSH2 0x1151 JUMP JUMPDEST PUSH1 0x40 MLOAD DUP1 SWAP2 SUB SWAP1 RETURN JUMPDEST PUSH2 0x256 PUSH1 0x4 DUP1 CALLDATASIZE SUB DUP2 ADD SWAP1 PUSH2 0x251 SWAP2 SWAP1 PUSH2 0xD6C JUMP JUMPDEST PUSH2 0x4DB JUMP JUMPDEST STOP JUMPDEST CALLVALUE DUP1 ISZERO PUSH2 0x264 JUMPI PUSH1 0x0 DUP1 REVERT JUMPDEST POP PUSH2 0x26D PUSH2 0x51F JUMP JUMPDEST PUSH1 0x40 MLOAD PUSH2 0x27A SWAP2 SWAP1 PUSH2 0x102F JUMP JUMPDEST PUSH1 0x40 MLOAD DUP1 SWAP2 SUB SWAP1 RETURN JUMPDEST CALLVALUE DUP1 ISZERO PUSH2 0x28F JUMPI PUSH1 0x0 DUP1 REVERT JUMPDEST POP PUSH2 0x2AA PUSH1 0x4 DUP1 CALLDATASIZE SUB DUP2 ADD SWAP1 PUSH2 0x2A5 SWAP2 SWAP1 PUSH2 0xE2C JUMP JUMPDEST PUSH2 0x5B1 JUMP JUMPDEST PUSH1 0x40 MLOAD PUSH2 0x2B7 SWAP2 SWAP1 PUSH2 0x1014 JUMP JUMPDEST PUSH1 0x40 MLOAD DUP1 SWAP2 SUB SWAP1 RETURN JUMPDEST CALLVALUE DUP1 ISZERO PUSH2 0x2CC JUMPI PUSH1 0x0 DUP1 REVERT JUMPDEST POP PUSH2 0x2E7 PUSH1 0x4 DUP1 CALLDATASIZE SUB DUP2 ADD SWAP1 PUSH2 0x2E2 SWAP2 SWAP1 PUSH2 0xE2C JUMP JUMPDEST PUSH2 0x628 JUMP JUMPDEST PUSH1 0x40 MLOAD PUSH2 0x2F4 SWAP2 SWAP1 PUSH2 0x1014 JUMP JUMPDEST PUSH1 0x40 MLOAD DUP1 SWAP2 SUB SWAP1 RETURN JUMPDEST CALLVALUE DUP1 ISZERO PUSH2 0x309 JUMPI PUSH1 0x0 DUP1 REVERT JUMPDEST POP PUSH2 0x324 PUSH1 0x4 DUP1 CALLDATASIZE SUB DUP2 ADD SWAP1 PUSH2 0x31F SWAP2 SWAP1 PUSH2 0xD99 JUMP JUMPDEST PUSH2 0x64B JUMP JUMPDEST PUSH1 0x40 MLOAD PUSH2 0x331 SWAP2 SWAP1 PUSH2 0x1151 JUMP JUMPDEST PUSH1 0x40 MLOAD DUP1 SWAP2 SUB SWAP1 RETURN JUMPDEST CALLVALUE DUP1 ISZERO PUSH2 0x346 JUMPI PUSH1 0x0 DUP1 REVERT JUMPDEST POP PUSH2 0x34F PUSH2 0x6D2 JUMP JUMPDEST PUSH1 0x40 MLOAD PUSH2 0x35C SWAP2 SWAP1 PUSH2 0xFF9 JUMP JUMPDEST PUSH1 0x40 MLOAD DUP1 SWAP2 SUB SWAP1 RETURN JUMPDEST PUSH1 0x60 PUSH1 0x3 DUP1 SLOAD PUSH2 0x374 SWAP1 PUSH2 0x147D JUMP JUMPDEST DUP1 PUSH1 0x1F ADD PUSH1 0x20 DUP1 SWAP2 DIV MUL PUSH1 0x20 ADD PUSH1 0x40 MLOAD SWAP1 DUP2 ADD PUSH1 0x40 MSTORE DUP1 SWAP3 SWAP2 SWAP1 DUP2 DUP2 MSTORE PUSH1 0x20 ADD DUP3 DUP1 SLOAD PUSH2 0x3A0 SWAP1 PUSH2 0x147D JUMP JUMPDEST DUP1 ISZERO PUSH2 0x3ED JUMPI DUP1 PUSH1 0x1F LT PUSH2 0x3C2 JUMPI PUSH2 0x100 DUP1 DUP4 SLOAD DIV MUL DUP4 MSTORE SWAP2 PUSH1 0x20 ADD SWAP2 PUSH2 0x3ED JUMP JUMPDEST DUP3 ADD SWAP2 SWAP1 PUSH1 0x0 MSTORE PUSH1 0x20 PUSH1 0x0 KECCAK256 SWAP1 JUMPDEST DUP2 SLOAD DUP2 MSTORE SWAP1 PUSH1 0x1 ADD SWAP1 PUSH1 0x20 ADD DUP1 DUP4 GT PUSH2 0x3D0 JUMPI DUP3 SWAP1 SUB PUSH1 0x1F AND DUP3 ADD SWAP2 JUMPDEST POP POP POP POP POP SWAP1 POP SWAP1 JUMP JUMPDEST PUSH1 0x0 DUP1 PUSH2 0x402 PUSH2 0x6F8 JUMP JUMPDEST SWAP1 POP PUSH2 0x40F DUP2 DUP6 DUP6 PUSH2 0x700 JUMP JUMPDEST PUSH1 0x1 SWAP2 POP POP SWAP3 SWAP2 POP POP JUMP JUMPDEST PUSH1 0x0 PUSH1 0x2 SLOAD SWAP1 POP SWAP1 JUMP JUMPDEST PUSH1 0x0 DUP1 PUSH2 0x42F PUSH2 0x6F8 JUMP JUMPDEST SWAP1 POP PUSH2 0x43C DUP6 DUP3 DUP6 PUSH2 0x8CB JUMP JUMPDEST PUSH2 0x447 DUP6 DUP6 DUP6 PUSH2 0x957 JUMP JUMPDEST PUSH1 0x1 SWAP2 POP POP SWAP4 SWAP3 POP POP POP JUMP JUMPDEST PUSH1 0x0 PUSH1 0x12 SWAP1 POP SWAP1 JUMP JUMPDEST PUSH1 0x0 DUP1 PUSH2 0x467 PUSH2 0x6F8 JUMP JUMPDEST SWAP1 POP PUSH2 0x488 DUP2 DUP6 DUP6 PUSH2 0x479 DUP6 DUP10 PUSH2 0x64B JUMP JUMPDEST PUSH2 0x483 SWAP2 SWAP1 PUSH2 0x11A3 JUMP JUMPDEST PUSH2 0x700 JUMP JUMPDEST PUSH1 0x1 SWAP2 POP POP SWAP3 SWAP2 POP POP JUMP JUMPDEST PUSH1 0x0 DUP1 PUSH1 0x0 DUP4 PUSH20 0xFFFFFFFFFFFFFFFFFFFFFFFFFFFFFFFFFFFFFFFF AND PUSH20 0xFFFFFFFFFFFFFFFFFFFFFFFFFFFFFFFFFFFFFFFF AND DUP2 MSTORE PUSH1 0x20 ADD SWAP1 DUP2 MSTORE PUSH1 0x20 ADD PUSH1 0x0 KECCAK256 SLOAD SWAP1 POP SWAP2 SWAP1 POP JUMP JUMPDEST PUSH1 0x0 PUSH2 0x3E8 SWAP1 POP PUSH1 0x0 PUSH2 0x4EC PUSH2 0x453 JUMP JUMPDEST PUSH1 0xA PUSH2 0x4F8 SWAP2 SWAP1 PUSH2 0x127D JUMP JUMPDEST DUP3 CALLVALUE PUSH2 0x504 SWAP2 SWAP1 PUSH2 0x139B JUMP JUMPDEST PUSH2 0x50E SWAP2 SWAP1 PUSH2 0x11F9 JUMP JUMPDEST SWAP1 POP PUSH2 0x51A DUP4 DUP3 PUSH2 0xBD8 JUMP JUMPDEST POP POP POP JUMP JUMPDEST PUSH1 0x60 PUSH1 0x4 DUP1 SLOAD PUSH2 0x52E SWAP1 PUSH2 0x147D JUMP JUMPDEST DUP1 PUSH1 0x1F ADD PUSH1 0x20 DUP1 SWAP2 DIV MUL PUSH1 0x20 ADD PUSH1 0x40 MLOAD SWAP1 DUP2 ADD PUSH1 0x40 MSTORE DUP1 SWAP3 SWAP2 SWAP1 DUP2 DUP2 MSTORE PUSH1 0x20 ADD DUP3 DUP1 SLOAD PUSH2 0x55A SWAP1 PUSH2 0x147D JUMP JUMPDEST DUP1 ISZERO PUSH2 0x5A7 JUMPI DUP1 PUSH1 0x1F LT PUSH2 0x57C JUMPI PUSH2 0x100 DUP1 DUP4 SLOAD DIV MUL DUP4 MSTORE SWAP2 PUSH1 0x20 ADD SWAP2 PUSH2 0x5A7 JUMP JUMPDEST DUP3 ADD SWAP2 SWAP1 PUSH1 0x0 MSTORE PUSH1 0x20 PUSH1 0x0 KECCAK256 SWAP1 JUMPDEST DUP2 SLOAD DUP2 MSTORE SWAP1 PUSH1 0x1 ADD SWAP1 PUSH1 0x20 ADD DUP1 DUP4 GT PUSH2 0x58A JUMPI DUP3 SWAP1 SUB PUSH1 0x1F AND DUP3 ADD SWAP2 JUMPDEST POP POP POP POP POP SWAP1 POP SWAP1 JUMP JUMPDEST PUSH1 0x0 DUP1 PUSH2 0x5BC PUSH2 0x6F8 JUMP JUMPDEST SWAP1 POP PUSH1 0x0 PUSH2 0x5CA DUP3 DUP7 PUSH2 0x64B JUMP JUMPDEST SWAP1 POP DUP4 DUP2 LT ISZERO PUSH2 0x60F JUMPI PUSH1 0x40 MLOAD PUSH32 0x8C379A000000000000000000000000000000000000000000000000000000000 DUP2 MSTORE PUSH1 0x4 ADD PUSH2 0x606 SWAP1 PUSH2 0x1111 JUMP JUMPDEST PUSH1 0x40 MLOAD DUP1 SWAP2 SUB SWAP1 REVERT JUMPDEST PUSH2 0x61C DUP3 DUP7 DUP7 DUP5 SUB PUSH2 0x700 JUMP JUMPDEST PUSH1 0x1 SWAP3 POP POP POP SWAP3 SWAP2 POP POP JUMP JUMPDEST PUSH1 0x0 DUP1 PUSH2 0x633 PUSH2 0x6F8 JUMP JUMPDEST SWAP1 POP PUSH2 0x640 DUP2 DUP6 DUP6 PUSH2 0x957 JUMP JUMPDEST PUSH1 0x1 SWAP2 POP POP SWAP3 SWAP2 POP POP JUMP JUMPDEST PUSH1 0x0 PUSH1 0x1 PUSH1 0x0 DUP5 PUSH20 0xFFFFFFFFFFFFFFFFFFFFFFFFFFFFFFFFFFFFFFFF AND PUSH20 0xFFFFFFFFFFFFFFFFFFFFFFFFFFFFFFFFFFFFFFFF AND DUP2 MSTORE PUSH1 0x20 ADD SWAP1 DUP2 MSTORE PUSH1 0x20 ADD PUSH1 0x0 KECCAK256 PUSH1 0x0 DUP4 PUSH20 0xFFFFFFFFFFFFFFFFFFFFFFFFFFFFFFFFFFFFFFFF AND PUSH20 0xFFFFFFFFFFFFFFFFFFFFFFFFFFFFFFFFFFFFFFFF AND DUP2 MSTORE PUSH1 0x20 ADD SWAP1 DUP2 MSTORE PUSH1 0x20 ADD PUSH1 0x0 KECCAK256 SLOAD SWAP1 POP SWAP3 SWAP2 POP POP JUMP JUMPDEST PUSH1 0x5 PUSH1 0x0 SWAP1 SLOAD SWAP1 PUSH2 0x100 EXP SWAP1 DIV PUSH20 0xFFFFFFFFFFFFFFFFFFFFFFFFFFFFFFFFFFFFFFFF AND DUP2 JUMP JUMPDEST PUSH1 0x0 CALLER SWAP1 POP SWAP1 JUMP JUMPDEST PUSH1 0x0 PUSH20 0xFFFFFFFFFFFFFFFFFFFFFFFFFFFFFFFFFFFFFFFF AND DUP4 PUSH20 0xFFFFFFFFFFFFFFFFFFFFFFFFFFFFFFFFFFFFFFFF AND EQ ISZERO PUSH2 0x770 JUMPI PUSH1 0x40 MLOAD PUSH32 0x8C379A000000000000000000000000000000000000000000000000000000000 DUP2 MSTORE PUSH1 0x4 ADD PUSH2 0x767 SWAP1 PUSH2 0x10F1 JUMP JUMPDEST PUSH1 0x40 MLOAD DUP1 SWAP2 SUB SWAP1 REVERT JUMPDEST PUSH1 0x0 PUSH20 0xFFFFFFFFFFFFFFFFFFFFFFFFFFFFFFFFFFFFFFFF AND DUP3 PUSH20 0xFFFFFFFFFFFFFFFFFFFFFFFFFFFFFFFFFFFFFFFF AND EQ ISZERO PUSH2 0x7E0 JUMPI PUSH1 0x40 MLOAD PUSH32 0x8C379A000000000000000000000000000000000000000000000000000000000 DUP2 MSTORE PUSH1 0x4 ADD PUSH2 0x7D7 SWAP1 PUSH2 0x1071 JUMP JUMPDEST PUSH1 0x40 MLOAD DUP1 SWAP2 SUB SWAP1 REVERT JUMPDEST DUP1 PUSH1 0x1 PUSH1 0x0 DUP6 PUSH20 0xFFFFFFFFFFFFFFFFFFFFFFFFFFFFFFFFFFFFFFFF AND PUSH20 0xFFFFFFFFFFFFFFFFFFFFFFFFFFFFFFFFFFFFFFFF AND DUP2 MSTORE PUSH1 0x20 ADD SWAP1 DUP2 MSTORE PUSH1 0x20 ADD PUSH1 0x0 KECCAK256 PUSH1 0x0 DUP5 PUSH20 0xFFFFFFFFFFFFFFFFFFFFFFFFFFFFFFFFFFFFFFFF AND PUSH20 0xFFFFFFFFFFFFFFFFFFFFFFFFFFFFFFFFFFFFFFFF AND DUP2 MSTORE PUSH1 0x20 ADD SWAP1 DUP2 MSTORE PUSH1 0x20 ADD PUSH1 0x0 KECCAK256 DUP2 SWAP1 SSTORE POP DUP2 PUSH20 0xFFFFFFFFFFFFFFFFFFFFFFFFFFFFFFFFFFFFFFFF AND DUP4 PUSH20 0xFFFFFFFFFFFFFFFFFFFFFFFFFFFFFFFFFFFFFFFF AND PUSH32 0x8C5BE1E5EBEC7D5BD14F71427D1E84F3DD0314C0F7B2291E5B200AC8C7C3B925 DUP4 PUSH1 0x40 MLOAD PUSH2 0x8BE SWAP2 SWAP1 PUSH2 0x1151 JUMP JUMPDEST PUSH1 0x40 MLOAD DUP1 SWAP2 SUB SWAP1 LOG3 POP POP POP JUMP JUMPDEST PUSH1 0x0 PUSH2 0x8D7 DUP5 DUP5 PUSH2 0x64B JUMP JUMPDEST SWAP1 POP PUSH32 0xFFFFFFFFFFFFFFFFFFFFFFFFFFFFFFFFFFFFFFFFFFFFFFFFFFFFFFFFFFFFFFFF DUP2 EQ PUSH2 0x951 JUMPI DUP2 DUP2 LT ISZERO PUSH2 0x943 JUMPI PUSH1 0x40 MLOAD PUSH32 0x8C379A000000000000000000000000000000000000000000000000000000000 DUP2 MSTORE PUSH1 0x4 ADD PUSH2 0x93A SWAP1 PUSH2 0x1091 JUMP JUMPDEST PUSH1 0x40 MLOAD DUP1 SWAP2 SUB SWAP1 REVERT JUMPDEST PUSH2 0x950 DUP5 DUP5 DUP5 DUP5 SUB PUSH2 0x700 JUMP JUMPDEST JUMPDEST POP POP POP POP JUMP JUMPDEST PUSH1 0x0 PUSH20 0xFFFFFFFFFFFFFFFFFFFFFFFFFFFFFFFFFFFFFFFF AND DUP4 PUSH20 0xFFFFFFFFFFFFFFFFFFFFFFFFFFFFFFFFFFFFFFFF AND EQ ISZERO PUSH2 0x9C7 JUMPI PUSH1 0x40 MLOAD PUSH32 0x8C379A000000000000000000000000000000000000000000000000000000000 DUP2 MSTORE PUSH1 0x4 ADD PUSH2 0x9BE SWAP1 PUSH2 0x10D1 JUMP JUMPDEST PUSH1 0x40 MLOAD DUP1 SWAP2 SUB SWAP1 REVERT JUMPDEST PUSH1 0x0 PUSH20 0xFFFFFFFFFFFFFFFFFFFFFFFFFFFFFFFFFFFFFFFF AND DUP3 PUSH20 0xFFFFFFFFFFFFFFFFFFFFFFFFFFFFFFFFFFFFFFFF AND EQ ISZERO PUSH2 0xA37 JUMPI PUSH1 0x40 MLOAD PUSH32 0x8C379A000000000000000000000000000000000000000000000000000000000 DUP2 MSTORE PUSH1 0x4 ADD PUSH2 0xA2E SWAP1 PUSH2 0x1051 JUMP JUMPDEST PUSH1 0x40 MLOAD DUP1 SWAP2 SUB SWAP1 REVERT JUMPDEST PUSH2 0xA42 DUP4 DUP4 DUP4 PUSH2 0xD38 JUMP JUMPDEST PUSH1 0x0 DUP1 PUSH1 0x0 DUP6 PUSH20 0xFFFFFFFFFFFFFFFFFFFFFFFFFFFFFFFFFFFFFFFF AND PUSH20 0xFFFFFFFFFFFFFFFFFFFFFFFFFFFFFFFFFFFFFFFF AND DUP2 MSTORE PUSH1 0x20 ADD SWAP1 DUP2 MSTORE PUSH1 0x20 ADD PUSH1 0x0 KECCAK256 SLOAD SWAP1 POP DUP2 DUP2 LT ISZERO PUSH2 0xAC8 JUMPI PUSH1 0x40 MLOAD PUSH32 0x8C379A000000000000000000000000000000000000000000000000000000000 DUP2 MSTORE PUSH1 0x4 ADD PUSH2 0xABF SWAP1 PUSH2 0x10B1 JUMP JUMPDEST PUSH1 0x40 MLOAD DUP1 SWAP2 SUB SWAP1 REVERT JUMPDEST DUP2 DUP2 SUB PUSH1 0x0 DUP1 DUP7 PUSH20 0xFFFFFFFFFFFFFFFFFFFFFFFFFFFFFFFFFFFFFFFF AND PUSH20 0xFFFFFFFFFFFFFFFFFFFFFFFFFFFFFFFFFFFFFFFF AND DUP2 MSTORE PUSH1 0x20 ADD SWAP1 DUP2 MSTORE PUSH1 0x20 ADD PUSH1 0x0 KECCAK256 DUP2 SWAP1 SSTORE POP DUP2 PUSH1 0x0 DUP1 DUP6 PUSH20 0xFFFFFFFFFFFFFFFFFFFFFFFFFFFFFFFFFFFFFFFF AND PUSH20 0xFFFFFFFFFFFFFFFFFFFFFFFFFFFFFFFFFFFFFFFF AND DUP2 MSTORE PUSH1 0x20 ADD SWAP1 DUP2 MSTORE PUSH1 0x20 ADD PUSH1 0x0 KECCAK256 PUSH1 0x0 DUP3 DUP3 SLOAD PUSH2 0xB5B SWAP2 SWAP1 PUSH2 0x11A3 JUMP JUMPDEST SWAP3 POP POP DUP2 SWAP1 SSTORE POP DUP3 PUSH20 0xFFFFFFFFFFFFFFFFFFFFFFFFFFFFFFFFFFFFFFFF AND DUP5 PUSH20 0xFFFFFFFFFFFFFFFFFFFFFFFFFFFFFFFFFFFFFFFF AND PUSH32 0xDDF252AD1BE2C89B69C2B068FC378DAA952BA7F163C4A11628F55A4DF523B3EF DUP5 PUSH1 0x40 MLOAD PUSH2 0xBBF SWAP2 SWAP1 PUSH2 0x1151 JUMP JUMPDEST PUSH1 0x40 MLOAD DUP1 SWAP2 SUB SWAP1 LOG3 PUSH2 0xBD2 DUP5 DUP5 DUP5 PUSH2 0xD3D JUMP JUMPDEST POP POP POP POP JUMP JUMPDEST PUSH1 0x0 PUSH20 0xFFFFFFFFFFFFFFFFFFFFFFFFFFFFFFFFFFFFFFFF AND DUP3 PUSH20 0xFFFFFFFFFFFFFFFFFFFFFFFFFFFFFFFFFFFFFFFF AND EQ ISZERO PUSH2 0xC48 JUMPI PUSH1 0x40 MLOAD PUSH32 0x8C379A000000000000000000000000000000000000000000000000000000000 DUP2 MSTORE PUSH1 0x4 ADD PUSH2 0xC3F SWAP1 PUSH2 0x1131 JUMP JUMPDEST PUSH1 0x40 MLOAD DUP1 SWAP2 SUB SWAP1 REVERT JUMPDEST PUSH2 0xC54 PUSH1 0x0 DUP4 DUP4 PUSH2 0xD38 JUMP JUMPDEST DUP1 PUSH1 0x2 PUSH1 0x0 DUP3 DUP3 SLOAD PUSH2 0xC66 SWAP2 SWAP1 PUSH2 0x11A3 JUMP JUMPDEST SWAP3 POP POP DUP2 SWAP1 SSTORE POP DUP1 PUSH1 0x0 DUP1 DUP5 PUSH20 0xFFFFFFFFFFFFFFFFFFFFFFFFFFFFFFFFFFFFFFFF AND PUSH20 0xFFFFFFFFFFFFFFFFFFFFFFFFFFFFFFFFFFFFFFFF AND DUP2 MSTORE PUSH1 0x20 ADD SWAP1 DUP2 MSTORE PUSH1 0x20 ADD PUSH1 0x0 KECCAK256 PUSH1 0x0 DUP3 DUP3 SLOAD PUSH2 0xCBB SWAP2 SWAP1 PUSH2 0x11A3 JUMP JUMPDEST SWAP3 POP POP DUP2 SWAP1 SSTORE POP DUP2 PUSH20 0xFFFFFFFFFFFFFFFFFFFFFFFFFFFFFFFFFFFFFFFF AND PUSH1 0x0 PUSH20 0xFFFFFFFFFFFFFFFFFFFFFFFFFFFFFFFFFFFFFFFF AND PUSH32 0xDDF252AD1BE2C89B69C2B068FC378DAA952BA7F163C4A11628F55A4DF523B3EF DUP4 PUSH1 0x40 MLOAD PUSH2 0xD20 SWAP2 SWAP1 PUSH2 0x1151 JUMP JUMPDEST PUSH1 0x40 MLOAD DUP1 SWAP2 SUB SWAP1 LOG3 PUSH2 0xD34 PUSH1 0x0 DUP4 DUP4 PUSH2 0xD3D JUMP JUMPDEST POP POP JUMP JUMPDEST POP POP POP JUMP JUMPDEST POP POP POP JUMP JUMPDEST PUSH1 0x0 DUP2 CALLDATALOAD SWAP1 POP PUSH2 0xD51 DUP2 PUSH2 0x178B JUMP JUMPDEST SWAP3 SWAP2 POP POP JUMP JUMPDEST PUSH1 0x0 DUP2 CALLDATALOAD SWAP1 POP PUSH2 0xD66 DUP2 PUSH2 0x17A2 JUMP JUMPDEST SWAP3 SWAP2 POP POP JUMP JUMPDEST PUSH1 0x0 PUSH1 0x20 DUP3 DUP5 SUB SLT ISZERO PUSH2 0xD82 JUMPI PUSH2 0xD81 PUSH2 0x153C JUMP JUMPDEST JUMPDEST PUSH1 0x0 PUSH2 0xD90 DUP5 DUP3 DUP6 ADD PUSH2 0xD42 JUMP JUMPDEST SWAP2 POP POP SWAP3 SWAP2 POP POP JUMP JUMPDEST PUSH1 0x0 DUP1 PUSH1 0x40 DUP4 DUP6 SUB SLT ISZERO PUSH2 0xDB0 JUMPI PUSH2 0xDAF PUSH2 0x153C JUMP JUMPDEST JUMPDEST PUSH1 0x0 PUSH2 0xDBE DUP6 DUP3 DUP7 ADD PUSH2 0xD42 JUMP JUMPDEST SWAP3 POP POP PUSH1 0x20 PUSH2 0xDCF DUP6 DUP3 DUP7 ADD PUSH2 0xD42 JUMP JUMPDEST SWAP2 POP POP SWAP3 POP SWAP3 SWAP1 POP JUMP JUMPDEST PUSH1 0x0 DUP1 PUSH1 0x0 PUSH1 0x60 DUP5 DUP7 SUB SLT ISZERO PUSH2 0xDF2 JUMPI PUSH2 0xDF1 PUSH2 0x153C JUMP JUMPDEST JUMPDEST PUSH1 0x0 PUSH2 0xE00 DUP7 DUP3 DUP8 ADD PUSH2 0xD42 JUMP JUMPDEST SWAP4 POP POP PUSH1 0x20 PUSH2 0xE11 DUP7 DUP3 DUP8 ADD PUSH2 0xD42 JUMP JUMPDEST SWAP3 POP POP PUSH1 0x40 PUSH2 0xE22 DUP7 DUP3 DUP8 ADD PUSH2 0xD57 JUMP JUMPDEST SWAP2 POP POP SWAP3 POP SWAP3 POP SWAP3 JUMP JUMPDEST PUSH1 0x0 DUP1 PUSH1 0x40 DUP4 DUP6 SUB SLT ISZERO PUSH2 0xE43 JUMPI PUSH2 0xE42 PUSH2 0x153C JUMP JUMPDEST JUMPDEST PUSH1 0x0 PUSH2 0xE51 DUP6 DUP3 DUP7 ADD PUSH2 0xD42 JUMP JUMPDEST SWAP3 POP POP PUSH1 0x20 PUSH2 0xE62 DUP6 DUP3 DUP7 ADD PUSH2 0xD57 JUMP JUMPDEST SWAP2 POP POP SWAP3 POP SWAP3 SWAP1 POP JUMP JUMPDEST PUSH2 0xE75 DUP2 PUSH2 0x13F5 JUMP JUMPDEST DUP3 MSTORE POP POP JUMP JUMPDEST PUSH2 0xE84 DUP2 PUSH2 0x1407 JUMP JUMPDEST DUP3 MSTORE POP POP JUMP JUMPDEST PUSH1 0x0 PUSH2 0xE95 DUP3 PUSH2 0x1187 JUMP JUMPDEST PUSH2 0xE9F DUP2 DUP6 PUSH2 0x1192 JUMP JUMPDEST SWAP4 POP PUSH2 0xEAF DUP2 DUP6 PUSH1 0x20 DUP7 ADD PUSH2 0x144A JUMP JUMPDEST PUSH2 0xEB8 DUP2 PUSH2 0x1541 JUMP JUMPDEST DUP5 ADD SWAP2 POP POP SWAP3 SWAP2 POP POP JUMP JUMPDEST PUSH1 0x0 PUSH2 0xED0 PUSH1 0x23 DUP4 PUSH2 0x1192 JUMP JUMPDEST SWAP2 POP PUSH2 0xEDB DUP3 PUSH2 0x155F JUMP JUMPDEST PUSH1 0x40 DUP3 ADD SWAP1 POP SWAP2 SWAP1 POP JUMP JUMPDEST PUSH1 0x0 PUSH2 0xEF3 PUSH1 0x22 DUP4 PUSH2 0x1192 JUMP JUMPDEST SWAP2 POP PUSH2 0xEFE DUP3 PUSH2 0x15AE JUMP JUMPDEST PUSH1 0x40 DUP3 ADD SWAP1 POP SWAP2 SWAP1 POP JUMP JUMPDEST PUSH1 0x0 PUSH2 0xF16 PUSH1 0x1D DUP4 PUSH2 0x1192 JUMP JUMPDEST SWAP2 POP PUSH2 0xF21 DUP3 PUSH2 0x15FD JUMP JUMPDEST PUSH1 0x20 DUP3 ADD SWAP1 POP SWAP2 SWAP1 POP JUMP JUMPDEST PUSH1 0x0 PUSH2 0xF39 PUSH1 0x26 DUP4 PUSH2 0x1192 JUMP JUMPDEST SWAP2 POP PUSH2 0xF44 DUP3 PUSH2 0x1626 JUMP JUMPDEST PUSH1 0x40 DUP3 ADD SWAP1 POP SWAP2 SWAP1 POP JUMP JUMPDEST PUSH1 0x0 PUSH2 0xF5C PUSH1 0x25 DUP4 PUSH2 0x1192 JUMP JUMPDEST SWAP2 POP PUSH2 0xF67 DUP3 PUSH2 0x1675 JUMP JUMPDEST PUSH1 0x40 DUP3 ADD SWAP1 POP SWAP2 SWAP1 POP JUMP JUMPDEST PUSH1 0x0 PUSH2 0xF7F PUSH1 0x24 DUP4 PUSH2 0x1192 JUMP JUMPDEST SWAP2 POP PUSH2 0xF8A DUP3 PUSH2 0x16C4 JUMP JUMPDEST PUSH1 0x40 DUP3 ADD SWAP1 POP SWAP2 SWAP1 POP JUMP JUMPDEST PUSH1 0x0 PUSH2 0xFA2 PUSH1 0x25 DUP4 PUSH2 0x1192 JUMP JUMPDEST SWAP2 POP PUSH2 0xFAD DUP3 PUSH2 0x1713 JUMP JUMPDEST PUSH1 0x40 DUP3 ADD SWAP1 POP SWAP2 SWAP1 POP JUMP JUMPDEST PUSH1 0x0 PUSH2 0xFC5 PUSH1 0x1F DUP4 PUSH2 0x1192 JUMP JUMPDEST SWAP2 POP PUSH2 0xFD0 DUP3 PUSH2 0x1762 JUMP JUMPDEST PUSH1 0x20 DUP3 ADD SWAP1 POP SWAP2 SWAP1 POP JUMP JUMPDEST PUSH2 0xFE4 DUP2 PUSH2 0x1433 JUMP JUMPDEST DUP3 MSTORE POP POP JUMP JUMPDEST PUSH2 0xFF3 DUP2 PUSH2 0x143D JUMP JUMPDEST DUP3 MSTORE POP POP JUMP JUMPDEST PUSH1 0x0 PUSH1 0x20 DUP3 ADD SWAP1 POP PUSH2 0x100E PUSH1 0x0 DUP4 ADD DUP5 PUSH2 0xE6C JUMP JUMPDEST SWAP3 SWAP2 POP POP JUMP JUMPDEST PUSH1 0x0 PUSH1 0x20 DUP3 ADD SWAP1 POP PUSH2 0x1029 PUSH1 0x0 DUP4 ADD DUP5 PUSH2 0xE7B JUMP JUMPDEST SWAP3 SWAP2 POP POP JUMP JUMPDEST PUSH1 0x0 PUSH1 0x20 DUP3 ADD SWAP1 POP DUP2 DUP2 SUB PUSH1 0x0 DUP4 ADD MSTORE PUSH2 0x1049 DUP2 DUP5 PUSH2 0xE8A JUMP JUMPDEST SWAP1 POP SWAP3 SWAP2 POP POP JUMP JUMPDEST PUSH1 0x0 PUSH1 0x20 DUP3 ADD SWAP1 POP DUP2 DUP2 SUB PUSH1 0x0 DUP4 ADD MSTORE PUSH2 0x106A DUP2 PUSH2 0xEC3 JUMP JUMPDEST SWAP1 POP SWAP2 SWAP1 POP JUMP JUMPDEST PUSH1 0x0 PUSH1 0x20 DUP3 ADD SWAP1 POP DUP2 DUP2 SUB PUSH1 0x0 DUP4 ADD MSTORE PUSH2 0x108A DUP2 PUSH2 0xEE6 JUMP JUMPDEST SWAP1 POP SWAP2 SWAP1 POP JUMP JUMPDEST PUSH1 0x0 PUSH1 0x20 DUP3 ADD SWAP1 POP DUP2 DUP2 SUB PUSH1 0x0 DUP4 ADD MSTORE PUSH2 0x10AA DUP2 PUSH2 0xF09 JUMP JUMPDEST SWAP1 POP SWAP2 SWAP1 POP JUMP JUMPDEST PUSH1 0x0 PUSH1 0x20 DUP3 ADD SWAP1 POP DUP2 DUP2 SUB PUSH1 0x0 DUP4 ADD MSTORE PUSH2 0x10CA DUP2 PUSH2 0xF2C JUMP JUMPDEST SWAP1 POP SWAP2 SWAP1 POP JUMP JUMPDEST PUSH1 0x0 PUSH1 0x20 DUP3 ADD SWAP1 POP DUP2 DUP2 SUB PUSH1 0x0 DUP4 ADD MSTORE PUSH2 0x10EA DUP2 PUSH2 0xF4F JUMP JUMPDEST SWAP1 POP SWAP2 SWAP1 POP JUMP JUMPDEST PUSH1 0x0 PUSH1 0x20 DUP3 ADD SWAP1 POP DUP2 DUP2 SUB PUSH1 0x0 DUP4 ADD MSTORE PUSH2 0x110A DUP2 PUSH2 0xF72 JUMP JUMPDEST SWAP1 POP SWAP2 SWAP1 POP JUMP JUMPDEST PUSH1 0x0 PUSH1 0x20 DUP3 ADD SWAP1 POP DUP2 DUP2 SUB PUSH1 0x0 DUP4 ADD MSTORE PUSH2 0x112A DUP2 PUSH2 0xF95 JUMP JUMPDEST SWAP1 POP SWAP2 SWAP1 POP JUMP JUMPDEST PUSH1 0x0 PUSH1 0x20 DUP3 ADD SWAP1 POP DUP2 DUP2 SUB PUSH1 0x0 DUP4 ADD MSTORE PUSH2 0x114A DUP2 PUSH2 0xFB8 JUMP JUMPDEST SWAP1 POP SWAP2 SWAP1 POP JUMP JUMPDEST PUSH1 0x0 PUSH1 0x20 DUP3 ADD SWAP1 POP PUSH2 0x1166 PUSH1 0x0 DUP4 ADD DUP5 PUSH2 0xFDB JUMP JUMPDEST SWAP3 SWAP2 POP POP JUMP JUMPDEST PUSH1 0x0 PUSH1 0x20 DUP3 ADD SWAP1 POP PUSH2 0x1181 PUSH1 0x0 DUP4 ADD DUP5 PUSH2 0xFEA JUMP JUMPDEST SWAP3 SWAP2 POP POP JUMP JUMPDEST PUSH1 0x0 DUP2 MLOAD SWAP1 POP SWAP2 SWAP1 POP JUMP JUMPDEST PUSH1 0x0 DUP3 DUP3 MSTORE PUSH1 0x20 DUP3 ADD SWAP1 POP SWAP3 SWAP2 POP POP JUMP JUMPDEST PUSH1 0x0 PUSH2 0x11AE DUP3 PUSH2 0x1433 JUMP JUMPDEST SWAP2 POP PUSH2 0x11B9 DUP4 PUSH2 0x1433 JUMP JUMPDEST SWAP3 POP DUP3 PUSH32 0xFFFFFFFFFFFFFFFFFFFFFFFFFFFFFFFFFFFFFFFFFFFFFFFFFFFFFFFFFFFFFFFF SUB DUP3 GT ISZERO PUSH2 0x11EE JUMPI PUSH2 0x11ED PUSH2 0x14AF JUMP JUMPDEST JUMPDEST DUP3 DUP3 ADD SWAP1 POP SWAP3 SWAP2 POP POP JUMP JUMPDEST PUSH1 0x0 PUSH2 0x1204 DUP3 PUSH2 0x1433 JUMP JUMPDEST SWAP2 POP PUSH2 0x120F DUP4 PUSH2 0x1433 JUMP JUMPDEST SWAP3 POP DUP3 PUSH2 0x121F JUMPI PUSH2 0x121E PUSH2 0x14DE JUMP JUMPDEST JUMPDEST DUP3 DUP3 DIV SWAP1 POP SWAP3 SWAP2 POP POP JUMP JUMPDEST PUSH1 0x0 DUP1 DUP3 SWAP2 POP DUP4 SWAP1 POP JUMPDEST PUSH1 0x1 DUP6 GT ISZERO PUSH2 0x1274 JUMPI DUP1 DUP7 DIV DUP2 GT ISZERO PUSH2 0x1250 JUMPI PUSH2 0x124F PUSH2 0x14AF JUMP JUMPDEST JUMPDEST PUSH1 0x1 DUP6 AND ISZERO PUSH2 0x125F JUMPI DUP1 DUP3 MUL SWAP2 POP JUMPDEST DUP1 DUP2 MUL SWAP1 POP PUSH2 0x126D DUP6 PUSH2 0x1552 JUMP JUMPDEST SWAP5 POP PUSH2 0x1234 JUMP JUMPDEST SWAP5 POP SWAP5 SWAP3 POP POP POP JUMP JUMPDEST PUSH1 0x0 PUSH2 0x1288 DUP3 PUSH2 0x1433 JUMP JUMPDEST SWAP2 POP PUSH2 0x1293 DUP4 PUSH2 0x143D JUMP JUMPDEST SWAP3 POP PUSH2 0x12C0 PUSH32 0xFFFFFFFFFFFFFFFFFFFFFFFFFFFFFFFFFFFFFFFFFFFFFFFFFFFFFFFFFFFFFFFF DUP5 DUP5 PUSH2 0x12C8 JUMP JUMPDEST SWAP1 POP SWAP3 SWAP2 POP POP JUMP JUMPDEST PUSH1 0x0 DUP3 PUSH2 0x12D8 JUMPI PUSH1 0x1 SWAP1 POP PUSH2 0x1394 JUMP JUMPDEST DUP2 PUSH2 0x12E6 JUMPI PUSH1 0x0 SWAP1 POP PUSH2 0x1394 JUMP JUMPDEST DUP2 PUSH1 0x1 DUP2 EQ PUSH2 0x12FC JUMPI PUSH1 0x2 DUP2 EQ PUSH2 0x1306 JUMPI PUSH2 0x1335 JUMP JUMPDEST PUSH1 0x1 SWAP2 POP POP PUSH2 0x1394 JUMP JUMPDEST PUSH1 0xFF DUP5 GT ISZERO PUSH2 0x1318 JUMPI PUSH2 0x1317 PUSH2 0x14AF JUMP JUMPDEST JUMPDEST DUP4 PUSH1 0x2 EXP SWAP2 POP DUP5 DUP3 GT ISZERO PUSH2 0x132F JUMPI PUSH2 0x132E PUSH2 0x14AF JUMP JUMPDEST JUMPDEST POP PUSH2 0x1394 JUMP JUMPDEST POP PUSH1 0x20 DUP4 LT PUSH2 0x133 DUP4 LT AND PUSH1 0x4E DUP5 LT PUSH1 0xB DUP5 LT AND OR ISZERO PUSH2 0x136A JUMPI DUP3 DUP3 EXP SWAP1 POP DUP4 DUP2 GT ISZERO PUSH2 0x1365 JUMPI PUSH2 0x1364 PUSH2 0x14AF JUMP JUMPDEST JUMPDEST PUSH2 0x1394 JUMP JUMPDEST PUSH2 0x1377 DUP5 DUP5 DUP5 PUSH1 0x1 PUSH2 0x122A JUMP JUMPDEST SWAP3 POP SWAP1 POP DUP2 DUP5 DIV DUP2 GT ISZERO PUSH2 0x138E JUMPI PUSH2 0x138D PUSH2 0x14AF JUMP JUMPDEST JUMPDEST DUP2 DUP2 MUL SWAP1 POP JUMPDEST SWAP4 SWAP3 POP POP POP JUMP JUMPDEST PUSH1 0x0 PUSH2 0x13A6 DUP3 PUSH2 0x1433 JUMP JUMPDEST SWAP2 POP PUSH2 0x13B1 DUP4 PUSH2 0x1433 JUMP JUMPDEST SWAP3 POP DUP2 PUSH32 0xFFFFFFFFFFFFFFFFFFFFFFFFFFFFFFFFFFFFFFFFFFFFFFFFFFFFFFFFFFFFFFFF DIV DUP4 GT DUP3 ISZERO ISZERO AND ISZERO PUSH2 0x13EA JUMPI PUSH2 0x13E9 PUSH2 0x14AF JUMP JUMPDEST JUMPDEST DUP3 DUP3 MUL SWAP1 POP SWAP3 SWAP2 POP POP JUMP JUMPDEST PUSH1 0x0 PUSH2 0x1400 DUP3 PUSH2 0x1413 JUMP JUMPDEST SWAP1 POP SWAP2 SWAP1 POP JUMP JUMPDEST PUSH1 0x0 DUP2 ISZERO ISZERO SWAP1 POP SWAP2 SWAP1 POP JUMP JUMPDEST PUSH1 0x0 PUSH20 0xFFFFFFFFFFFFFFFFFFFFFFFFFFFFFFFFFFFFFFFF DUP3 AND SWAP1 POP SWAP2 SWAP1 POP JUMP JUMPDEST PUSH1 0x0 DUP2 SWAP1 POP SWAP2 SWAP1 POP JUMP JUMPDEST PUSH1 0x0 PUSH1 0xFF DUP3 AND SWAP1 POP SWAP2 SWAP1 POP JUMP JUMPDEST PUSH1 0x0 JUMPDEST DUP4 DUP2 LT ISZERO PUSH2 0x1468 JUMPI DUP1 DUP3 ADD MLOAD DUP2 DUP5 ADD MSTORE PUSH1 0x20 DUP2 ADD SWAP1 POP PUSH2 0x144D JUMP JUMPDEST DUP4 DUP2 GT ISZERO PUSH2 0x1477 JUMPI PUSH1 0x0 DUP5 DUP5 ADD MSTORE JUMPDEST POP POP POP POP JUMP JUMPDEST PUSH1 0x0 PUSH1 0x2 DUP3 DIV SWAP1 POP PUSH1 0x1 DUP3 AND DUP1 PUSH2 0x1495 JUMPI PUSH1 0x7F DUP3 AND SWAP2 POP JUMPDEST PUSH1 0x20 DUP3 LT DUP2 EQ ISZERO PUSH2 0x14A9 JUMPI PUSH2 0x14A8 PUSH2 0x150D JUMP JUMPDEST JUMPDEST POP SWAP2 SWAP1 POP JUMP JUMPDEST PUSH32 0x4E487B7100000000000000000000000000000000000000000000000000000000 PUSH1 0x0 MSTORE PUSH1 0x11 PUSH1 0x4 MSTORE PUSH1 0x24 PUSH1 0x0 REVERT JUMPDEST PUSH32 0x4E487B7100000000000000000000000000000000000000000000000000000000 PUSH1 0x0 MSTORE PUSH1 0x12 PUSH1 0x4 MSTORE PUSH1 0x24 PUSH1 0x0 REVERT JUMPDEST PUSH32 0x4E487B7100000000000000000000000000000000000000000000000000000000 PUSH1 0x0 MSTORE PUSH1 0x22 PUSH1 0x4 MSTORE PUSH1 0x24 PUSH1 0x0 REVERT JUMPDEST PUSH1 0x0 DUP1 REVERT JUMPDEST PUSH1 0x0 PUSH1 0x1F NOT PUSH1 0x1F DUP4 ADD AND SWAP1 POP SWAP2 SWAP1 POP JUMP JUMPDEST PUSH1 0x0 DUP2 PUSH1 0x1 SHR SWAP1 POP SWAP2 SWAP1 POP JUMP JUMPDEST PUSH32 0x45524332303A207472616E7366657220746F20746865207A65726F2061646472 PUSH1 0x0 DUP3 ADD MSTORE PUSH32 0x6573730000000000000000000000000000000000000000000000000000000000 PUSH1 0x20 DUP3 ADD MSTORE POP JUMP JUMPDEST PUSH32 0x45524332303A20617070726F766520746F20746865207A65726F206164647265 PUSH1 0x0 DUP3 ADD MSTORE PUSH32 0x7373000000000000000000000000000000000000000000000000000000000000 PUSH1 0x20 DUP3 ADD MSTORE POP JUMP JUMPDEST PUSH32 0x45524332303A20696E73756666696369656E7420616C6C6F77616E6365000000 PUSH1 0x0 DUP3 ADD MSTORE POP JUMP JUMPDEST PUSH32 0x45524332303A207472616E7366657220616D6F756E7420657863656564732062 PUSH1 0x0 DUP3 ADD MSTORE PUSH32 0x616C616E63650000000000000000000000000000000000000000000000000000 PUSH1 0x20 DUP3 ADD MSTORE POP JUMP JUMPDEST PUSH32 0x45524332303A207472616E736665722066726F6D20746865207A65726F206164 PUSH1 0x0 DUP3 ADD MSTORE PUSH32 0x6472657373000000000000000000000000000000000000000000000000000000 PUSH1 0x20 DUP3 ADD MSTORE POP JUMP JUMPDEST PUSH32 0x45524332303A20617070726F76652066726F6D20746865207A65726F20616464 PUSH1 0x0 DUP3 ADD MSTORE PUSH32 0x7265737300000000000000000000000000000000000000000000000000000000 PUSH1 0x20 DUP3 ADD MSTORE POP JUMP JUMPDEST PUSH32 0x45524332303A2064656372656173656420616C6C6F77616E63652062656C6F77 PUSH1 0x0 DUP3 ADD MSTORE PUSH32 0x207A65726F000000000000000000000000000000000000000000000000000000 PUSH1 0x20 DUP3 ADD MSTORE POP JUMP JUMPDEST PUSH32 0x45524332303A206D696E7420746F20746865207A65726F206164647265737300 PUSH1 0x0 DUP3 ADD MSTORE POP JUMP JUMPDEST PUSH2 0x1794 DUP2 PUSH2 0x13F5 JUMP JUMPDEST DUP2 EQ PUSH2 0x179F JUMPI PUSH1 0x0 DUP1 REVERT JUMPDEST POP JUMP JUMPDEST PUSH2 0x17AB DUP2 PUSH2 0x1433 JUMP JUMPDEST DUP2 EQ PUSH2 0x17B6 JUMPI PUSH1 0x0 DUP1 REVERT JUMPDEST POP JUMP INVALID LOG2 PUSH5 0x6970667358 0x22 SLT KECCAK256 MSIZE 0xE7 CHAINID 0x49 0xB5 DUP6 PUSH19 0x6750A6C798C8384439A91B0B191B4C65DA97A PUSH13 0x64D961B3C64736F6C63430008 SMOD STOP CALLER "
				},
				"gasEstimates": {
					"creation": {
						"codeDepositCost": "1225400",
						"executionCost": "infinite",
						"totalCost": "infinite"
					},
					"external": {
						"admin()": "2602",
						"allowance(address,address)": "infinite",
						"approve(address,uint256)": "infinite",
						"balanceOf(address)": "2864",
						"buyToken(address)": "infinite",
						"decimals()": "432",
						"decreaseAllowance(address,uint256)": "infinite",
						"increaseAllowance(address,uint256)": "infinite",
						"name()": "infinite",
						"symbol()": "infinite",
						"totalSupply()": "2482",
						"transfer(address,uint256)": "infinite",
						"transferFrom(address,address,uint256)": "infinite"
					}
				},
				"methodIdentifiers": {
					"admin()": "f851a440",
					"allowance(address,address)": "dd62ed3e",
					"approve(address,uint256)": "095ea7b3",
					"balanceOf(address)": "70a08231",
					"buyToken(address)": "7e72fb52",
					"decimals()": "313ce567",
					"decreaseAllowance(address,uint256)": "a457c2d7",
					"increaseAllowance(address,uint256)": "39509351",
					"name()": "06fdde03",
					"symbol()": "95d89b41",
					"totalSupply()": "18160ddd",
					"transfer(address,uint256)": "a9059cbb",
					"transferFrom(address,address,uint256)": "23b872dd"
				}
			},
			"userdoc": {
				"kind": "user",
				"methods": {},
				"version": 1
			}
		}
	}
}